{
  "address": "0x0a6cC6425c004f6F11a9138524e83c8270AA9419",
  "abi": [
    {
      "inputs": [],
      "name": "AccessControlBadConfirmation",
      "type": "error"
    },
    {
      "inputs": [
        {
          "internalType": "address",
          "name": "account",
          "type": "address"
        },
        {
          "internalType": "bytes32",
          "name": "neededRole",
          "type": "bytes32"
        }
      ],
      "name": "AccessControlUnauthorizedAccount",
      "type": "error"
    },
    {
      "inputs": [],
      "name": "InvalidInitialization",
      "type": "error"
    },
    {
      "inputs": [],
      "name": "NotInitializing",
      "type": "error"
    },
    {
      "anonymous": false,
      "inputs": [
        {
          "indexed": true,
          "internalType": "uint256",
          "name": "chainId",
          "type": "uint256"
        },
        {
          "indexed": false,
          "internalType": "string",
          "name": "name",
          "type": "string"
        },
        {
          "indexed": false,
          "internalType": "address",
          "name": "nativeToken",
          "type": "address"
        }
      ],
      "name": "ChainAdded",
      "type": "event"
    },
    {
      "anonymous": false,
      "inputs": [
        {
          "indexed": false,
          "internalType": "uint64",
          "name": "version",
          "type": "uint64"
        }
      ],
      "name": "Initialized",
      "type": "event"
    },
    {
      "anonymous": false,
      "inputs": [
        {
          "indexed": true,
          "internalType": "string",
          "name": "protocol",
          "type": "string"
        },
        {
          "indexed": false,
          "internalType": "address",
          "name": "adapter",
          "type": "address"
        },
        {
          "indexed": false,
          "internalType": "uint256",
          "name": "chainId",
          "type": "uint256"
        },
        {
          "indexed": false,
          "internalType": "uint256",
          "name": "riskScore",
          "type": "uint256"
        }
      ],
      "name": "ProtocolAdded",
      "type": "event"
    },
    {
      "anonymous": false,
      "inputs": [
        {
          "indexed": true,
          "internalType": "string",
          "name": "protocol",
          "type": "string"
        }
      ],
      "name": "ProtocolDeactivated",
      "type": "event"
    },
    {
      "anonymous": false,
      "inputs": [
        {
          "indexed": true,
          "internalType": "string",
          "name": "protocol",
          "type": "string"
        },
        {
          "indexed": false,
          "internalType": "uint256",
          "name": "riskScore",
          "type": "uint256"
        },
        {
          "indexed": false,
          "internalType": "uint256",
          "name": "minAPY",
          "type": "uint256"
        },
        {
          "indexed": false,
          "internalType": "uint256",
          "name": "maxAPY",
          "type": "uint256"
        }
      ],
      "name": "ProtocolUpdated",
      "type": "event"
    },
    {
      "anonymous": false,
      "inputs": [
        {
          "indexed": true,
          "internalType": "bytes32",
          "name": "role",
          "type": "bytes32"
        },
        {
          "indexed": true,
          "internalType": "bytes32",
          "name": "previousAdminRole",
          "type": "bytes32"
        },
        {
          "indexed": true,
          "internalType": "bytes32",
          "name": "newAdminRole",
          "type": "bytes32"
        }
      ],
      "name": "RoleAdminChanged",
      "type": "event"
    },
    {
      "anonymous": false,
      "inputs": [
        {
          "indexed": true,
          "internalType": "bytes32",
          "name": "role",
          "type": "bytes32"
        },
        {
          "indexed": true,
          "internalType": "address",
          "name": "account",
          "type": "address"
        },
        {
          "indexed": true,
          "internalType": "address",
          "name": "sender",
          "type": "address"
        }
      ],
      "name": "RoleGranted",
      "type": "event"
    },
    {
      "anonymous": false,
      "inputs": [
        {
          "indexed": true,
          "internalType": "bytes32",
          "name": "role",
          "type": "bytes32"
        },
        {
          "indexed": true,
          "internalType": "address",
          "name": "account",
          "type": "address"
        },
        {
          "indexed": true,
          "internalType": "address",
          "name": "sender",
          "type": "address"
        }
      ],
      "name": "RoleRevoked",
      "type": "event"
    },
    {
      "inputs": [],
      "name": "ADMIN_ROLE",
      "outputs": [
        {
          "internalType": "bytes32",
          "name": "",
          "type": "bytes32"
        }
      ],
      "stateMutability": "view",
      "type": "function"
    },
    {
      "inputs": [],
      "name": "DEFAULT_ADMIN_ROLE",
      "outputs": [
        {
          "internalType": "bytes32",
          "name": "",
          "type": "bytes32"
        }
      ],
      "stateMutability": "view",
      "type": "function"
    },
    {
      "inputs": [],
      "name": "PROTOCOL_MANAGER_ROLE",
      "outputs": [
        {
          "internalType": "bytes32",
          "name": "",
          "type": "bytes32"
        }
      ],
      "stateMutability": "view",
      "type": "function"
    },
    {
      "inputs": [
        {
          "internalType": "uint256",
          "name": "chainId",
          "type": "uint256"
        },
        {
          "internalType": "string",
          "name": "name",
          "type": "string"
        },
        {
          "internalType": "address",
          "name": "nativeToken",
          "type": "address"
        },
        {
          "internalType": "uint256",
          "name": "gasPrice",
          "type": "uint256"
        },
        {
          "internalType": "uint256",
          "name": "bridgeCost",
          "type": "uint256"
        }
      ],
      "name": "addChain",
      "outputs": [],
      "stateMutability": "nonpayable",
      "type": "function"
    },
    {
      "inputs": [
        {
          "internalType": "string",
          "name": "name",
          "type": "string"
        },
        {
          "internalType": "address",
          "name": "adapter",
          "type": "address"
        },
        {
          "internalType": "uint256",
          "name": "chainId",
          "type": "uint256"
        },
        {
          "internalType": "uint256",
          "name": "riskScore",
          "type": "uint256"
        },
        {
          "internalType": "uint256",
          "name": "minAPY",
          "type": "uint256"
        },
        {
          "internalType": "uint256",
          "name": "maxAPY",
          "type": "uint256"
        }
      ],
      "name": "addProtocol",
      "outputs": [],
      "stateMutability": "nonpayable",
      "type": "function"
    },
    {
      "inputs": [
        {
          "internalType": "uint256",
          "name": "",
          "type": "uint256"
        }
      ],
      "name": "chainInfo",
      "outputs": [
        {
          "internalType": "string",
          "name": "name",
          "type": "string"
        },
        {
          "internalType": "address",
          "name": "nativeToken",
          "type": "address"
        },
        {
          "internalType": "uint256",
          "name": "gasPrice",
          "type": "uint256"
        },
        {
          "internalType": "bool",
          "name": "isActive",
          "type": "bool"
        },
        {
          "internalType": "uint256",
          "name": "bridgeCost",
          "type": "uint256"
        }
      ],
      "stateMutability": "view",
      "type": "function"
    },
    {
      "inputs": [
        {
          "internalType": "uint256",
          "name": "",
          "type": "uint256"
        },
        {
          "internalType": "uint256",
          "name": "",
          "type": "uint256"
        }
      ],
      "name": "chainProtocols",
      "outputs": [
        {
          "internalType": "string",
          "name": "",
          "type": "string"
        }
      ],
      "stateMutability": "view",
      "type": "function"
    },
    {
      "inputs": [
        {
          "internalType": "string",
          "name": "name",
          "type": "string"
        }
      ],
      "name": "deactivateProtocol",
      "outputs": [],
      "stateMutability": "nonpayable",
      "type": "function"
    },
    {
      "inputs": [
        {
          "internalType": "string",
          "name": "name",
          "type": "string"
        }
      ],
      "name": "getAdapter",
      "outputs": [
        {
          "internalType": "address",
          "name": "",
          "type": "address"
        }
      ],
      "stateMutability": "view",
      "type": "function"
    },
    {
      "inputs": [],
      "name": "getAllProtocols",
      "outputs": [
        {
          "internalType": "string[]",
          "name": "",
          "type": "string[]"
        }
      ],
      "stateMutability": "view",
      "type": "function"
    },
    {
      "inputs": [
        {
          "internalType": "uint256",
          "name": "chainId",
          "type": "uint256"
        }
      ],
      "name": "getChainInfo",
      "outputs": [
        {
          "components": [
            {
              "internalType": "string",
              "name": "name",
              "type": "string"
            },
            {
              "internalType": "address",
              "name": "nativeToken",
              "type": "address"
            },
            {
              "internalType": "uint256",
              "name": "gasPrice",
              "type": "uint256"
            },
            {
              "internalType": "bool",
              "name": "isActive",
              "type": "bool"
            },
            {
              "internalType": "uint256",
              "name": "bridgeCost",
              "type": "uint256"
            }
          ],
          "internalType": "struct ChainRegistry.ChainInfo",
          "name": "",
          "type": "tuple"
        }
      ],
      "stateMutability": "view",
      "type": "function"
    },
    {
      "inputs": [
        {
          "internalType": "uint256",
          "name": "chainId",
          "type": "uint256"
        }
      ],
      "name": "getChainProtocols",
      "outputs": [
        {
          "internalType": "string[]",
          "name": "",
          "type": "string[]"
        }
      ],
      "stateMutability": "view",
      "type": "function"
    },
    {
      "inputs": [
        {
          "internalType": "uint256",
          "name": "sourceChainId",
          "type": "uint256"
        },
        {
          "internalType": "uint256",
          "name": "targetChainId",
          "type": "uint256"
        },
        {
          "internalType": "uint256",
          "name": "minAPYImprovement",
          "type": "uint256"
        }
      ],
      "name": "getCrossChainOpportunities",
      "outputs": [
        {
          "internalType": "string[]",
          "name": "opportunities",
          "type": "string[]"
        }
      ],
      "stateMutability": "view",
      "type": "function"
    },
    {
      "inputs": [
        {
          "internalType": "uint256",
          "name": "minAPY",
          "type": "uint256"
        },
        {
          "internalType": "uint256",
          "name": "maxRiskScore",
          "type": "uint256"
        },
        {
          "internalType": "uint256",
          "name": "chainId",
          "type": "uint256"
        }
      ],
      "name": "getOptimalProtocols",
      "outputs": [
        {
          "internalType": "string[]",
          "name": "optimalProtocols",
          "type": "string[]"
        }
      ],
      "stateMutability": "view",
      "type": "function"
    },
    {
      "inputs": [
        {
          "internalType": "string",
          "name": "name",
          "type": "string"
        }
      ],
      "name": "getProtocolInfo",
      "outputs": [
        {
          "components": [
            {
              "internalType": "address",
              "name": "adapter",
              "type": "address"
            },
            {
              "internalType": "uint256",
              "name": "chainId",
              "type": "uint256"
            },
            {
              "internalType": "uint256",
              "name": "riskScore",
              "type": "uint256"
            },
            {
              "internalType": "uint256",
              "name": "minAPY",
              "type": "uint256"
            },
            {
              "internalType": "uint256",
              "name": "maxAPY",
              "type": "uint256"
            },
            {
              "internalType": "bool",
              "name": "isActive",
              "type": "bool"
            },
            {
              "internalType": "uint256",
              "name": "tvl",
              "type": "uint256"
            },
            {
              "internalType": "uint256",
              "name": "lastUpdate",
              "type": "uint256"
            }
          ],
          "internalType": "struct ChainRegistry.ProtocolInfo",
          "name": "",
          "type": "tuple"
        }
      ],
      "stateMutability": "view",
      "type": "function"
    },
    {
      "inputs": [
        {
          "internalType": "uint256",
          "name": "maxRiskScore",
          "type": "uint256"
        }
      ],
      "name": "getProtocolsByRiskScore",
      "outputs": [
        {
          "internalType": "string[]",
          "name": "",
          "type": "string[]"
        }
      ],
      "stateMutability": "view",
      "type": "function"
    },
    {
      "inputs": [
        {
          "internalType": "bytes32",
          "name": "role",
          "type": "bytes32"
        }
      ],
      "name": "getRoleAdmin",
      "outputs": [
        {
          "internalType": "bytes32",
          "name": "",
          "type": "bytes32"
        }
      ],
      "stateMutability": "view",
      "type": "function"
    },
    {
      "inputs": [],
      "name": "getSupportedChains",
      "outputs": [
        {
          "internalType": "uint256[]",
          "name": "",
          "type": "uint256[]"
        }
      ],
      "stateMutability": "view",
      "type": "function"
    },
    {
      "inputs": [
        {
          "internalType": "bytes32",
          "name": "role",
          "type": "bytes32"
        },
        {
          "internalType": "address",
          "name": "account",
          "type": "address"
        }
      ],
      "name": "grantRole",
      "outputs": [],
      "stateMutability": "nonpayable",
      "type": "function"
    },
    {
      "inputs": [
        {
          "internalType": "bytes32",
          "name": "role",
          "type": "bytes32"
        },
        {
          "internalType": "address",
          "name": "account",
          "type": "address"
        }
      ],
      "name": "hasRole",
      "outputs": [
        {
          "internalType": "bool",
          "name": "",
          "type": "bool"
        }
      ],
      "stateMutability": "view",
      "type": "function"
    },
    {
      "inputs": [
        {
          "internalType": "address",
          "name": "admin",
          "type": "address"
        }
      ],
      "name": "initialize",
      "outputs": [],
      "stateMutability": "nonpayable",
      "type": "function"
    },
    {
      "inputs": [
        {
          "internalType": "string",
          "name": "",
          "type": "string"
        }
      ],
      "name": "protocolAdapters",
      "outputs": [
        {
          "internalType": "address",
          "name": "",
          "type": "address"
        }
      ],
      "stateMutability": "view",
      "type": "function"
    },
    {
      "inputs": [
        {
          "internalType": "string",
          "name": "",
          "type": "string"
        }
      ],
      "name": "protocolInfo",
      "outputs": [
        {
          "internalType": "address",
          "name": "adapter",
          "type": "address"
        },
        {
          "internalType": "uint256",
          "name": "chainId",
          "type": "uint256"
        },
        {
          "internalType": "uint256",
          "name": "riskScore",
          "type": "uint256"
        },
        {
          "internalType": "uint256",
          "name": "minAPY",
          "type": "uint256"
        },
        {
          "internalType": "uint256",
          "name": "maxAPY",
          "type": "uint256"
        },
        {
          "internalType": "bool",
          "name": "isActive",
          "type": "bool"
        },
        {
          "internalType": "uint256",
          "name": "tvl",
          "type": "uint256"
        },
        {
          "internalType": "uint256",
          "name": "lastUpdate",
          "type": "uint256"
        }
      ],
      "stateMutability": "view",
      "type": "function"
    },
    {
      "inputs": [
        {
          "internalType": "uint256",
          "name": "",
          "type": "uint256"
        }
      ],
      "name": "protocols",
      "outputs": [
        {
          "internalType": "string",
          "name": "",
          "type": "string"
        }
      ],
      "stateMutability": "view",
      "type": "function"
    },
    {
      "inputs": [
        {
          "internalType": "bytes32",
          "name": "role",
          "type": "bytes32"
        },
        {
          "internalType": "address",
          "name": "callerConfirmation",
          "type": "address"
        }
      ],
      "name": "renounceRole",
      "outputs": [],
      "stateMutability": "nonpayable",
      "type": "function"
    },
    {
      "inputs": [
        {
          "internalType": "bytes32",
          "name": "role",
          "type": "bytes32"
        },
        {
          "internalType": "address",
          "name": "account",
          "type": "address"
        }
      ],
      "name": "revokeRole",
      "outputs": [],
      "stateMutability": "nonpayable",
      "type": "function"
    },
    {
      "inputs": [
        {
          "internalType": "uint256",
          "name": "",
          "type": "uint256"
        }
      ],
      "name": "supportedChains",
      "outputs": [
        {
          "internalType": "uint256",
          "name": "",
          "type": "uint256"
        }
      ],
      "stateMutability": "view",
      "type": "function"
    },
    {
      "inputs": [
        {
          "internalType": "bytes4",
          "name": "interfaceId",
          "type": "bytes4"
        }
      ],
      "name": "supportsInterface",
      "outputs": [
        {
          "internalType": "bool",
          "name": "",
          "type": "bool"
        }
      ],
      "stateMutability": "view",
      "type": "function"
    },
    {
      "inputs": [
        {
          "internalType": "string",
          "name": "name",
          "type": "string"
        },
        {
          "internalType": "uint256",
          "name": "riskScore",
          "type": "uint256"
        },
        {
          "internalType": "uint256",
          "name": "minAPY",
          "type": "uint256"
        },
        {
          "internalType": "uint256",
          "name": "maxAPY",
          "type": "uint256"
        },
        {
          "internalType": "uint256",
          "name": "tvl",
          "type": "uint256"
        }
      ],
      "name": "updateProtocolInfo",
      "outputs": [],
      "stateMutability": "nonpayable",
      "type": "function"
    }
  ],
  "transactionHash": "0x47f782620661af7e867fc0f8f60744c984dc77a6fbd58b9d394f6d5304cd9baf",
  "args": [],
  "numDeployments": 1,
  "solcInputHash": "e98586a13fa04cb18620ff30424ed588",
  "bytecode": "0x608060405234801561001057600080fd5b50612bbd806100206000396000f3fe608060405234801561001057600080fd5b50600436106101cf5760003560e01c806375b238fc11610104578063af50f0a0116100a2578063c4d66de811610071578063c4d66de81461052b578063d547741f1461053e578063da253eac14610551578063f3cf92ed1461056657600080fd5b8063af50f0a01461043b578063b8062006146104f0578063bc4c221214610503578063c4bffe2b1461051657600080fd5b80638c396220116100de5780638c396220146103f557806391d1485414610415578063a217fddf146103ba578063aed6f3461461042857600080fd5b806375b238fc146103ba578063804ea334146103c257806386a0f052146103e257600080fd5b80633d0f1bbf11610171578063548d496f1161014b578063548d496f146103405780636c08b249146103535780636e1e3f6a1461039f578063741c53eb146103b257600080fd5b80633d0f1bbf146102fa578063450f9c361461031a5780634a2505911461032d57600080fd5b8063248a9ca3116101ad578063248a9ca3146102395780632f2ff15d1461025a57806336568abe1461026d578063370ca5bc1461028057600080fd5b80630157288b146101d457806301ffc9a714610201578063135ae33114610224575b600080fd5b6101e76101e23660046122d8565b610579565b6040516101f8959493929190612341565b60405180910390f35b61021461020f366004612381565b610640565b60405190151581526020016101f8565b610237610232366004612416565b610677565b005b61024c6102473660046122d8565b610828565b6040519081526020016101f8565b610237610268366004612485565b61084a565b61023761027b366004612485565b61086c565b61029361028e3660046124b1565b6108a4565b6040516101f8919081516001600160a01b031681526020808301519082015260408083015190820152606080830151908201526080808301519082015260a08281015115159082015260c0808301519082015260e091820151918101919091526101000190565b61030d6103083660046124f2565b610985565b6040516101f8919061251e565b6102376103283660046124b1565b610ce2565b61023761033b366004612580565b610dec565b61024c61034e3660046122d8565b6110d2565b61038761036136600461260e565b80516020818301810180516000825292820191909301209152546001600160a01b031681565b6040516001600160a01b0390911681526020016101f8565b61030d6103ad3660046122d8565b6110f3565b61030d6111df565b61024c600081565b6103d56103d03660046122d8565b6112b8565b6040516101f891906126be565b61030d6103f03660046122d8565b6113dc565b6104086104033660046122d8565b611679565b6040516101f89190612718565b610214610423366004612485565b611725565b61023761043636600461272b565b61175d565b6104a961044936600461260e565b805160208183018101805160018083529383019290940191909120929052815490820154600283015460038401546004850154600586015460068701546007909701546001600160a01b0390961696949593949293919260ff9091169188565b604080516001600160a01b03909916895260208901979097529587019490945260608601929092526080850152151560a084015260c083015260e0820152610100016101f8565b6104086104fe36600461278c565b611911565b6103876105113660046124b1565b611949565b61051e61197d565b6040516101f891906127ae565b6102376105393660046127f2565b6119d5565b61023761054c366004612485565b611b07565b61024c600080516020612b4883398151915281565b61030d6105743660046124f2565b611b23565b6004602052600090815260409020805481906105949061280d565b80601f01602080910402602001604051908101604052809291908181526020018280546105c09061280d565b801561060d5780601f106105e25761010080835404028352916020019161060d565b820191906000526020600020905b8154815290600101906020018083116105f057829003601f168201915b50505060018401546002850154600386015460049096015494956001600160a01b039092169490935060ff909116915085565b60006001600160e01b03198216637965db0b60e01b148061067157506301ffc9a760e01b6001600160e01b03198316145b92915050565b60006106828161211a565b6001600160a01b0384166106d45760405162461bcd60e51b815260206004820152601460248201527324b73b30b634b2103730ba34bb32903a37b5b2b760611b60448201526064015b60405180910390fd5b6040518060a0016040528087878080601f01602080910402602001604051908101604052809392919081815260200183838082843760009201829052509385525050506001600160a01b03871660208084019190915260408084018890526001606085015260809093018690528a8252600490522081518190610757908261288d565b506020820151600182810180546001600160a01b0319166001600160a01b03909316929092179091556040808401516002840155606084015160038401805460ff19169115159190911790556080909301516004909201919091556005805491820181556000527f036b6384b5eca791c62761152d0c79bb0604c104a5fb6f4eb0703f3154bb3db0018890555187907fd561e43d9bdfcde1ceb4f2cd9972b8f1667876d7df10a2b775f181b66ae5b39f906108179089908990899061294c565b60405180910390a250505050505050565b6000908152600080516020612b68833981519152602052604090206001015490565b61085382610828565b61085c8161211a565b6108668383612127565b50505050565b6001600160a01b03811633146108955760405163334bd91960e11b815260040160405180910390fd5b61089f82826121cc565b505050565b6108f760405180610100016040528060006001600160a01b031681526020016000815260200160008152602001600081526020016000815260200160001515815260200160008152602001600081525090565b6001838360405161090992919061298d565b9081526040805191829003602090810183206101008401835280546001600160a01b031684526001810154918401919091526002810154918301919091526003810154606083015260048101546080830152600581015460ff16151560a0830152600681015460c08301526007015460e0820152905092915050565b6000818152600260209081526040808320805482518185028101850190935280835260609493849084015b82821015610a5c5783829060005260206000200180546109cf9061280d565b80601f01602080910402602001604051908101604052809291908181526020018280546109fb9061280d565b8015610a485780601f10610a1d57610100808354040283529160200191610a48565b820191906000526020600020905b815481529060010190602001808311610a2b57829003601f168201915b5050505050815260200190600101906109b0565b5050505090506000805b8251811015610b595760006001848381518110610a8557610a8561299d565b6020026020010151604051610a9a91906129b3565b90815260408051602092819003830181206101008201835280546001600160a01b031682526001810154938201939093526002830154918101919091526003820154606082015260048201546080820152600582015460ff1615801560a08301819052600684015460c084015260079093015460e0830152909250610b23575087816060015110155b8015610b33575086816040015111155b15610b465782610b42816129e5565b9350505b5080610b51816129e5565b915050610a66565b50806001600160401b03811115610b7257610b726125f8565b604051908082528060200260200182016040528015610ba557816020015b6060815260200190600190039081610b905790505b5092506000805b8351811015610cd75760006001858381518110610bcb57610bcb61299d565b6020026020010151604051610be091906129b3565b90815260408051602092819003830181206101008201835280546001600160a01b031682526001810154938201939093526002830154918101919091526003820154606082015260048201546080820152600582015460ff1615801560a08301819052600684015460c084015260079093015460e0830152909250610c69575088816060015110155b8015610c79575087816040015111155b15610cc457848281518110610c9057610c9061299d565b6020026020010151868481518110610caa57610caa61299d565b60200260200101819052508280610cc0906129e5565b9350505b5080610ccf816129e5565b915050610bac565b505050509392505050565b600080516020612b48833981519152610cfa8161211a565b60006001600160a01b031660008484604051610d1792919061298d565b908152604051908190036020019020546001600160a01b031603610d725760405162461bcd60e51b8152602060048201526012602482015271141c9bdd1bd8dbdb081b9bdd08199bdd5b9960721b60448201526064016106cb565b600060018484604051610d8692919061298d565b908152604051908190036020018120600501805492151560ff1990931692909217909155610db7908490849061298d565b604051908190038120907fc7724ac0d1432663dfaeca86c97b9664a725928c68c661685f85da64a1cdd24490600090a2505050565b600080516020612b48833981519152610e048161211a565b6001600160a01b038616610e4c5760405162461bcd60e51b815260206004820152600f60248201526e24b73b30b634b21030b230b83a32b960891b60448201526064016106cb565b6064841115610e935760405162461bcd60e51b81526020600482015260136024820152720a4d2e6d640e6c6dee4ca40e8dede40d0d2ced606b1b60448201526064016106cb565b81831115610ed75760405162461bcd60e51b8152602060048201526011602482015270496e76616c6964204150592072616e676560781b60448201526064016106cb565b8560008989604051610eea92919061298d565b908152602001604051809103902060006101000a8154816001600160a01b0302191690836001600160a01b03160217905550604051806101000160405280876001600160a01b03168152602001868152602001858152602001848152602001838152602001600115158152602001600081526020014281525060018989604051610f7592919061298d565b9081526040805160209281900383019020835181546001600160a01b0319166001600160a01b039091161781559183015160018084019190915590830151600283015560608301516003808401919091556080840151600484015560a084015160058401805460ff191691151591909117905560c0840151600684015560e090930151600790920191909155815490810182556000919091527fc2575a0e9e593c00f959f8c92f12db2869c3395a3b0502d05e2516446f71f85b0161103b888a836129fe565b50600085815260026020908152604082208054600181018255908352912001611065888a836129fe565b50878760405161107692919061298d565b604080519182900382206001600160a01b038916835260208301889052908201869052907f27c8373c6f4b65f599796fd1980ffd82583fb8979fc4c0a516c1618e4f606ad9906060015b60405180910390a25050505050505050565b600581815481106110e257600080fd5b600091825260209091200154905081565b606060026000838152602001908152602001600020805480602002602001604051908101604052809291908181526020016000905b828210156111d45783829060005260206000200180546111479061280d565b80601f01602080910402602001604051908101604052809291908181526020018280546111739061280d565b80156111c05780601f10611195576101008083540402835291602001916111c0565b820191906000526020600020905b8154815290600101906020018083116111a357829003601f168201915b505050505081526020019060010190611128565b505050509050919050565b60606003805480602002602001604051908101604052809291908181526020016000905b828210156112af5783829060005260206000200180546112229061280d565b80601f016020809104026020016040519081016040528092919081815260200182805461124e9061280d565b801561129b5780601f106112705761010080835404028352916020019161129b565b820191906000526020600020905b81548152906001019060200180831161127e57829003601f168201915b505050505081526020019060010190611203565b50505050905090565b6112f56040518060a001604052806060815260200160006001600160a01b0316815260200160008152602001600015158152602001600081525090565b60008281526004602052604090819020815160a0810190925280548290829061131d9061280d565b80601f01602080910402602001604051908101604052809291908181526020018280546113499061280d565b80156113965780601f1061136b57610100808354040283529160200191611396565b820191906000526020600020905b81548152906001019060200180831161137957829003601f168201915b505050918352505060018201546001600160a01b0316602082015260028201546040820152600382015460ff161515606082015260049091015460809091015292915050565b60606000805b60035481101561149c57836001600383815481106114025761140261299d565b906000526020600020016040516114199190612abe565b9081526020016040518091039020600201541115801561147757506001600382815481106114495761144961299d565b906000526020600020016040516114609190612abe565b9081526040519081900360200190206005015460ff165b1561148a5781611486816129e5565b9250505b80611494816129e5565b9150506113e2565b506000816001600160401b038111156114b7576114b76125f8565b6040519080825280602002602001820160405280156114ea57816020015b60608152602001906001900390816114d55790505b5090506000805b60035481101561166f57856001600383815481106115115761151161299d565b906000526020600020016040516115289190612abe565b9081526020016040518091039020600201541115801561158657506001600382815481106115585761155861299d565b9060005260206000200160405161156f9190612abe565b9081526040519081900360200190206005015460ff165b1561165d576003818154811061159e5761159e61299d565b9060005260206000200180546115b39061280d565b80601f01602080910402602001604051908101604052809291908181526020018280546115df9061280d565b801561162c5780601f106116015761010080835404028352916020019161162c565b820191906000526020600020905b81548152906001019060200180831161160f57829003601f168201915b50505050508383815181106116435761164361299d565b60200260200101819052508180611659906129e5565b9250505b80611667816129e5565b9150506114f1565b5090949350505050565b6003818154811061168957600080fd5b9060005260206000200160009150905080546116a49061280d565b80601f01602080910402602001604051908101604052809291908181526020018280546116d09061280d565b801561171d5780601f106116f25761010080835404028352916020019161171d565b820191906000526020600020905b81548152906001019060200180831161170057829003601f168201915b505050505081565b6000918252600080516020612b68833981519152602090815260408084206001600160a01b0393909316845291905290205460ff1690565b600080516020612b488339815191526117758161211a565b60006001600160a01b03166000888860405161179292919061298d565b908152604051908190036020019020546001600160a01b0316036117ed5760405162461bcd60e51b8152602060048201526012602482015271141c9bdd1bd8dbdb081b9bdd08199bdd5b9960721b60448201526064016106cb565b60648511156118345760405162461bcd60e51b81526020600482015260136024820152720a4d2e6d640e6c6dee4ca40e8dede40d0d2ced606b1b60448201526064016106cb565b828411156118785760405162461bcd60e51b8152602060048201526011602482015270496e76616c6964204150592072616e676560781b60448201526064016106cb565b60006001888860405161188c92919061298d565b9081526040519081900360200181206002810188905560038101879055600481018690556006810185905542600782015591506118cc908990899061298d565b6040805191829003822088835260208301889052908201869052907f3695d2299117db5971508d1a27dbc2066af3a351d28ff923828f726d725e300a906060016110c0565b6002602052816000526040600020818154811061192d57600080fd5b906000526020600020016000915091505080546116a49061280d565b600080838360405161195c92919061298d565b908152604051908190036020019020546001600160a01b0316905092915050565b606060058054806020026020016040519081016040528092919081815260200182805480156119cb57602002820191906000526020600020905b8154815260200190600101908083116119b7575b5050505050905090565b7ff0c57e16840df040f15088dc2f81fe391c3923bec73e23a9662efc9c229c6a008054600160401b810460ff1615906001600160401b0316600081158015611a1a5750825b90506000826001600160401b03166001148015611a365750303b155b905081158015611a44575080155b15611a625760405163f92ee8a960e01b815260040160405180910390fd5b845467ffffffffffffffff191660011785558315611a8c57845460ff60401b1916600160401b1785555b611a94612248565b611a9f600087612127565b50611ab8600080516020612b4883398151915287612127565b508315611aff57845460ff60401b19168555604051600181527fc7f505b2f371ae2175ee4913f4499e1f2633a7b5936321eed1cdaeb6115181d29060200160405180910390a15b505050505050565b611b1082610828565b611b198161211a565b61086683836121cc565b6000838152600260209081526040808320805482518185028101850190935280835260609493849084015b82821015611bfa578382906000526020600020018054611b6d9061280d565b80601f0160208091040260200160405190810160405280929190818152602001828054611b999061280d565b8015611be65780601f10611bbb57610100808354040283529160200191611be6565b820191906000526020600020905b815481529060010190602001808311611bc957829003601f168201915b505050505081526020019060010190611b4e565b505050509050600060026000868152602001908152602001600020805480602002602001604051908101604052809291908181526020016000905b82821015611ce1578382906000526020600020018054611c549061280d565b80601f0160208091040260200160405190810160405280929190818152602001828054611c809061280d565b8015611ccd5780601f10611ca257610100808354040283529160200191611ccd565b820191906000526020600020905b815481529060010190602001808311611cb057829003601f168201915b505050505081526020019060010190611c35565b5050505090506000805b8351811015611eb75760005b8351811015611ea45760006001868481518110611d1657611d1661299d565b6020026020010151604051611d2b91906129b3565b9081526040805191829003602090810183206101008401835280546001600160a01b03168452600180820154928501929092526002810154928401929092526003820154606084015260048201546080840152600582015460ff16151560a0840152600682015460c084015260079091015460e08301528651919250600091879085908110611dbc57611dbc61299d565b6020026020010151604051611dd191906129b3565b9081526040805191829003602090810183206101008401835280546001600160a01b031684526001810154918401919091526002810154918301919091526003810154606083015260048101546080830152600581015460ff16151560a080840191909152600682015460c084015260079091015460e08301528301519091508015611e5e57508060a001515b8015611e7c5750888260800151611e759190612b34565b8160600151115b15611e8f5784611e8b816129e5565b9550505b50508080611e9c906129e5565b915050611cf7565b5080611eaf816129e5565b915050611ceb565b50806001600160401b03811115611ed057611ed06125f8565b604051908082528060200260200182016040528015611f0357816020015b6060815260200190600190039081611eee5790505b5093506000805b845181101561210e5760005b84518110156120fb5760006001878481518110611f3557611f3561299d565b6020026020010151604051611f4a91906129b3565b9081526040805191829003602090810183206101008401835280546001600160a01b03168452600180820154928501929092526002810154928401929092526003820154606084015260048201546080840152600582015460ff16151560a0840152600682015460c084015260079091015460e08301528751919250600091889085908110611fdb57611fdb61299d565b6020026020010151604051611ff091906129b3565b9081526040805191829003602090810183206101008401835280546001600160a01b031684526001810154918401919091526002810154918301919091526003810154606083015260048101546080830152600581015460ff16151560a080840191909152600682015460c084015260079091015460e0830152830151909150801561207d57508060a001515b801561209b57508982608001516120949190612b34565b8160600151115b156120e6578683815181106120b2576120b261299d565b60200260200101518986815181106120cc576120cc61299d565b602002602001018190525084806120e2906129e5565b9550505b505080806120f3906129e5565b915050611f16565b5080612106816129e5565b915050611f0a565b50505050509392505050565b6121248133612252565b50565b6000600080516020612b688339815191526121428484611725565b6121c2576000848152602082815260408083206001600160a01b03871684529091529020805460ff191660011790556121783390565b6001600160a01b0316836001600160a01b0316857f2f8788117e7eff1d82e926ec794901d17c78024a50270940304540a733656f0d60405160405180910390a46001915050610671565b6000915050610671565b6000600080516020612b688339815191526121e78484611725565b156121c2576000848152602082815260408083206001600160a01b0387168085529252808320805460ff1916905551339287917ff6391f5c32d9c69d2a47ea670b442974b53935d1edc7fd64eb21e047a839171b9190a46001915050610671565b61225061228f565b565b61225c8282611725565b61228b5760405163e2517d3f60e01b81526001600160a01b0382166004820152602481018390526044016106cb565b5050565b7ff0c57e16840df040f15088dc2f81fe391c3923bec73e23a9662efc9c229c6a0054600160401b900460ff1661225057604051631afcd79f60e31b815260040160405180910390fd5b6000602082840312156122ea57600080fd5b5035919050565b60005b8381101561230c5781810151838201526020016122f4565b50506000910152565b6000815180845261232d8160208601602086016122f1565b601f01601f19169290920160200192915050565b60a08152600061235460a0830188612315565b6001600160a01b039690961660208301525060408101939093529015156060830152608090910152919050565b60006020828403121561239357600080fd5b81356001600160e01b0319811681146123ab57600080fd5b9392505050565b60008083601f8401126123c457600080fd5b5081356001600160401b038111156123db57600080fd5b6020830191508360208285010111156123f357600080fd5b9250929050565b80356001600160a01b038116811461241157600080fd5b919050565b60008060008060008060a0878903121561242f57600080fd5b8635955060208701356001600160401b0381111561244c57600080fd5b61245889828a016123b2565b909650945061246b9050604088016123fa565b925060608701359150608087013590509295509295509295565b6000806040838503121561249857600080fd5b823591506124a8602084016123fa565b90509250929050565b600080602083850312156124c457600080fd5b82356001600160401b038111156124da57600080fd5b6124e6858286016123b2565b90969095509350505050565b60008060006060848603121561250757600080fd5b505081359360208301359350604090920135919050565b6000602080830181845280855180835260408601915060408160051b870101925083870160005b8281101561257357603f19888603018452612561858351612315565b94509285019290850190600101612545565b5092979650505050505050565b600080600080600080600060c0888a03121561259b57600080fd5b87356001600160401b038111156125b157600080fd5b6125bd8a828b016123b2565b90985096506125d09050602089016123fa565b96999598509596604081013596506060810135956080820135955060a0909101359350915050565b634e487b7160e01b600052604160045260246000fd5b60006020828403121561262057600080fd5b81356001600160401b038082111561263757600080fd5b818401915084601f83011261264b57600080fd5b81358181111561265d5761265d6125f8565b604051601f8201601f19908116603f01168101908382118183101715612685576126856125f8565b8160405282815287602084870101111561269e57600080fd5b826020860160208301376000928101602001929092525095945050505050565b602081526000825160a060208401526126da60c0840182612315565b905060018060a01b03602085015116604084015260408401516060840152606084015115156080840152608084015160a08401528091505092915050565b6020815260006123ab6020830184612315565b60008060008060008060a0878903121561274457600080fd5b86356001600160401b0381111561275a57600080fd5b61276689828a016123b2565b909a90995060208901359860408101359850606081013597506080013595509350505050565b6000806040838503121561279f57600080fd5b50508035926020909101359150565b6020808252825182820181905260009190848201906040850190845b818110156127e6578351835292840192918401916001016127ca565b50909695505050505050565b60006020828403121561280457600080fd5b6123ab826123fa565b600181811c9082168061282157607f821691505b60208210810361284157634e487b7160e01b600052602260045260246000fd5b50919050565b601f82111561089f57600081815260208120601f850160051c8101602086101561286e5750805b601f850160051c820191505b81811015611aff5782815560010161287a565b81516001600160401b038111156128a6576128a66125f8565b6128ba816128b4845461280d565b84612847565b602080601f8311600181146128ef57600084156128d75750858301515b600019600386901b1c1916600185901b178555611aff565b600085815260208120601f198616915b8281101561291e578886015182559484019460019091019084016128ff565b508582101561293c5787850151600019600388901b60f8161c191681555b5050505050600190811b01905550565b6040815282604082015282846060830137600060608483018101919091526001600160a01b03929092166020820152601f909201601f191690910101919050565b8183823760009101908152919050565b634e487b7160e01b600052603260045260246000fd5b600082516129c58184602087016122f1565b9190910192915050565b634e487b7160e01b600052601160045260246000fd5b6000600182016129f7576129f76129cf565b5060010190565b6001600160401b03831115612a1557612a156125f8565b612a2983612a23835461280d565b83612847565b6000601f841160018114612a5d5760008515612a455750838201355b600019600387901b1c1916600186901b178355612ab7565b600083815260209020601f19861690835b82811015612a8e5786850135825560209485019460019092019101612a6e565b5086821015612aab5760001960f88860031b161c19848701351681555b505060018560011b0183555b5050505050565b6000808354612acc8161280d565b60018281168015612ae45760018114612af957612b28565b60ff1984168752821515830287019450612b28565b8760005260208060002060005b85811015612b1f5781548a820152908401908201612b06565b50505082870194505b50929695505050505050565b80820180821115610671576106716129cf56feda3bb1ed6d0047074a23ab55d6b8b4ebc655563ba5a668a4ed7540883cb393b002dd7bc7dec4dceedda775e58dd541e08a116c6c53815c0bd028192f7b626800a2646970667358221220e30486cfd69854588ec7b346a0d84a1d47898222d7d8d26abe13b348db423b6164736f6c63430008140033",
  "devdoc": {
    "errors": {
      "AccessControlBadConfirmation()": [
        {
          "details": "The caller of a function is not the expected one. NOTE: Don't confuse with {AccessControlUnauthorizedAccount}."
        }
      ],
      "AccessControlUnauthorizedAccount(address,bytes32)": [
        {
          "details": "The `account` is missing a role."
        }
      ],
      "InvalidInitialization()": [
        {
          "details": "The contract is already initialized."
        }
      ],
      "NotInitializing()": [
        {
          "details": "The contract is not initializing."
        }
      ]
    },
    "events": {
      "Initialized(uint64)": {
        "details": "Triggered when the contract has been initialized or reinitialized."
      },
      "RoleAdminChanged(bytes32,bytes32,bytes32)": {
        "details": "Emitted when `newAdminRole` is set as ``role``'s admin role, replacing `previousAdminRole` `DEFAULT_ADMIN_ROLE` is the starting admin for all roles, despite {RoleAdminChanged} not being emitted signaling this."
      },
      "RoleGranted(bytes32,address,address)": {
        "details": "Emitted when `account` is granted `role`. `sender` is the account that originated the contract call, an admin role bearer except when using {AccessControl-_setupRole}."
      },
      "RoleRevoked(bytes32,address,address)": {
        "details": "Emitted when `account` is revoked `role`. `sender` is the account that originated the contract call:   - if using `revokeRole`, it is the admin role bearer   - if using `renounceRole`, it is the role bearer (i.e. `account`)"
      }
    },
    "kind": "dev",
    "methods": {
      "getRoleAdmin(bytes32)": {
        "details": "Returns the admin role that controls `role`. See {grantRole} and {revokeRole}. To change a role's admin, use {_setRoleAdmin}."
      },
      "grantRole(bytes32,address)": {
        "details": "Grants `role` to `account`. If `account` had not been already granted `role`, emits a {RoleGranted} event. Requirements: - the caller must have ``role``'s admin role. May emit a {RoleGranted} event."
      },
      "hasRole(bytes32,address)": {
        "details": "Returns `true` if `account` has been granted `role`."
      },
      "renounceRole(bytes32,address)": {
        "details": "Revokes `role` from the calling account. Roles are often managed via {grantRole} and {revokeRole}: this function's purpose is to provide a mechanism for accounts to lose their privileges if they are compromised (such as when a trusted device is misplaced). If the calling account had been revoked `role`, emits a {RoleRevoked} event. Requirements: - the caller must be `callerConfirmation`. May emit a {RoleRevoked} event."
      },
      "revokeRole(bytes32,address)": {
        "details": "Revokes `role` from `account`. If `account` had been granted `role`, emits a {RoleRevoked} event. Requirements: - the caller must have ``role``'s admin role. May emit a {RoleRevoked} event."
      },
      "supportsInterface(bytes4)": {
        "details": "See {IERC165-supportsInterface}."
      }
    },
    "version": 1
  },
  "userdoc": {
    "kind": "user",
    "methods": {},
    "version": 1
  },
  "storageLayout": {
    "storage": [
      {
        "astId": 1763,
        "contract": "contracts/ChainRegistry.sol:ChainRegistry",
        "label": "protocolAdapters",
        "offset": 0,
        "slot": "0",
        "type": "t_mapping(t_string_memory_ptr,t_address)"
      },
      {
        "astId": 1768,
        "contract": "contracts/ChainRegistry.sol:ChainRegistry",
        "label": "protocolInfo",
        "offset": 0,
        "slot": "1",
        "type": "t_mapping(t_string_memory_ptr,t_struct(ProtocolInfo)1801_storage)"
      },
      {
        "astId": 1773,
        "contract": "contracts/ChainRegistry.sol:ChainRegistry",
        "label": "chainProtocols",
        "offset": 0,
        "slot": "2",
        "type": "t_mapping(t_uint256,t_array(t_string_storage)dyn_storage)"
      },
      {
        "astId": 1776,
        "contract": "contracts/ChainRegistry.sol:ChainRegistry",
        "label": "protocols",
        "offset": 0,
        "slot": "3",
        "type": "t_array(t_string_storage)dyn_storage"
      },
      {
        "astId": 1781,
        "contract": "contracts/ChainRegistry.sol:ChainRegistry",
        "label": "chainInfo",
        "offset": 0,
        "slot": "4",
        "type": "t_mapping(t_uint256,t_struct(ChainInfo)1812_storage)"
      },
      {
        "astId": 1784,
        "contract": "contracts/ChainRegistry.sol:ChainRegistry",
        "label": "supportedChains",
        "offset": 0,
        "slot": "5",
        "type": "t_array(t_uint256)dyn_storage"
      }
    ],
    "types": {
      "t_address": {
        "encoding": "inplace",
        "label": "address",
        "numberOfBytes": "20"
      },
      "t_array(t_string_storage)dyn_storage": {
        "base": "t_string_storage",
        "encoding": "dynamic_array",
        "label": "string[]",
        "numberOfBytes": "32"
      },
      "t_array(t_uint256)dyn_storage": {
        "base": "t_uint256",
        "encoding": "dynamic_array",
        "label": "uint256[]",
        "numberOfBytes": "32"
      },
      "t_bool": {
        "encoding": "inplace",
        "label": "bool",
        "numberOfBytes": "1"
      },
      "t_mapping(t_string_memory_ptr,t_address)": {
        "encoding": "mapping",
        "key": "t_string_memory_ptr",
        "label": "mapping(string => address)",
        "numberOfBytes": "32",
        "value": "t_address"
      },
      "t_mapping(t_string_memory_ptr,t_struct(ProtocolInfo)1801_storage)": {
        "encoding": "mapping",
        "key": "t_string_memory_ptr",
        "label": "mapping(string => struct ChainRegistry.ProtocolInfo)",
        "numberOfBytes": "32",
        "value": "t_struct(ProtocolInfo)1801_storage"
      },
      "t_mapping(t_uint256,t_array(t_string_storage)dyn_storage)": {
        "encoding": "mapping",
        "key": "t_uint256",
        "label": "mapping(uint256 => string[])",
        "numberOfBytes": "32",
        "value": "t_array(t_string_storage)dyn_storage"
      },
      "t_mapping(t_uint256,t_struct(ChainInfo)1812_storage)": {
        "encoding": "mapping",
        "key": "t_uint256",
        "label": "mapping(uint256 => struct ChainRegistry.ChainInfo)",
        "numberOfBytes": "32",
        "value": "t_struct(ChainInfo)1812_storage"
      },
      "t_string_memory_ptr": {
        "encoding": "bytes",
        "label": "string",
        "numberOfBytes": "32"
      },
      "t_string_storage": {
        "encoding": "bytes",
        "label": "string",
        "numberOfBytes": "32"
      },
      "t_struct(ChainInfo)1812_storage": {
        "encoding": "inplace",
        "label": "struct ChainRegistry.ChainInfo",
        "members": [
          {
            "astId": 1803,
            "contract": "contracts/ChainRegistry.sol:ChainRegistry",
            "label": "name",
            "offset": 0,
            "slot": "0",
            "type": "t_string_storage"
          },
          {
            "astId": 1805,
            "contract": "contracts/ChainRegistry.sol:ChainRegistry",
            "label": "nativeToken",
            "offset": 0,
            "slot": "1",
            "type": "t_address"
          },
          {
            "astId": 1807,
            "contract": "contracts/ChainRegistry.sol:ChainRegistry",
            "label": "gasPrice",
            "offset": 0,
            "slot": "2",
            "type": "t_uint256"
          },
          {
            "astId": 1809,
            "contract": "contracts/ChainRegistry.sol:ChainRegistry",
            "label": "isActive",
            "offset": 0,
            "slot": "3",
            "type": "t_bool"
          },
          {
            "astId": 1811,
            "contract": "contracts/ChainRegistry.sol:ChainRegistry",
            "label": "bridgeCost",
            "offset": 0,
            "slot": "4",
            "type": "t_uint256"
          }
        ],
        "numberOfBytes": "160"
      },
      "t_struct(ProtocolInfo)1801_storage": {
        "encoding": "inplace",
        "label": "struct ChainRegistry.ProtocolInfo",
        "members": [
          {
            "astId": 1786,
            "contract": "contracts/ChainRegistry.sol:ChainRegistry",
            "label": "adapter",
            "offset": 0,
            "slot": "0",
            "type": "t_address"
          },
          {
            "astId": 1788,
            "contract": "contracts/ChainRegistry.sol:ChainRegistry",
            "label": "chainId",
            "offset": 0,
            "slot": "1",
            "type": "t_uint256"
          },
          {
            "astId": 1790,
            "contract": "contracts/ChainRegistry.sol:ChainRegistry",
            "label": "riskScore",
            "offset": 0,
            "slot": "2",
            "type": "t_uint256"
          },
          {
            "astId": 1792,
            "contract": "contracts/ChainRegistry.sol:ChainRegistry",
            "label": "minAPY",
            "offset": 0,
            "slot": "3",
            "type": "t_uint256"
          },
          {
            "astId": 1794,
            "contract": "contracts/ChainRegistry.sol:ChainRegistry",
            "label": "maxAPY",
            "offset": 0,
            "slot": "4",
            "type": "t_uint256"
          },
          {
            "astId": 1796,
            "contract": "contracts/ChainRegistry.sol:ChainRegistry",
            "label": "isActive",
            "offset": 0,
            "slot": "5",
            "type": "t_bool"
          },
          {
            "astId": 1798,
            "contract": "contracts/ChainRegistry.sol:ChainRegistry",
            "label": "tvl",
            "offset": 0,
            "slot": "6",
            "type": "t_uint256"
          },
          {
            "astId": 1800,
            "contract": "contracts/ChainRegistry.sol:ChainRegistry",
            "label": "lastUpdate",
            "offset": 0,
            "slot": "7",
            "type": "t_uint256"
          }
        ],
        "numberOfBytes": "256"
      },
      "t_uint256": {
        "encoding": "inplace",
        "label": "uint256",
        "numberOfBytes": "32"
      }
    }
  }
}