{
  "address": "0x9c18A0863F62b141D766Ec2AC0E712FA35857D6f",
  "abi": [
    {
      "inputs": [
        {
          "internalType": "address",
          "name": "_backendCoordinator",
          "type": "address"
        },
        {
          "internalType": "address",
          "name": "_owner",
          "type": "address"
        }
      ],
      "stateMutability": "nonpayable",
      "type": "constructor"
    },
    {
      "inputs": [],
      "name": "InvalidUser",
      "type": "error"
    },
    {
      "inputs": [
        {
          "internalType": "address",
          "name": "owner",
          "type": "address"
        }
      ],
      "name": "OwnableInvalidOwner",
      "type": "error"
    },
    {
      "inputs": [
        {
          "internalType": "address",
          "name": "account",
          "type": "address"
        }
      ],
      "name": "OwnableUnauthorizedAccount",
      "type": "error"
    },
    {
      "inputs": [],
      "name": "WalletAlreadyExists",
      "type": "error"
    },
    {
      "inputs": [],
      "name": "WalletCreationFailed",
      "type": "error"
    },
    {
      "anonymous": false,
      "inputs": [
        {
          "indexed": true,
          "internalType": "address",
          "name": "oldCoordinator",
          "type": "address"
        },
        {
          "indexed": true,
          "internalType": "address",
          "name": "newCoordinator",
          "type": "address"
        }
      ],
      "name": "BackendCoordinatorUpdated",
      "type": "event"
    },
    {
      "anonymous": false,
      "inputs": [
        {
          "indexed": true,
          "internalType": "address",
          "name": "previousOwner",
          "type": "address"
        },
        {
          "indexed": true,
          "internalType": "address",
          "name": "newOwner",
          "type": "address"
        }
      ],
      "name": "OwnershipTransferred",
      "type": "event"
    },
    {
      "anonymous": false,
      "inputs": [
        {
          "indexed": true,
          "internalType": "address",
          "name": "user",
          "type": "address"
        },
        {
          "indexed": true,
          "internalType": "address",
          "name": "wallet",
          "type": "address"
        },
        {
          "indexed": false,
          "internalType": "bytes32",
          "name": "salt",
          "type": "bytes32"
        }
      ],
      "name": "WalletCreated",
      "type": "event"
    },
    {
      "inputs": [],
      "name": "backendCoordinator",
      "outputs": [
        {
          "internalType": "address",
          "name": "",
          "type": "address"
        }
      ],
      "stateMutability": "view",
      "type": "function"
    },
    {
      "inputs": [
        {
          "internalType": "address",
          "name": "user",
          "type": "address"
        }
      ],
      "name": "createWallet",
      "outputs": [
        {
          "internalType": "address",
          "name": "wallet",
          "type": "address"
        }
      ],
      "stateMutability": "nonpayable",
      "type": "function"
    },
    {
      "inputs": [
        {
          "internalType": "address[]",
          "name": "users",
          "type": "address[]"
        }
      ],
      "name": "createWalletsBatch",
      "outputs": [
        {
          "internalType": "address[]",
          "name": "wallets",
          "type": "address[]"
        }
      ],
      "stateMutability": "nonpayable",
      "type": "function"
    },
    {
      "inputs": [
        {
          "internalType": "address",
          "name": "wallet",
          "type": "address"
        }
      ],
      "name": "disableWallet",
      "outputs": [],
      "stateMutability": "nonpayable",
      "type": "function"
    },
    {
      "inputs": [],
      "name": "getTotalWallets",
      "outputs": [
        {
          "internalType": "uint256",
          "name": "count",
          "type": "uint256"
        }
      ],
      "stateMutability": "view",
      "type": "function"
    },
    {
      "inputs": [
        {
          "internalType": "address",
          "name": "user",
          "type": "address"
        }
      ],
      "name": "getWallet",
      "outputs": [
        {
          "internalType": "address",
          "name": "wallet",
          "type": "address"
        }
      ],
      "stateMutability": "view",
      "type": "function"
    },
    {
      "inputs": [],
      "name": "getWalletBytecodeHash",
      "outputs": [
        {
          "internalType": "bytes32",
          "name": "hash",
          "type": "bytes32"
        }
      ],
      "stateMutability": "pure",
      "type": "function"
    },
    {
      "inputs": [
        {
          "internalType": "address",
          "name": "wallet",
          "type": "address"
        }
      ],
      "name": "getWalletOwner",
      "outputs": [
        {
          "internalType": "address",
          "name": "owner",
          "type": "address"
        }
      ],
      "stateMutability": "view",
      "type": "function"
    },
    {
      "inputs": [
        {
          "internalType": "address",
          "name": "user",
          "type": "address"
        }
      ],
      "name": "hasWallet",
      "outputs": [
        {
          "internalType": "bool",
          "name": "exists",
          "type": "bool"
        }
      ],
      "stateMutability": "view",
      "type": "function"
    },
    {
      "inputs": [
        {
          "internalType": "address",
          "name": "",
          "type": "address"
        }
      ],
      "name": "isValidWallet",
      "outputs": [
        {
          "internalType": "bool",
          "name": "",
          "type": "bool"
        }
      ],
      "stateMutability": "view",
      "type": "function"
    },
    {
      "inputs": [
        {
          "internalType": "address",
          "name": "wallet",
          "type": "address"
        }
      ],
      "name": "isWalletValid",
      "outputs": [
        {
          "internalType": "bool",
          "name": "valid",
          "type": "bool"
        }
      ],
      "stateMutability": "view",
      "type": "function"
    },
    {
      "inputs": [],
      "name": "owner",
      "outputs": [
        {
          "internalType": "address",
          "name": "",
          "type": "address"
        }
      ],
      "stateMutability": "view",
      "type": "function"
    },
    {
      "inputs": [
        {
          "internalType": "address",
          "name": "user",
          "type": "address"
        }
      ],
      "name": "predictWalletAddress",
      "outputs": [
        {
          "internalType": "address",
          "name": "predictedAddress",
          "type": "address"
        }
      ],
      "stateMutability": "view",
      "type": "function"
    },
    {
      "inputs": [],
      "name": "renounceOwnership",
      "outputs": [],
      "stateMutability": "nonpayable",
      "type": "function"
    },
    {
      "inputs": [
        {
          "internalType": "address",
          "name": "newOwner",
          "type": "address"
        }
      ],
      "name": "transferOwnership",
      "outputs": [],
      "stateMutability": "nonpayable",
      "type": "function"
    },
    {
      "inputs": [
        {
          "internalType": "address",
          "name": "",
          "type": "address"
        }
      ],
      "name": "userWallets",
      "outputs": [
        {
          "internalType": "address",
          "name": "",
          "type": "address"
        }
      ],
      "stateMutability": "view",
      "type": "function"
    },
    {
      "inputs": [],
      "name": "version",
      "outputs": [
        {
          "internalType": "string",
          "name": "",
          "type": "string"
        }
      ],
      "stateMutability": "pure",
      "type": "function"
    }
  ],
  "transactionHash": "0x0dc3e4e55b41a5ef82c73f6069821125b71429f4781e027ba2b34cf0641b3a1f",
  "args": [
    "0xCE54cF5a0dE3843011cF20389C1b6a4AaC442d6A",
    "0xCE54cF5a0dE3843011cF20389C1b6a4AaC442d6A"
  ],
  "numDeployments": 1,
  "solcInputHash": "44980de99fe5e3da10a5960b71b30e10",
  "bytecode": "0x60a060405234801561001057600080fd5b5060405162003a8738038062003a878339810160408190526100319161013f565b806001600160a01b03811661006157604051631e4fbdf760e01b8152600060048201526024015b60405180910390fd5b61006a816100d3565b506001600160a01b0382166100c15760405162461bcd60e51b815260206004820152601b60248201527f496e76616c6964206261636b656e6420636f6f7264696e61746f7200000000006044820152606401610058565b506001600160a01b0316608052610172565b600080546001600160a01b038381166001600160a01b0319831681178455604051919092169283917f8be0079c531659141344cd1fd0a4f28419497f9722a3daafe3b4186f6b6457e09190a35050565b80516001600160a01b038116811461013a57600080fd5b919050565b6000806040838503121561015257600080fd5b61015b83610123565b915061016960208401610123565b90509250929050565b6080516138eb6200019c600039600081816101910152818161035b015261083f01526138eb6000f3fe608060405234801561001057600080fd5b506004361061010b5760003560e01c806383657f77116100a2578063ab9ae6ec11610071578063ab9ae6ec146102a5578063b054a9e8146102bb578063ba51a7b3146102ce578063f2fde38b146102fa578063f5f50eb11461030d57600080fd5b806383657f771461024e5780638da5cb5b1461026e578063966708a51461027f578063a926819f1461029257600080fd5b806363e6ffdd116100de57806363e6ffdd146101da578063713bb95c14610203578063715018a61461021657806380dc8b061461022057600080fd5b806304d0a64714610110578063439a3012146101595780634b19f2551461018c57806354fd4d50146101b3575b600080fd5b61013c61011e366004610a94565b6001600160a01b039081166000908152600160205260409020541690565b6040516001600160a01b0390911681526020015b60405180910390f35b61017c610167366004610a94565b60026020526000908152604090205460ff1681565b6040519015158152602001610150565b61013c7f000000000000000000000000000000000000000000000000000000000000000081565b60408051808201825260058152640312e302e360dc1b602082015290516101509190610adc565b61013c6101e8366004610a94565b6001602052600090815260409020546001600160a01b031681565b61013c610211366004610a94565b610314565b61021e610414565b005b61017c61022e366004610a94565b6001600160a01b0390811660009081526001602052604090205416151590565b61026161025c366004610b0f565b610428565b6040516101509190610b84565b6000546001600160a01b031661013c565b61013c61028d366004610a94565b610686565b61021e6102a0366004610a94565b610716565b6102ad61079a565b604051908152602001610150565b61013c6102c9366004610a94565b6107cc565b61017c6102dc366004610a94565b6001600160a01b031660009081526002602052604090205460ff1690565b61021e610308366004610a94565b610952565b60006102ad565b60008061032083610990565b905060006040518060200161033490610a72565b601f1982820381018352601f9091011660408181526001600160a01b0387811660208401527f0000000000000000000000000000000000000000000000000000000000000000169082015230606082015260800160408051601f19818403018152908290526103a69291602001610bd1565b60408051808303601f1901815282825280516020918201206001600160f81b0319828501523060601b6bffffffffffffffffffffffff191660218501526035840195909552605580840195909552815180840390950185526075909201905282519201919091209392505050565b61041c6109f5565b6104266000610a22565b565b606081801580159061043b575060648111155b6104815760405162461bcd60e51b8152602060048201526012602482015271496e76616c69642062617463682073697a6560701b60448201526064015b60405180910390fd5b8067ffffffffffffffff81111561049a5761049a610c00565b6040519080825280602002602001820160405280156104c3578160200160208202803683370190505b50915060005b8181101561067e5760006001818787858181106104e8576104e8610c16565b90506020020160208101906104fd9190610a94565b6001600160a01b03908116825260208201929092526040016000205416146105a2576001600086868481811061053557610535610c16565b905060200201602081019061054a9190610a94565b6001600160a01b039081168252602082019290925260400160002054845191169084908390811061057d5761057d610c16565b60200260200101906001600160a01b031690816001600160a01b03168152505061066c565b3063b054a9e88686848181106105ba576105ba610c16565b90506020020160208101906105cf9190610a94565b6040516001600160e01b031960e084901b1681526001600160a01b0390911660048201526024016020604051808303816000875af1158015610615573d6000803e3d6000fd5b505050506040513d601f19601f820116820180604052508101906106399190610c2c565b83828151811061064b5761064b610c16565b60200260200101906001600160a01b031690816001600160a01b0316815250505b8061067681610c49565b9150506104c9565b505092915050565b6001600160a01b03811660009081526002602052604081205460ff166106ae57506000919050565b816001600160a01b0316638da5cb5b6040518163ffffffff1660e01b8152600401602060405180830381865afa1580156106ec573d6000803e3d6000fd5b505050506040513d601f19601f820116820180604052508101906107109190610c2c565b92915050565b61071e6109f5565b6001600160a01b03811660009081526002602052604090205460ff166107795760405162461bcd60e51b815260206004820152601060248201526f15d85b1b195d081b9bdd081d985b1a5960821b6044820152606401610478565b6001600160a01b03166000908152600260205260409020805460ff19169055565b6000604051806020016107ac90610a72565b6020820181038252601f19601f8201166040525080519060200120905090565b60006001600160a01b0382166107f55760405163fd684c3b60e01b815260040160405180910390fd5b6001600160a01b03828116600090815260016020526040902054161561082e57604051630f721df160e31b815260040160405180910390fd5b600061083983610990565b905080837f00000000000000000000000000000000000000000000000000000000000000003060405161086b90610a72565b6001600160a01b039384168152918316602083015290911660408201526060018190604051809103906000f59050801580156108ab573d6000803e3d6000fd5b5091506001600160a01b0382166108d5576040516303792e6560e61b815260040160405180910390fd5b6001600160a01b03838116600081815260016020818152604080842080546001600160a01b03191696891696871790558584526002825292839020805460ff191690921790915590518481527fbdbcb584581e4f688b28038d847fa0c73130b688da678029bcb98e32fec769a2910160405180910390a350919050565b61095a6109f5565b6001600160a01b03811661098457604051631e4fbdf760e01b815260006004820152602401610478565b61098d81610a22565b50565b6040517f43726f73735969656c645f536d61727457616c6c65745f00000000000000000060208201526bffffffffffffffffffffffff19606083901b166037820152600090604b01604051602081830303815290604052805190602001209050919050565b6000546001600160a01b031633146104265760405163118cdaa760e01b8152336004820152602401610478565b600080546001600160a01b038381166001600160a01b0319831681178455604051919092169283917f8be0079c531659141344cd1fd0a4f28419497f9722a3daafe3b4186f6b6457e09190a35050565b612c4580610c7183390190565b6001600160a01b038116811461098d57600080fd5b600060208284031215610aa657600080fd5b8135610ab181610a7f565b9392505050565b60005b83811015610ad3578181015183820152602001610abb565b50506000910152565b6020815260008251806020840152610afb816040850160208701610ab8565b601f01601f19169190910160400192915050565b60008060208385031215610b2257600080fd5b823567ffffffffffffffff80821115610b3a57600080fd5b818501915085601f830112610b4e57600080fd5b813581811115610b5d57600080fd5b8660208260051b8501011115610b7257600080fd5b60209290920196919550909350505050565b6020808252825182820181905260009190848201906040850190845b81811015610bc55783516001600160a01b031683529284019291840191600101610ba0565b50909695505050505050565b60008351610be3818460208801610ab8565b835190830190610bf7818360208801610ab8565b01949350505050565b634e487b7160e01b600052604160045260246000fd5b634e487b7160e01b600052603260045260246000fd5b600060208284031215610c3e57600080fd5b8151610ab181610a7f565b600060018201610c6957634e487b7160e01b600052601160045260246000fd5b506001019056fe60e06040523480156200001157600080fd5b5060405162002c4538038062002c458339810160408190526200003491620000d0565b60016000556001600160a01b03831615806200005757506001600160a01b038216155b806200006a57506001600160a01b038116155b15620000895760405163d92e233d60e01b815260040160405180910390fd5b6001600160a01b0392831660805290821660a0521660c0526001805460ff1916811790556200011a565b80516001600160a01b0381168114620000cb57600080fd5b919050565b600080600060608486031215620000e657600080fd5b620000f184620000b3565b92506200010160208501620000b3565b91506200011160408501620000b3565b90509250925092565b60805160a05160c051612a53620001f260003960008181610487015261139a0152600081816102b40152818161060f01528181610a9c01528181610d84015281816110d0015261141c0152600081816103fe01528181610643015281816108b7015281816109e301528181610a3601528181610ad001528181610cfc01528181610db801528181610f2a0152818161110401528181611366015281816114500152818161155a0152818161189501528181611982015281816119d501528181611b1201528181611bb00152611bf10152612a536000f3fe6080604052600436106101a05760003560e01c806383e554a2116100ec578063caa648b41161008a578063ef97108a11610064578063ef97108a1461050a578063f081e36814610537578063f1215d2514610559578063ff50abdc1461057957600080fd5b8063caa648b4146104a9578063cd156c6a146104be578063db2e21bc146104f557600080fd5b806394b38524116100c657806394b3852414610420578063aae29f3814610435578063ad67efe014610455578063c45a01551461047557600080fd5b806383e554a2146103aa57806389a30271146103ca5780638da5cb5b146103ec57600080fd5b80633e0ac1af116101595780634f9ac0af116101335780634f9ac0af1461030457806354fd4d50146103245780635dce2fa9146103525780637bd2d8ac1461038a57600080fd5b80633e0ac1af1461028d5780634b19f255146102a25780634b319713146102ee57600080fd5b806312065fe0146101ac578063167c0245146101d457806322f3e2d4146101f65780632a0d47c1146102205780632e1a7d4d1461024d57806337d7c2c81461026d57600080fd5b366101a757005b600080fd5b3480156101b857600080fd5b506101c161058f565b6040519081526020015b60405180910390f35b3480156101e057600080fd5b506101f46101ef366004612011565b610604565b005b34801561020257600080fd5b506001546102109060ff1681565b60405190151581526020016101cb565b34801561022c57600080fd5b5061024061023b366004612058565b610800565b6040516101cb91906120c1565b34801561025957600080fd5b506101f4610268366004612058565b6108ac565b34801561027957600080fd5b506102406102883660046120d4565b610a8f565b34801561029957600080fd5b506101f4610cf1565b3480156102ae57600080fd5b506102d67f000000000000000000000000000000000000000000000000000000000000000081565b6040516001600160a01b0390911681526020016101cb565b3480156102fa57600080fd5b506101c160035481565b34801561031057600080fd5b506101f461031f36600461220e565b610d79565b34801561033057600080fd5b506040805180820190915260058152640312e302e360dc1b6020820152610240565b34801561035e57600080fd5b506101c161036d366004612265565b805160208183018101805160048252928201919093012091525481565b34801561039657600080fd5b506101f46103a5366004612393565b6110c5565b3480156103b657600080fd5b506102106103c5366004612058565b6112e1565b3480156103d657600080fd5b506102d66000805160206129fe83398151915281565b3480156103f857600080fd5b506102d67f000000000000000000000000000000000000000000000000000000000000000081565b34801561042c57600080fd5b506101f461135b565b34801561044157600080fd5b506101c1610450366004612265565b6113e9565b34801561046157600080fd5b506101f461047036600461220e565b611411565b34801561048157600080fd5b506102d67f000000000000000000000000000000000000000000000000000000000000000081565b3480156104b557600080fd5b506101c16116b3565b3480156104ca57600080fd5b506104d3611790565b60408051948552602085019390935291830152151560608201526080016101cb565b34801561050157600080fd5b506101f461188a565b34801561051657600080fd5b506101c161052536600461248b565b60056020526000908152604090205481565b34801561054357600080fd5b5061054c611a2e565b6040516101cb91906124fb565b34801561056557600080fd5b506101f461057436600461250e565b611b07565b34801561058557600080fd5b506101c160025481565b6040516370a0823160e01b81523060048201526000906000805160206129fe833981519152906370a0823190602401602060405180830381865afa1580156105db573d6000803e3d6000fd5b505050506040513d601f19601f820116820180604052508101906105ff9190612555565b905090565b336001600160a01b037f000000000000000000000000000000000000000000000000000000000000000016148015906106665750336001600160a01b037f00000000000000000000000000000000000000000000000000000000000000001614155b156106845760405163e506ea2960e01b815260040160405180910390fd5b60015460ff166106a757604051631f11e7a160e01b815260040160405180910390fd5b6106af611c62565b826000036106d05760405163162908e360e11b815260040160405180910390fd5b6001600160a01b0381166106f75760405163d92e233d60e01b815260040160405180910390fd5b6040516370a0823160e01b815230600482015283906000805160206129fe833981519152906370a0823190602401602060405180830381865afa158015610742573d6000803e3d6000fd5b505050506040513d601f19601f820116820180604052508101906107669190612555565b101561078557604051631e9acf1760e31b815260040160405180910390fd5b61079e6000805160206129fe8339815191528285611c8c565b6040805184815263ffffffff841660208201526001600160a01b0383168183015242606082015290517f62df96a9a8ad6e3ecb58a687895a1b41be3c171dbf693d43aa3b1c69841fd5fa9181900360800190a16107fb6001600055565b505050565b6006818154811061081057600080fd5b90600052602060002001600091509050805461082b9061256e565b80601f01602080910402602001604051908101604052809291908181526020018280546108579061256e565b80156108a45780601f10610879576101008083540402835291602001916108a4565b820191906000526020600020905b81548152906001019060200180831161088757829003601f168201915b505050505081565b336001600160a01b037f000000000000000000000000000000000000000000000000000000000000000016146108f557604051635fc483c560e01b815260040160405180910390fd5b60015460ff1661091857604051631f11e7a160e01b815260040160405180910390fd5b610920611c62565b806000036109415760405163162908e360e11b815260040160405180910390fd5b6040516370a0823160e01b815230600482015281906000805160206129fe833981519152906370a0823190602401602060405180830381865afa15801561098c573d6000803e3d6000fd5b505050506040513d601f19601f820116820180604052508101906109b09190612555565b10156109cf57604051631e9acf1760e31b815260040160405180910390fd5b610a086000805160206129fe8339815191527f000000000000000000000000000000000000000000000000000000000000000083611c8c565b8060036000828254610a1a91906125be565b9091555050604080518281524260208201526001600160a01b037f000000000000000000000000000000000000000000000000000000000000000016917f92ccf450a286a957af52509bc1c9939d1a6a481783e142e41e2499f0bb66ebc6910160405180910390a2610a8c6001600055565b50565b6060336001600160a01b037f00000000000000000000000000000000000000000000000000000000000000001614801590610af35750336001600160a01b037f00000000000000000000000000000000000000000000000000000000000000001614155b15610b115760405163e506ea2960e01b815260040160405180910390fd5b60015460ff16610b3457604051631f11e7a160e01b815260040160405180910390fd5b610b3c611c62565b73a0b86a33e6417c33b2f2e5d8a7c0c5a3c0f9e2b2196001600160a01b03851601610bae5760405162461bcd60e51b815260206004820152601960248201527f43616e6e6f742063616c6c2055534443206469726563746c790000000000000060448201526064015b60405180910390fd5b306001600160a01b03851603610bf95760405162461bcd60e51b815260206004820152601060248201526f21b0b73737ba1031b0b6361039b2b63360811b6044820152606401610ba5565b600080856001600160a01b03168585604051610c169291906125d1565b6000604051808303816000865af19150503d8060008114610c53576040519150601f19603f3d011682016040523d82523d6000602084013e610c58565b606091505b509150915081610ca25760405162461bcd60e51b8152602060048201526015602482015274109858dad95b99081858dd1a5bdb8819985a5b1959605a1b6044820152606401610ba5565b7f61b1db00fa46b85aac40d41d854693dc167433f5e067021d1d6689cd5d6ad9e9858542604051610cd5939291906125e1565b60405180910390a1915050610cea6001600055565b9392505050565b336001600160a01b037f00000000000000000000000000000000000000000000000000000000000000001614610d3a57604051635fc483c560e01b815260040160405180910390fd5b6001805460ff191690556040514281527fa195e25d5f54c88c4b12f36a9379ed681d0a5d83b64baada004ca76278b22cfc9060200160405180910390a1565b336001600160a01b037f00000000000000000000000000000000000000000000000000000000000000001614801590610ddb5750336001600160a01b037f00000000000000000000000000000000000000000000000000000000000000001614155b15610df95760405163e506ea2960e01b815260040160405180910390fd5b60015460ff16610e1c57604051631f11e7a160e01b815260040160405180910390fd5b610e24611c62565b80600003610e455760405163162908e360e11b815260040160405180910390fd5b6001600160a01b038216610e6c5760405163d92e233d60e01b815260040160405180910390fd5b6040516370a0823160e01b815230600482015281906000805160206129fe833981519152906370a0823190602401602060405180830381865afa158015610eb7573d6000803e3d6000fd5b505050506040513d601f19601f82011682018060405250810190610edb9190612555565b1015610efa57604051631e9acf1760e31b815260040160405180910390fd5b610f136000805160206129fe8339815191528383611c8c565b6040516311f9fbc960e21b81526001600160a01b037f000000000000000000000000000000000000000000000000000000000000000081166004830152602482018390528316906347e7ef2490604401600060405180830381600087803b158015610f7d57600080fd5b505af1158015610f91573d6000803e3d6000fd5b50505050600483604051610fa5919061263e565b908152602001604051809103902054600003610ff957600680546001810182556000919091527ff652222313e28459528d920b65115c16c04f3efc82aaedc97be59f3f377c0d3f01610ff784826126a8565b505b8060048460405161100a919061263e565b9081526020016040518091039020600082825461102791906125be565b90915550506001600160a01b038216600090815260056020526040812080548392906110549084906125be565b909155505060405161106790849061263e565b604080519182900382206001600160a01b0385168352602083018490524291830191909152907f704fa75bdda643242cc116c3a73ed29267a841ff3023581c2275cf6cb77119bd906060015b60405180910390a26107fb6001600055565b336001600160a01b037f000000000000000000000000000000000000000000000000000000000000000016148015906111275750336001600160a01b037f00000000000000000000000000000000000000000000000000000000000000001614155b156111455760405163e506ea2960e01b815260040160405180910390fd5b60015460ff1661116857604051631f11e7a160e01b815260040160405180910390fd5b611170611c62565b82518251811480156111825750815181145b6111c65760405162461bcd60e51b8152602060048201526015602482015274082e4e4c2f240d8cadccee8d040dad2e6dac2e8c6d605b1b6044820152606401610ba5565b6000805b8281101561120b578381815181106111e4576111e4612768565b6020026020010151826111f791906125be565b9150806112038161277e565b9150506111ca565b506040516370a0823160e01b815230600482015281906000805160206129fe833981519152906370a0823190602401602060405180830381865afa158015611257573d6000803e3d6000fd5b505050506040513d601f19601f8201168201806040525081019061127b9190612555565b101561129a57604051631e9acf1760e31b815260040160405180910390fd5b7f755a9d37c1df505691fdf90a892fc4bbda4bd7134ba469c9ce720e88f876bf298585856040516112cd93929190612797565b60405180910390a150506107fb6001600055565b6040516370a0823160e01b815230600482015260009082906000805160206129fe833981519152906370a0823190602401602060405180830381865afa15801561132f573d6000803e3d6000fd5b505050506040513d601f19601f820116820180604052508101906113539190612555565b101592915050565b336001600160a01b037f000000000000000000000000000000000000000000000000000000000000000016148015906113bd5750336001600160a01b037f00000000000000000000000000000000000000000000000000000000000000001614155b156113db5760405163e506ea2960e01b815260040160405180910390fd5b6001805460ff191681179055565b60006004826040516113fb919061263e565b9081526020016040518091039020549050919050565b336001600160a01b037f000000000000000000000000000000000000000000000000000000000000000016148015906114735750336001600160a01b037f00000000000000000000000000000000000000000000000000000000000000001614155b156114915760405163e506ea2960e01b815260040160405180910390fd5b60015460ff166114b457604051631f11e7a160e01b815260040160405180910390fd5b6114bc611c62565b806000036114dd5760405163162908e360e11b815260040160405180910390fd5b6001600160a01b0382166115045760405163d92e233d60e01b815260040160405180910390fd5b80600484604051611515919061263e565b908152602001604051809103902054101561154357604051631e9acf1760e31b815260040160405180910390fd5b60405163f3fef3a360e01b81526001600160a01b037f0000000000000000000000000000000000000000000000000000000000000000811660048301526024820183905283169063f3fef3a390604401600060405180830381600087803b1580156115ad57600080fd5b505af11580156115c1573d6000803e3d6000fd5b50505050806004846040516115d6919061263e565b908152602001604051809103902060008282546115f3919061282f565b90915550506001600160a01b0382166000908152600560205260408120805483929061162090849061282f565b909155505060405160049061163690859061263e565b9081526020016040518091039020546000036116555761165583611ceb565b82604051611663919061263e565b604080519182900382206001600160a01b0385168352602083018490524291830191909152907f28438eb4aa4aac87166e3bf802ea80284870d452c16e7d6f1680d2b4b10774c6906060016110b3565b6040516370a0823160e01b81523060048201526000906000805160206129fe833981519152906370a0823190602401602060405180830381865afa1580156116ff573d6000803e3d6000fd5b505050506040513d601f19601f820116820180604052508101906117239190612555565b905060005b60065481101561178c5760046006828154811061174757611747612768565b9060005260206000200160405161175e91906128b5565b9081526020016040518091039020548261177891906125be565b9150806117848161277e565b915050611728565b5090565b6040516370a0823160e01b81523060048201526000908190819081906000805160206129fe833981519152906370a0823190602401602060405180830381865afa1580156117e2573d6000803e3d6000fd5b505050506040513d601f19601f820116820180604052508101906118069190612555565b93506000925060005b6006548110156118735760046006828154811061182e5761182e612768565b9060005260206000200160405161184591906128b5565b9081526020016040518091039020548461185f91906125be565b93508061186b8161277e565b91505061180f565b505060065460015493949293909260ff9091169150565b336001600160a01b037f000000000000000000000000000000000000000000000000000000000000000016146118d357604051635fc483c560e01b815260040160405180910390fd5b6118db611c62565b6040516370a0823160e01b81523060048201526000906000805160206129fe833981519152906370a0823190602401602060405180830381865afa158015611927573d6000803e3d6000fd5b505050506040513d601f19601f8201168201806040525081019061194b9190612555565b90508060000361196e57604051631e9acf1760e31b815260040160405180910390fd5b6119a76000805160206129fe8339815191527f000000000000000000000000000000000000000000000000000000000000000083611c8c565b80600360008282546119b991906125be565b9091555050604080518281524260208201526001600160a01b037f000000000000000000000000000000000000000000000000000000000000000016917f56da9a5ae0bcf6e7c3fdd78a10550e7d0458de1c39bfb7f6e96a3e92dd344a68910160405180910390a250611a2c6001600055565b565b60606006805480602002602001604051908101604052809291908181526020016000905b82821015611afe578382906000526020600020018054611a719061256e565b80601f0160208091040260200160405190810160405280929190818152602001828054611a9d9061256e565b8015611aea5780601f10611abf57610100808354040283529160200191611aea565b820191906000526020600020905b815481529060010190602001808311611acd57829003601f168201915b505050505081526020019060010190611a52565b50505050905090565b336001600160a01b037f00000000000000000000000000000000000000000000000000000000000000001614611b5057604051635fc483c560e01b815260040160405180910390fd5b60015460ff16611b7357604051631f11e7a160e01b815260040160405180910390fd5b611b7b611c62565b81600003611b9c5760405163162908e360e11b815260040160405180910390fd5b611bd66000805160206129fe8339815191527f00000000000000000000000000000000000000000000000000000000000000003085611dd0565b8160026000828254611be891906125be565b925050819055507f00000000000000000000000000000000000000000000000000000000000000006001600160a01b03167f2157592e75ae7c48a11728aef822bc883f3eb4b0929956be2a5e4250f5622aac838342604051611c4c939291906128c1565b60405180910390a2611c5e6001600055565b5050565b600260005403611c8557604051633ee5aeb560e01b815260040160405180910390fd5b6002600055565b6040516001600160a01b038381166024830152604482018390526107fb91859182169063a9059cbb906064015b604051602081830303815290604052915060e01b6020820180516001600160e01b038381831617835250505050611e0f565b60005b600654811015611c5e57818051906020012060068281548110611d1357611d13612768565b90600052602060002001604051611d2a91906128b5565b604051809103902003611dbe5760068054611d479060019061282f565b81548110611d5757611d57612768565b9060005260206000200160068281548110611d7457611d74612768565b906000526020600020019081611d8a91906128ea565b506006805480611d9c57611d9c6129c5565b600190038181906000526020600020016000611db89190611fab565b90555050565b80611dc88161277e565b915050611cee565b6040516001600160a01b038481166024830152838116604483015260648201839052611e099186918216906323b872dd90608401611cb9565b50505050565b6000611e246001600160a01b03841683611e72565b90508051600014158015611e49575080806020019051810190611e4791906129db565b155b156107fb57604051635274afe760e01b81526001600160a01b0384166004820152602401610ba5565b6060611e8083836000611e89565b90505b92915050565b606081471015611eae5760405163cd78605960e01b8152306004820152602401610ba5565b600080856001600160a01b03168486604051611eca919061263e565b60006040518083038185875af1925050503d8060008114611f07576040519150601f19603f3d011682016040523d82523d6000602084013e611f0c565b606091505b5091509150611f1c868383611f26565b9695505050505050565b606082611f3b57611f3682611f82565b610cea565b8151158015611f5257506001600160a01b0384163b155b15611f7b57604051639996b31560e01b81526001600160a01b0385166004820152602401610ba5565b5080610cea565b805115611f925780518082602001fd5b604051630a12f52160e11b815260040160405180910390fd5b508054611fb79061256e565b6000825580601f10611fc7575050565b601f016020900490600052602060002090810190610a8c91905b8082111561178c5760008155600101611fe1565b80356001600160a01b038116811461200c57600080fd5b919050565b60008060006060848603121561202657600080fd5b83359250602084013563ffffffff8116811461204157600080fd5b915061204f60408501611ff5565b90509250925092565b60006020828403121561206a57600080fd5b5035919050565b60005b8381101561208c578181015183820152602001612074565b50506000910152565b600081518084526120ad816020860160208601612071565b601f01601f19169290920160200192915050565b602081526000611e806020830184612095565b6000806000604084860312156120e957600080fd5b6120f284611ff5565b9250602084013567ffffffffffffffff8082111561210f57600080fd5b818601915086601f83011261212357600080fd5b81358181111561213257600080fd5b87602082850101111561214457600080fd5b6020830194508093505050509250925092565b634e487b7160e01b600052604160045260246000fd5b604051601f8201601f1916810167ffffffffffffffff8111828210171561219657612196612157565b604052919050565b600082601f8301126121af57600080fd5b813567ffffffffffffffff8111156121c9576121c9612157565b6121dc601f8201601f191660200161216d565b8181528460208386010111156121f157600080fd5b816020850160208301376000918101602001919091529392505050565b60008060006060848603121561222357600080fd5b833567ffffffffffffffff81111561223a57600080fd5b6122468682870161219e565b93505061225560208501611ff5565b9150604084013590509250925092565b60006020828403121561227757600080fd5b813567ffffffffffffffff81111561228e57600080fd5b61229a8482850161219e565b949350505050565b600067ffffffffffffffff8211156122bc576122bc612157565b5060051b60200190565b600082601f8301126122d757600080fd5b813560206122ec6122e7836122a2565b61216d565b82815260059290921b8401810191818101908684111561230b57600080fd5b8286015b8481101561232d5761232081611ff5565b835291830191830161230f565b509695505050505050565b600082601f83011261234957600080fd5b813560206123596122e7836122a2565b82815260059290921b8401810191818101908684111561237857600080fd5b8286015b8481101561232d578035835291830191830161237c565b6000806000606084860312156123a857600080fd5b833567ffffffffffffffff808211156123c057600080fd5b818601915086601f8301126123d457600080fd5b813560206123e46122e7836122a2565b82815260059290921b8401810191818101908a84111561240357600080fd5b8286015b8481101561243b5780358681111561241f5760008081fd5b61242d8d86838b010161219e565b845250918301918301612407565b509750508701359250508082111561245257600080fd5b61245e878388016122c6565b9350604086013591508082111561247457600080fd5b5061248186828701612338565b9150509250925092565b60006020828403121561249d57600080fd5b611e8082611ff5565b600081518084526020808501808196508360051b8101915082860160005b858110156124ee5782840389526124dc848351612095565b988501989350908401906001016124c4565b5091979650505050505050565b602081526000611e8060208301846124a6565b6000806040838503121561252157600080fd5b82359150602083013567ffffffffffffffff81111561253f57600080fd5b61254b8582860161219e565b9150509250929050565b60006020828403121561256757600080fd5b5051919050565b600181811c9082168061258257607f821691505b6020821081036125a257634e487b7160e01b600052602260045260246000fd5b50919050565b634e487b7160e01b600052601160045260246000fd5b80820180821115611e8357611e836125a8565b8183823760009101908152919050565b60608152600d60608201526c195e1d195c9b985b17d8d85b1b609a1b608082015260a060208201528260a0820152828460c0830137600060c08483010152600060c0601f19601f8601168301019050826040830152949350505050565b60008251612650818460208701612071565b9190910192915050565b601f8211156107fb57600081815260208120601f850160051c810160208610156126815750805b601f850160051c820191505b818110156126a05782815560010161268d565b505050505050565b815167ffffffffffffffff8111156126c2576126c2612157565b6126d6816126d0845461256e565b8461265a565b602080601f83116001811461270b57600084156126f35750858301515b600019600386901b1c1916600185901b1785556126a0565b600085815260208120601f198616915b8281101561273a5788860151825594840194600190910190840161271b565b50858210156127585787850151600019600388901b60f8161c191681555b5050505050600190811b01905550565b634e487b7160e01b600052603260045260246000fd5b600060018201612790576127906125a8565b5060010190565b6060815260006127aa60608301866124a6565b82810360208481019190915285518083528682019282019060005b818110156127ea5784516001600160a01b0316835293830193918301916001016127c5565b50508481036040860152855180825290820192508186019060005b8181101561282157825185529383019391830191600101612805565b509298975050505050505050565b81810381811115611e8357611e836125a8565b6000815461284f8161256e565b60018281168015612867576001811461287c576128ab565b60ff19841687528215158302870194506128ab565b8560005260208060002060005b858110156128a25781548a820152908401908201612889565b50505082870194505b5050505092915050565b6000611e808284612842565b8381526060602082015260006128da6060830185612095565b9050826040830152949350505050565b8181036128f5575050565b6128ff825461256e565b67ffffffffffffffff81111561291757612917612157565b612925816126d0845461256e565b6000601f82116001811461295957600083156129415750848201545b600019600385901b1c1916600184901b1784556129be565b600085815260209020601f19841690600086815260209020845b838110156129935782860154825560019586019590910190602001612973565b50858310156129b15781850154600019600388901b60f8161c191681555b50505060018360011b0184555b5050505050565b634e487b7160e01b600052603160045260246000fd5b6000602082840312156129ed57600080fd5b81518015158114610cea57600080fdfe000000000000000000000000a0b86a33e6417c33b2f2e5d8a7c0c5a3c0f9e2b3a26469706673582212204b616b538d9c0e9867d685d549e720b9d31bf416c4b923b0d54ba52636ce594664736f6c63430008140033a26469706673582212208f79f0d0747f48a7f5f77ded23162c78adaf6d5f9eccc8875e48e1371bd97aa364736f6c63430008140033",
  "devdoc": {
    "details": "Uses CREATE2 for predictable wallet addresses across chains",
    "errors": {
      "OwnableInvalidOwner(address)": [
        {
          "details": "The owner is not a valid owner account. (eg. `address(0)`)"
        }
      ],
      "OwnableUnauthorizedAccount(address)": [
        {
          "details": "The caller account is not authorized to perform an operation."
        }
      ]
    },
    "kind": "dev",
    "methods": {
      "constructor": {
        "params": {
          "_backendCoordinator": "Address of the backend coordinator",
          "_owner": "Address of the contract owner"
        }
      },
      "createWallet(address)": {
        "params": {
          "user": "Address of the user"
        },
        "returns": {
          "wallet": "Address of the created smart wallet"
        }
      },
      "createWalletsBatch(address[])": {
        "params": {
          "users": "Array of user addresses"
        },
        "returns": {
          "wallets": "Array of created wallet addresses"
        }
      },
      "disableWallet(address)": {
        "details": "Only owner can call this function",
        "params": {
          "wallet": "Address of the wallet to disable"
        }
      },
      "getTotalWallets()": {
        "returns": {
          "count": "Total wallet count"
        }
      },
      "getWallet(address)": {
        "params": {
          "user": "Address of the user"
        },
        "returns": {
          "wallet": "Address of the user's smart wallet (0x0 if doesn't exist)"
        }
      },
      "getWalletBytecodeHash()": {
        "returns": {
          "hash": "The bytecode hash"
        }
      },
      "getWalletOwner(address)": {
        "params": {
          "wallet": "Address of the smart wallet"
        },
        "returns": {
          "owner": "Address of the wallet owner"
        }
      },
      "hasWallet(address)": {
        "params": {
          "user": "Address of the user"
        },
        "returns": {
          "exists": "True if wallet exists"
        }
      },
      "isWalletValid(address)": {
        "params": {
          "wallet": "Address to check"
        },
        "returns": {
          "valid": "True if it's a valid wallet"
        }
      },
      "owner()": {
        "details": "Returns the address of the current owner."
      },
      "predictWalletAddress(address)": {
        "params": {
          "user": "Address of the user"
        },
        "returns": {
          "predictedAddress": "The predicted wallet address"
        }
      },
      "renounceOwnership()": {
        "details": "Leaves the contract without owner. It will not be possible to call `onlyOwner` functions. Can only be called by the current owner. NOTE: Renouncing ownership will leave the contract without an owner, thereby disabling any functionality that is only available to the owner."
      },
      "transferOwnership(address)": {
        "details": "Transfers ownership of the contract to a new account (`newOwner`). Can only be called by the current owner."
      },
      "version()": {
        "returns": {
          "_0": "version The contract version"
        }
      }
    },
    "title": "SmartWalletFactory",
    "version": 1
  },
  "userdoc": {
    "kind": "user",
    "methods": {
      "constructor": {
        "notice": "Constructor"
      },
      "createWallet(address)": {
        "notice": "Create a smart wallet for a user"
      },
      "createWalletsBatch(address[])": {
        "notice": "Create smart wallet for multiple users in batch"
      },
      "disableWallet(address)": {
        "notice": "Emergency function to disable a compromised wallet"
      },
      "getTotalWallets()": {
        "notice": "Get total number of wallets created"
      },
      "getWallet(address)": {
        "notice": "Get the smart wallet address for a user"
      },
      "getWalletBytecodeHash()": {
        "notice": "Get wallet creation bytecode hash (for verification)"
      },
      "getWalletOwner(address)": {
        "notice": "Get the owner of a smart wallet"
      },
      "hasWallet(address)": {
        "notice": "Check if a wallet exists for a user"
      },
      "isWalletValid(address)": {
        "notice": "Check if an address is a valid smart wallet created by this factory"
      },
      "predictWalletAddress(address)": {
        "notice": "Predict the smart wallet address for a user (before creation)"
      },
      "version()": {
        "notice": "Get contract version"
      }
    },
    "notice": "Factory contract for creating deterministic user smart wallets",
    "version": 1
  },
  "storageLayout": {
    "storage": [
      {
        "astId": 976,
        "contract": "contracts/SmartWalletFactory.sol:SmartWalletFactory",
        "label": "_owner",
        "offset": 0,
        "slot": "0",
        "type": "t_address"
      },
      {
        "astId": 3182,
        "contract": "contracts/SmartWalletFactory.sol:SmartWalletFactory",
        "label": "userWallets",
        "offset": 0,
        "slot": "1",
        "type": "t_mapping(t_address,t_address)"
      },
      {
        "astId": 3186,
        "contract": "contracts/SmartWalletFactory.sol:SmartWalletFactory",
        "label": "isValidWallet",
        "offset": 0,
        "slot": "2",
        "type": "t_mapping(t_address,t_bool)"
      }
    ],
    "types": {
      "t_address": {
        "encoding": "inplace",
        "label": "address",
        "numberOfBytes": "20"
      },
      "t_bool": {
        "encoding": "inplace",
        "label": "bool",
        "numberOfBytes": "1"
      },
      "t_mapping(t_address,t_address)": {
        "encoding": "mapping",
        "key": "t_address",
        "label": "mapping(address => address)",
        "numberOfBytes": "32",
        "value": "t_address"
      },
      "t_mapping(t_address,t_bool)": {
        "encoding": "mapping",
        "key": "t_address",
        "label": "mapping(address => bool)",
        "numberOfBytes": "32",
        "value": "t_bool"
      }
    }
  }
}