{
  "address": "0x780BE3b0aDf2189b4fa72086A48F2a8BD19B14b8",
  "abi": [
    {
      "inputs": [
        {
          "internalType": "address",
          "name": "_implementation",
          "type": "address"
        }
      ],
      "stateMutability": "nonpayable",
      "type": "constructor"
    },
    {
      "stateMutability": "payable",
      "type": "fallback"
    },
    {
      "inputs": [],
      "name": "implementation",
      "outputs": [
        {
          "internalType": "address",
          "name": "",
          "type": "address"
        }
      ],
      "stateMutability": "view",
      "type": "function"
    },
    {
      "stateMutability": "payable",
      "type": "receive"
    }
  ],
  "transactionHash": "0x1fd64d445a356e2300578730c412aeeaef88566a0efca789576df1ed40d4a93d",
  "args": [
    "0x17f68347966D3372c07b481801E8Dfc57AB90865"
  ],
  "numDeployments": 1,
  "solcInputHash": "094957e5f9dc1a182376d1e4ef1061e7",
  "bytecode": "0x60a060405234801561001057600080fd5b5060405161017b38038061017b83398101604081905261002f91610040565b6001600160a01b0316608052610070565b60006020828403121561005257600080fd5b81516001600160a01b038116811461006957600080fd5b9392505050565b60805160ed61008e60003960008181602701526079015260ed6000f3fe608060405260043610601f5760003560e01c80635c60da1b146069576025565b36602557005b7f00000000000000000000000000000000000000000000000000000000000000003660008037600080366000845af43d6000803e8080156064573d6000f35b3d6000fd5b348015607457600080fd5b50609b7f000000000000000000000000000000000000000000000000000000000000000081565b6040516001600160a01b03909116815260200160405180910390f3fea2646970667358221220ffbf713768c59f03b12ae54d70c67e6ba974fcd81825c867711e479b87cc9e6464736f6c63430008140033",
  "devdoc": {
    "kind": "dev",
    "methods": {},
    "title": "SimpleProxy",
    "version": 1
  },
  "userdoc": {
    "kind": "user",
    "methods": {},
    "notice": "A simple proxy contract that delegates all calls to an implementation",
    "version": 1
  },
  "storageLayout": {
    "storage": [],
    "types": null
  }
}