{
  "address": "0x4bcB0b682d2e500F03A42715B36080655316A15c",
  "abi": [
    {
      "inputs": [
        {
          "internalType": "address",
          "name": "_backendCoordinator",
          "type": "address"
        },
        {
          "internalType": "address",
          "name": "_usdcAddress",
          "type": "address"
        },
        {
          "internalType": "address",
          "name": "_owner",
          "type": "address"
        }
      ],
      "stateMutability": "nonpayable",
      "type": "constructor"
    },
    {
      "inputs": [],
      "name": "InvalidUser",
      "type": "error"
    },
    {
      "inputs": [
        {
          "internalType": "address",
          "name": "owner",
          "type": "address"
        }
      ],
      "name": "OwnableInvalidOwner",
      "type": "error"
    },
    {
      "inputs": [
        {
          "internalType": "address",
          "name": "account",
          "type": "address"
        }
      ],
      "name": "OwnableUnauthorizedAccount",
      "type": "error"
    },
    {
      "inputs": [],
      "name": "WalletAlreadyExists",
      "type": "error"
    },
    {
      "inputs": [],
      "name": "WalletCreationFailed",
      "type": "error"
    },
    {
      "anonymous": false,
      "inputs": [
        {
          "indexed": true,
          "internalType": "address",
          "name": "oldCoordinator",
          "type": "address"
        },
        {
          "indexed": true,
          "internalType": "address",
          "name": "newCoordinator",
          "type": "address"
        }
      ],
      "name": "BackendCoordinatorUpdated",
      "type": "event"
    },
    {
      "anonymous": false,
      "inputs": [
        {
          "indexed": true,
          "internalType": "address",
          "name": "previousOwner",
          "type": "address"
        },
        {
          "indexed": true,
          "internalType": "address",
          "name": "newOwner",
          "type": "address"
        }
      ],
      "name": "OwnershipTransferred",
      "type": "event"
    },
    {
      "anonymous": false,
      "inputs": [
        {
          "indexed": true,
          "internalType": "address",
          "name": "user",
          "type": "address"
        },
        {
          "indexed": true,
          "internalType": "address",
          "name": "wallet",
          "type": "address"
        },
        {
          "indexed": false,
          "internalType": "bytes32",
          "name": "salt",
          "type": "bytes32"
        }
      ],
      "name": "WalletCreated",
      "type": "event"
    },
    {
      "inputs": [
        {
          "internalType": "address",
          "name": "",
          "type": "address"
        }
      ],
      "name": "agentToUser",
      "outputs": [
        {
          "internalType": "address",
          "name": "",
          "type": "address"
        }
      ],
      "stateMutability": "view",
      "type": "function"
    },
    {
      "inputs": [],
      "name": "backendCoordinator",
      "outputs": [
        {
          "internalType": "address",
          "name": "",
          "type": "address"
        }
      ],
      "stateMutability": "view",
      "type": "function"
    },
    {
      "inputs": [
        {
          "internalType": "address",
          "name": "user",
          "type": "address"
        }
      ],
      "name": "createWallet",
      "outputs": [
        {
          "internalType": "address",
          "name": "wallet",
          "type": "address"
        }
      ],
      "stateMutability": "nonpayable",
      "type": "function"
    },
    {
      "inputs": [
        {
          "internalType": "address[]",
          "name": "users",
          "type": "address[]"
        }
      ],
      "name": "createWalletsBatch",
      "outputs": [
        {
          "internalType": "address[]",
          "name": "wallets",
          "type": "address[]"
        }
      ],
      "stateMutability": "nonpayable",
      "type": "function"
    },
    {
      "inputs": [
        {
          "internalType": "address",
          "name": "wallet",
          "type": "address"
        }
      ],
      "name": "disableWallet",
      "outputs": [],
      "stateMutability": "nonpayable",
      "type": "function"
    },
    {
      "inputs": [],
      "name": "getTotalWallets",
      "outputs": [
        {
          "internalType": "uint256",
          "name": "count",
          "type": "uint256"
        }
      ],
      "stateMutability": "view",
      "type": "function"
    },
    {
      "inputs": [
        {
          "internalType": "address",
          "name": "agentWallet",
          "type": "address"
        }
      ],
      "name": "getUserForAgent",
      "outputs": [
        {
          "internalType": "address",
          "name": "user",
          "type": "address"
        }
      ],
      "stateMutability": "view",
      "type": "function"
    },
    {
      "inputs": [
        {
          "internalType": "address",
          "name": "user",
          "type": "address"
        }
      ],
      "name": "getWallet",
      "outputs": [
        {
          "internalType": "address",
          "name": "wallet",
          "type": "address"
        }
      ],
      "stateMutability": "view",
      "type": "function"
    },
    {
      "inputs": [],
      "name": "getWalletBytecodeHash",
      "outputs": [
        {
          "internalType": "bytes32",
          "name": "hash",
          "type": "bytes32"
        }
      ],
      "stateMutability": "pure",
      "type": "function"
    },
    {
      "inputs": [
        {
          "internalType": "address",
          "name": "wallet",
          "type": "address"
        }
      ],
      "name": "getWalletOwner",
      "outputs": [
        {
          "internalType": "address",
          "name": "owner",
          "type": "address"
        }
      ],
      "stateMutability": "view",
      "type": "function"
    },
    {
      "inputs": [
        {
          "internalType": "address",
          "name": "user",
          "type": "address"
        }
      ],
      "name": "hasWallet",
      "outputs": [
        {
          "internalType": "bool",
          "name": "exists",
          "type": "bool"
        }
      ],
      "stateMutability": "view",
      "type": "function"
    },
    {
      "inputs": [
        {
          "internalType": "address",
          "name": "",
          "type": "address"
        }
      ],
      "name": "isValidWallet",
      "outputs": [
        {
          "internalType": "bool",
          "name": "",
          "type": "bool"
        }
      ],
      "stateMutability": "view",
      "type": "function"
    },
    {
      "inputs": [
        {
          "internalType": "address",
          "name": "wallet",
          "type": "address"
        }
      ],
      "name": "isWalletValid",
      "outputs": [
        {
          "internalType": "bool",
          "name": "valid",
          "type": "bool"
        }
      ],
      "stateMutability": "view",
      "type": "function"
    },
    {
      "inputs": [],
      "name": "owner",
      "outputs": [
        {
          "internalType": "address",
          "name": "",
          "type": "address"
        }
      ],
      "stateMutability": "view",
      "type": "function"
    },
    {
      "inputs": [
        {
          "internalType": "address",
          "name": "user",
          "type": "address"
        }
      ],
      "name": "predictWalletAddress",
      "outputs": [
        {
          "internalType": "address",
          "name": "predictedAddress",
          "type": "address"
        }
      ],
      "stateMutability": "view",
      "type": "function"
    },
    {
      "inputs": [],
      "name": "renounceOwnership",
      "outputs": [],
      "stateMutability": "nonpayable",
      "type": "function"
    },
    {
      "inputs": [
        {
          "internalType": "address",
          "name": "newOwner",
          "type": "address"
        }
      ],
      "name": "transferOwnership",
      "outputs": [],
      "stateMutability": "nonpayable",
      "type": "function"
    },
    {
      "inputs": [],
      "name": "usdcAddress",
      "outputs": [
        {
          "internalType": "address",
          "name": "",
          "type": "address"
        }
      ],
      "stateMutability": "view",
      "type": "function"
    },
    {
      "inputs": [
        {
          "internalType": "address",
          "name": "",
          "type": "address"
        }
      ],
      "name": "userWallets",
      "outputs": [
        {
          "internalType": "address",
          "name": "",
          "type": "address"
        }
      ],
      "stateMutability": "view",
      "type": "function"
    },
    {
      "inputs": [],
      "name": "version",
      "outputs": [
        {
          "internalType": "string",
          "name": "",
          "type": "string"
        }
      ],
      "stateMutability": "pure",
      "type": "function"
    }
  ],
  "transactionHash": "0xb194ba00acfc933fa36bfd8252f9ce81420cff6fb957df3a2f48cab7eb7257e8",
  "args": [
    "0xCE54cF5a0dE3843011cF20389C1b6a4AaC442d6A",
    "0x036CbD53842c5426634e7929541eC2318f3dCF7e",
    "0xCE54cF5a0dE3843011cF20389C1b6a4AaC442d6A"
  ],
  "numDeployments": 3,
  "solcInputHash": "e4a2eaa710d08ead0969ce7f56f635d5",
  "bytecode": "0x60c06040523480156200001157600080fd5b5060405162005be538038062005be58339810160408190526200003491620001a7565b806001600160a01b0381166200006557604051631e4fbdf760e01b8152600060048201526024015b60405180910390fd5b62000070816200013a565b506001600160a01b038316620000c95760405162461bcd60e51b815260206004820152601b60248201527f496e76616c6964206261636b656e6420636f6f7264696e61746f72000000000060448201526064016200005c565b6001600160a01b038216620001215760405162461bcd60e51b815260206004820152601460248201527f496e76616c69642055534443206164647265737300000000000000000000000060448201526064016200005c565b506001600160a01b039182166080521660a052620001f1565b600080546001600160a01b038381166001600160a01b0319831681178455604051919092169283917f8be0079c531659141344cd1fd0a4f28419497f9722a3daafe3b4186f6b6457e09190a35050565b80516001600160a01b0381168114620001a257600080fd5b919050565b600080600060608486031215620001bd57600080fd5b620001c8846200018a565b9250620001d8602085016200018a565b9150620001e8604085016200018a565b90509250925092565b60805160a0516159b262000233600039600081816101500152818161048001526109b90152600081816101fb01528181610450015261099701526159b26000f3fe60806040523480156200001157600080fd5b5060043610620001455760003560e01c806383657f7711620000bb578063b054a9e8116200007a578063b054a9e81462000374578063ba51a7b3146200038b578063de95a2e714620003ba578063f2fde38b14620003e6578063f5f50eb114620003fd57600080fd5b806383657f7714620002f55780638da5cb5b146200031b578063966708a5146200032d578063a926819f1462000344578063ab9ae6ec146200035b57600080fd5b806359fa139f116200010857806359fa139f146200024657806363e6ffdd1462000275578063713bb95c14620002a1578063715018a614620002b857806380dc8b0614620002c457600080fd5b806302d45457146200014a57806304d0a647146200018f578063439a301214620001be5780634b19f25514620001f557806354fd4d50146200021d575b600080fd5b620001727f000000000000000000000000000000000000000000000000000000000000000081565b6040516001600160a01b0390911681526020015b60405180910390f35b62000172620001a036600462000c37565b6001600160a01b039081166000908152600160205260409020541690565b620001e4620001cf36600462000c37565b60026020526000908152604090205460ff1681565b604051901515815260200162000186565b620001727f000000000000000000000000000000000000000000000000000000000000000081565b60408051808201825260058152640312e302e360dc1b6020820152905162000186919062000c84565b620001726200025736600462000c37565b6001600160a01b039081166000908152600360205260409020541690565b620001726200028636600462000c37565b6001602052600090815260409020546001600160a01b031681565b62000172620002b236600462000c37565b62000405565b620002c262000536565b005b620001e4620002d536600462000c37565b6001600160a01b0390811660009081526001602052604090205416151590565b6200030c6200030636600462000cb9565b6200054e565b60405162000186919062000d33565b6000546001600160a01b031662000172565b620001726200033e36600462000c37565b620007d0565b620002c26200035536600462000c37565b62000864565b62000365620008ec565b60405190815260200162000186565b620001726200038536600462000c37565b62000920565b620001e46200039c36600462000c37565b6001600160a01b031660009081526002602052604090205460ff1690565b62000172620003cb36600462000c37565b6003602052600090815260409020546001600160a01b031681565b620002c2620003f736600462000c37565b62000aeb565b600062000365565b600080620004138362000b2f565b9050600060405180602001620004299062000c13565b601f1982820381018352601f9091011660408181526001600160a01b0387811660208401527f00000000000000000000000000000000000000000000000000000000000000008116918301919091523060608301527f000000000000000000000000000000000000000000000000000000000000000016608082015260a00160408051601f1981840301815290829052620004c8929160200162000d82565b60408051808303601f1901815282825280516020918201206001600160f81b0319828501523060601b6bffffffffffffffffffffffff191660218501526035840195909552605580840195909552815180840390950185526075909201905282519201919091209392505050565b6200054062000b94565b6200054c600062000bc3565b565b606081801580159062000562575060648111155b620005a95760405162461bcd60e51b8152602060048201526012602482015271496e76616c69642062617463682073697a6560701b60448201526064015b60405180910390fd5b8067ffffffffffffffff811115620005c557620005c562000db5565b604051908082528060200260200182016040528015620005ef578160200160208202803683370190505b50915060005b81811015620007c857600060018187878581811062000618576200061862000dcb565b90506020020160208101906200062f919062000c37565b6001600160a01b0390811682526020820192909252604001600020541614620006de57600160008686848181106200066b576200066b62000dcb565b905060200201602081019062000682919062000c37565b6001600160a01b0390811682526020820192909252604001600020548451911690849083908110620006b857620006b862000dcb565b60200260200101906001600160a01b031690816001600160a01b031681525050620007b3565b3063b054a9e8868684818110620006f957620006f962000dcb565b905060200201602081019062000710919062000c37565b6040516001600160e01b031960e084901b1681526001600160a01b0390911660048201526024016020604051808303816000875af115801562000757573d6000803e3d6000fd5b505050506040513d601f19601f820116820180604052508101906200077d919062000de1565b83828151811062000792576200079262000dcb565b60200260200101906001600160a01b031690816001600160a01b0316815250505b80620007bf8162000e01565b915050620005f5565b505092915050565b6001600160a01b03811660009081526002602052604081205460ff16620007f957506000919050565b816001600160a01b0316638da5cb5b6040518163ffffffff1660e01b8152600401602060405180830381865afa15801562000838573d6000803e3d6000fd5b505050506040513d601f19601f820116820180604052508101906200085e919062000de1565b92915050565b6200086e62000b94565b6001600160a01b03811660009081526002602052604090205460ff16620008cb5760405162461bcd60e51b815260206004820152601060248201526f15d85b1b195d081b9bdd081d985b1a5960821b6044820152606401620005a0565b6001600160a01b03166000908152600260205260409020805460ff19169055565b600060405180602001620009009062000c13565b6020820181038252601f19601f8201166040525080519060200120905090565b60006001600160a01b0382166200094a5760405163fd684c3b60e01b815260040160405180910390fd5b6001600160a01b0382811660009081526001602052604090205416156200098457604051630f721df160e31b815260040160405180910390fd5b6000620009918362000b2f565b905080837f0000000000000000000000000000000000000000000000000000000000000000307f0000000000000000000000000000000000000000000000000000000000000000604051620009e69062000c13565b6001600160a01b0394851681529284166020840152908316604083015290911660608201526080018190604051809103906000f590508015801562000a2f573d6000803e3d6000fd5b5091506001600160a01b03821662000a5a576040516303792e6560e61b815260040160405180910390fd5b6001600160a01b03838116600081815260016020818152604080842080546001600160a01b0319908116978a1697881790915586855260028352818520805460ff191690941790935560038252928390208054909216841790915590518481527fbdbcb584581e4f688b28038d847fa0c73130b688da678029bcb98e32fec769a2910160405180910390a350919050565b62000af562000b94565b6001600160a01b03811662000b2157604051631e4fbdf760e01b815260006004820152602401620005a0565b62000b2c8162000bc3565b50565b6040517f43726f73735969656c645f536d61727457616c6c65745f00000000000000000060208201526bffffffffffffffffffffffff19606083901b166037820152600090604b01604051602081830303815290604052805190602001209050919050565b6000546001600160a01b031633146200054c5760405163118cdaa760e01b8152336004820152602401620005a0565b600080546001600160a01b038381166001600160a01b0319831681178455604051919092169283917f8be0079c531659141344cd1fd0a4f28419497f9722a3daafe3b4186f6b6457e09190a35050565b614b538062000e2a83390190565b6001600160a01b038116811462000b2c57600080fd5b60006020828403121562000c4a57600080fd5b813562000c578162000c21565b9392505050565b60005b8381101562000c7b57818101518382015260200162000c61565b50506000910152565b602081526000825180602084015262000ca581604085016020870162000c5e565b601f01601f19169190910160400192915050565b6000806020838503121562000ccd57600080fd5b823567ffffffffffffffff8082111562000ce657600080fd5b818501915085601f83011262000cfb57600080fd5b81358181111562000d0b57600080fd5b8660208260051b850101111562000d2157600080fd5b60209290920196919550909350505050565b6020808252825182820181905260009190848201906040850190845b8181101562000d765783516001600160a01b03168352928401929184019160010162000d4f565b50909695505050505050565b6000835162000d9681846020880162000c5e565b83519083019062000dac81836020880162000c5e565b01949350505050565b634e487b7160e01b600052604160045260246000fd5b634e487b7160e01b600052603260045260246000fd5b60006020828403121562000df457600080fd5b815162000c578162000c21565b60006001820162000e2257634e487b7160e01b600052601160045260246000fd5b506001019056fe6101006040523480156200001257600080fd5b5060405162004b5338038062004b5383398101604081905262000035916200045e565b60016000556001600160a01b03841615806200005857506001600160a01b038316155b806200006b57506001600160a01b038216155b806200007e57506001600160a01b038116155b156200009d5760405163d92e233d60e01b815260040160405180910390fd5b6001600160a01b0380851660805283811660a05282811660c052811660e0526001805460ff191681179055620004377fec9873545bb8a5d2d42da3057cc304585f23a42265e7802a750aae6684a644818054738fe6b999dc680ccfdd5bf7eb0974218be2542daa6001600160a01b031991821681179092557f548c5e1d41c3f82172464b7edaa915cc675ade8b90fffe223abb8a4ff3f26f11805473e737e5cebeeba77efe34d4aa090756590b1ce27590831681179091557fa7eff475ecfcbdf067c2158d42f27ce03194025ca94bd6d53f8a5fc61250863d805463ffffffff199081169091557faaf21b853e7b00b42b68f9d394449dae365a44398382277bb592a9c5243ae02880548416851790557f4c174d71a6cfe2d71828895204ea66f6db51e132305b86fbe4f89e56f5ad7bc780548416831790557f294d49a231d98de3525d5eec09954453967129350d9738e750254f3a6edcb75c8054600690831681179091557fc1b574f6625cd5cbe79a84558b9eaa7cfed6c0eaaa47d983eebebed13c5932ed805485169095179094557fac2f5069bd7e438cbd1102e529f6f3d1ed744a7035a7f71299b3e7dea4b83576805484169092179091557fc311d04df44acf7343b3e39fe3b9968a17f22876be9582994c4218a144ddc5788054600390831681179091557fb39221ace053465ec3453ce2b36430bd138b997ecea25c1043da0c366812b82880547328b5a0e9c621a5badaa536219b3a228c8168cf5d90851681179091557fad67d757c34507f157cacfa2e3153e9f260a2244f30428821be7be64587ac55f80547381d40f21f12a8f0e3252bccb954d722d4c464b6490861681179091557f92e85d02570a8092d09a6e3a57665bc3815a2699a4074001bf1ccabf660f5a368054851690557ec926fc893501ce5ad439ad7af72d794e5fd17fa1b09c50e4c335249310c01380548616831790557f4f278913b1c0a191cf7273bd8fe8a6a363cdd828060c2170092d5cc6fb2b73aa80548616821790557fd4fe022f7fad12ba8ee1acb88fbbe13753ff2120c7c2c88dcdcb8794b80f474e8054851690961790955561a4b16000527fa7540f530be45c6674dd99d492017379fb77c281d9721ac80290a13fa98775088054851690911790557f7e8bc9853458e96c6f3a5b5a9b420ab6feac098cbfa4fcf6c9966e813a3bb182805490931690931790915560096020527f34ef77749ddeb0092c7c69d8f1e0fc86dcc071ab05d64633a12bc8ee58ed820380549091169091179055565b50505050620004bb565b80516001600160a01b03811681146200045957600080fd5b919050565b600080600080608085870312156200047557600080fd5b620004808562000441565b9350620004906020860162000441565b9250620004a06040860162000441565b9150620004b06060860162000441565b905092959194509250565b60805160a05160c05160e05161450e620006456000396000818161061c0152818161099801528181610b6801528181610c400152818161125e015281816116a70152818161175f01528181611ae201528181611c1a015281816126d2015281816127d8015281816129d301528181612b2001528181612bc101528181612ebe01528181612f9a01526132490152600081816107ab015261206101526000818161040201528181610d42015281816111bc015281816115a80152818161198f01528181611d89015281816120bb0152818161242301526128d401526000818161065001528181610ac701528181610c1101528181610cdc01528181610d76015281816110b6015281816111f001528181611429015281816114b1015281816115dc015281816117e4015281816119c301528181611dbd0152818161202d015281816120ef01528181612457015281816125610152818161290801528181612e6001528181612f6b01528181613036015281816131730152818161321401526132d2015261450e6000f3fe6080604052600436106102605760003560e01c806388ba16ab11610144578063c45a0155116100b6578063dc8cff3c1161007a578063dc8cff3c1461084e578063ef97108a146108b0578063f081e368146108dd578063f1215d25146108ff578063f9335c161461091f578063ff50abdc1461096a57600080fd5b8063c45a015514610799578063caa648b4146107cd578063cd156c6a146107e2578063da831dd314610819578063db2e21bc1461083957600080fd5b80639c9080bf116101085780639c9080bf146106a7578063a58ff35e146106dd578063aae29f38146106ff578063ab6d72531461071f578063ac8929351461074c578063ad67efe01461077957600080fd5b806388ba16ab146105da57806389a302711461060a5780638da5cb5b1461063e57806394b385241461067257806396b31f701461068757600080fd5b80634b19f255116101dd5780637bd2d8ac116101a15780637bd2d8ac146104c55780637dd19fff146104e557806380b62e9e1461052d57806383e554a214610565578063849602ac14610585578063856a65eb146105ba57600080fd5b80634b19f255146103f05780634b319713146104245780634f9ac0af1461043a57806354fd4d501461045a5780635dce2fa91461048d57600080fd5b8063312195db11610224578063312195db1461035b5780633751f6501461037b57806337d7c2c81461039b5780633e0ac1af146103bb57806342f008ae146103d057600080fd5b806312065fe01461026c57806322f3e2d4146102945780632a0d47c1146102be5780632aacadaf146102eb5780632e1a7d4d1461033957600080fd5b3661026757005b600080fd5b34801561027857600080fd5b50610281610980565b6040519081526020015b60405180910390f35b3480156102a057600080fd5b506001546102ae9060ff1681565b604051901515815260200161028b565b3480156102ca57600080fd5b506102de6102d93660046135f6565b610a10565b60405161028b919061365f565b3480156102f757600080fd5b506103216103063660046135f6565b6008602052600090815260409020546001600160a01b031681565b6040516001600160a01b03909116815260200161028b565b34801561034557600080fd5b506103596103543660046135f6565b610abc565b005b34801561036757600080fd5b506102ae61037636600461374a565b610d35565b34801561038757600080fd5b506103596103963660046137c1565b6110ab565b3480156103a757600080fd5b506102de6103b63660046137fa565b6111af565b3480156103c757600080fd5b5061035961141e565b3480156103dc57600080fd5b506103596103eb36600461387c565b6114a6565b3480156103fc57600080fd5b506103217f000000000000000000000000000000000000000000000000000000000000000081565b34801561043057600080fd5b5061028160035481565b34801561044657600080fd5b506103596104553660046138d4565b61159d565b34801561046657600080fd5b5060408051808201909152600a8152690322e302e302d636374760b41b60208201526102de565b34801561049957600080fd5b506102816104a836600461392a565b805160208183018101805160048252928201919093012091525481565b3480156104d157600080fd5b506103596104e0366004613a49565b611984565b3480156104f157600080fd5b506105186105003660046135f6565b60096020526000908152604090205463ffffffff1681565b60405163ffffffff909116815260200161028b565b34801561053957600080fd5b5061054d6105483660046135f6565b611bbb565b6040516001600160401b03909116815260200161028b565b34801561057157600080fd5b506102ae6105803660046135f6565b611bf8565b34801561059157600080fd5b506105a56105a03660046137c1565b611c8d565b60405161028b99989796959493929190613b40565b3480156105c657600080fd5b506103596105d5366004613baf565b611d7e565b3480156105e657600080fd5b506102ae6105f53660046135f6565b600b6020526000908152604090205460ff1681565b34801561061657600080fd5b506103217f000000000000000000000000000000000000000000000000000000000000000081565b34801561064a57600080fd5b506103217f000000000000000000000000000000000000000000000000000000000000000081565b34801561067e57600080fd5b50610359612022565b34801561069357600080fd5b506103596106a2366004613c23565b6120b0565b3480156106b357600080fd5b506103216106c23660046135f6565b6007602052600090815260409020546001600160a01b031681565b3480156106e957600080fd5b506106f26121ee565b60405161028b9190613c72565b34801561070b57600080fd5b5061028161071a36600461392a565b612278565b34801561072b57600080fd5b50466000908152600760205260409020546001600160a01b031615156102ae565b34801561075857600080fd5b5061076c6107673660046137c1565b6122a0565b60405161028b9190613cbf565b34801561078557600080fd5b506103596107943660046138d4565b612418565b3480156107a557600080fd5b506103217f000000000000000000000000000000000000000000000000000000000000000081565b3480156107d957600080fd5b506102816126ba565b3480156107ee57600080fd5b506107f76127b2565b604080519485526020850193909352918301521515606082015260800161028b565b34801561082557600080fd5b5061054d610834366004613d64565b6128c7565b34801561084557600080fd5b50610359612e55565b34801561085a57600080fd5b5046600090815260076020908152604080832054600883528184205460098452938290205482516001600160a01b039283168152919094169281019290925263ffffffff9092169181019190915260600161028b565b3480156108bc57600080fd5b506102816108cb366004613dc4565b60056020526000908152604090205481565b3480156108e957600080fd5b506108f261308f565b60405161028b9190613e34565b34801561090b57600080fd5b5061035961091a366004613e47565b613168565b34801561092b57600080fd5b5061093f61093a3660046137c1565b61333f565b6040805194151585529215156020850152918301526001600160a01b0316606082015260800161028b565b34801561097657600080fd5b5061028160025481565b6040516370a0823160e01b81523060048201526000907f00000000000000000000000000000000000000000000000000000000000000006001600160a01b0316906370a0823190602401602060405180830381865afa1580156109e7573d6000803e3d6000fd5b505050506040513d601f19601f82011682018060405250810190610a0b9190613e77565b905090565b60068181548110610a2057600080fd5b906000526020600020016000915090508054610a3b90613e90565b80601f0160208091040260200160405190810160405280929190818152602001828054610a6790613e90565b8015610ab45780601f10610a8957610100808354040283529160200191610ab4565b820191906000526020600020905b815481529060010190602001808311610a9757829003601f168201915b505050505081565b336001600160a01b037f00000000000000000000000000000000000000000000000000000000000000001614610b0557604051635fc483c560e01b815260040160405180910390fd5b60015460ff16610b2857604051631f11e7a160e01b815260040160405180910390fd5b610b3061349d565b80600003610b515760405163162908e360e11b815260040160405180910390fd5b6040516370a0823160e01b815230600482015281907f00000000000000000000000000000000000000000000000000000000000000006001600160a01b0316906370a0823190602401602060405180830381865afa158015610bb7573d6000803e3d6000fd5b505050506040513d601f19601f82011682018060405250810190610bdb9190613e77565b1015610bfa57604051631e9acf1760e31b815260040160405180910390fd5b60405163a9059cbb60e01b81526001600160a01b037f000000000000000000000000000000000000000000000000000000000000000081166004830152602482018390527f0000000000000000000000000000000000000000000000000000000000000000169063a9059cbb906044016020604051808303816000875af1158015610c89573d6000803e3d6000fd5b505050506040513d601f19601f82011682018060405250810190610cad9190613eca565b508060036000828254610cc09190613f02565b9091555050604080518281524260208201526001600160a01b037f000000000000000000000000000000000000000000000000000000000000000016917f92ccf450a286a957af52509bc1c9939d1a6a481783e142e41e2499f0bb66ebc6910160405180910390a2610d326001600055565b50565b6000336001600160a01b037f00000000000000000000000000000000000000000000000000000000000000001614801590610d995750336001600160a01b037f00000000000000000000000000000000000000000000000000000000000000001614155b15610db75760405163e506ea2960e01b815260040160405180910390fd5b60015460ff16610dda57604051631f11e7a160e01b815260040160405180910390fd5b610de261349d565b6001600160401b0382166000908152600a602052604081206001810154909103610e1f57604051632b44303360e11b815260040160405180910390fd5b600481015460ff16600203610e47576040516305de099160e31b815260040160405180910390fd5b600481015460ff16600303610e6f57604051634d10bf4d60e01b815260040160405180910390fd5b84516020808701919091206000818152600b90925260409091205460ff1615610eab57604051637b04260960e01b815260040160405180910390fd5b466000908152600860205260409020546001600160a01b031680610ee2576040516325928b3b60e01b815260040160405180910390fd5b604051630afd9fa560e31b81526001600160a01b038216906357ecfd2890610f10908a908a90600401613f1b565b6020604051808303816000875af1158015610f2f573d6000803e3d6000fd5b505050506040513d601f19601f82011682018060405250810190610f539190613eca565b93508361101157600683018054906000610f6c83613f49565b91905055506003836006015410610ff85760048301805460ff19166003179055604080518181526014918101919091527313585e081c995d1c9a595cc8195e18d95959195960621b60608201524260208201526001600160401b038616907ff7b31590d63024db3f1420d7062cfc9835f06ebcfe26d1b0937450045f8940589060800160405180910390a25b604051634d10bf4d60e01b815260040160405180910390fd5b600483018054600260ff1991821617909155600384018390556000838152600b6020908152604091829020805490931660019081179093559185015481518581529283015242908201526001600160401b038616907f74751c76690c231994dfc007d365af24d7468a87215e7b21ee0807f6b2a4941a9060600160405180910390a2600193505050506110a46001600055565b9392505050565b336001600160a01b037f000000000000000000000000000000000000000000000000000000000000000016146110f457604051635fc483c560e01b815260040160405180910390fd5b6001600160401b0381166000908152600a60205260408120600181015490910361113157604051632b44303360e11b815260040160405180910390fd5b600481015460ff1615611157576040516305de099160e31b815260040160405180910390fd5b60048101805460ff191660031790556040516001600160401b038316907fecad78f23d374782044f5178afd0845ba6ddfd8a31d49d3be28f626396509903906111a39042815260200190565b60405180910390a25050565b6060336001600160a01b037f000000000000000000000000000000000000000000000000000000000000000016148015906112135750336001600160a01b037f00000000000000000000000000000000000000000000000000000000000000001614155b156112315760405163e506ea2960e01b815260040160405180910390fd5b60015460ff1661125457604051631f11e7a160e01b815260040160405180910390fd5b61125c61349d565b7f00000000000000000000000000000000000000000000000000000000000000006001600160a01b0316846001600160a01b0316036112e25760405162461bcd60e51b815260206004820152601960248201527f43616e6e6f742063616c6c2055534443206469726563746c790000000000000060448201526064015b60405180910390fd5b306001600160a01b0385160361132d5760405162461bcd60e51b815260206004820152601060248201526f21b0b73737ba1031b0b6361039b2b63360811b60448201526064016112d9565b600080856001600160a01b0316858560405161134a929190613f62565b6000604051808303816000865af19150503d8060008114611387576040519150601f19603f3d011682016040523d82523d6000602084013e61138c565b606091505b5091509150816113d65760405162461bcd60e51b8152602060048201526015602482015274109858dad95b99081858dd1a5bdb8819985a5b1959605a1b60448201526064016112d9565b7f61b1db00fa46b85aac40d41d854693dc167433f5e067021d1d6689cd5d6ad9e985854260405161140993929190613f72565b60405180910390a19150506110a46001600055565b336001600160a01b037f0000000000000000000000000000000000000000000000000000000000000000161461146757604051635fc483c560e01b815260040160405180910390fd5b6001805460ff191690556040514281527fa195e25d5f54c88c4b12f36a9379ed681d0a5d83b64baada004ca76278b22cfc9060200160405180910390a1565b336001600160a01b037f000000000000000000000000000000000000000000000000000000000000000016146114ef57604051635fc483c560e01b815260040160405180910390fd5b600084815260076020908152604080832080546001600160a01b03199081166001600160a01b038981169182179093556008855283862080549092169288169283179091556009845293829020805463ffffffff191663ffffffff87169081179091558251898152938401949094529082015260608101919091527f79cd5749505a88726e06cf1fb44a8c70b5ec8bbf8884bf65d76f2957f3577e0c9060800160405180910390a150505050565b336001600160a01b037f000000000000000000000000000000000000000000000000000000000000000016148015906115ff5750336001600160a01b037f00000000000000000000000000000000000000000000000000000000000000001614155b1561161d5760405163e506ea2960e01b815260040160405180910390fd5b60015460ff1661164057604051631f11e7a160e01b815260040160405180910390fd5b61164861349d565b806000036116695760405163162908e360e11b815260040160405180910390fd5b6001600160a01b0382166116905760405163d92e233d60e01b815260040160405180910390fd5b6040516370a0823160e01b815230600482015281907f00000000000000000000000000000000000000000000000000000000000000006001600160a01b0316906370a0823190602401602060405180830381865afa1580156116f6573d6000803e3d6000fd5b505050506040513d601f19601f8201168201806040525081019061171a9190613e77565b101561173957604051631e9acf1760e31b815260040160405180910390fd5b60405163a9059cbb60e01b81526001600160a01b038381166004830152602482018390527f0000000000000000000000000000000000000000000000000000000000000000169063a9059cbb906044016020604051808303816000875af11580156117a8573d6000803e3d6000fd5b505050506040513d601f19601f820116820180604052508101906117cc9190613eca565b506040516311f9fbc960e21b81526001600160a01b037f000000000000000000000000000000000000000000000000000000000000000081166004830152602482018390528316906347e7ef2490604401600060405180830381600087803b15801561183757600080fd5b505af115801561184b573d6000803e3d6000fd5b5050505060048360405161185f9190613fcf565b9081526020016040518091039020546000036118b357600680546001810182556000919091527ff652222313e28459528d920b65115c16c04f3efc82aaedc97be59f3f377c0d3f016118b18482614039565b505b806004846040516118c49190613fcf565b908152602001604051809103902060008282546118e19190613f02565b90915550506001600160a01b0382166000908152600560205260408120805483929061190e908490613f02565b9091555050604051611921908490613fcf565b604080519182900382206001600160a01b0385168352602083018490524291830191909152907f704fa75bdda643242cc116c3a73ed29267a841ff3023581c2275cf6cb77119bd906060015b60405180910390a261197f6001600055565b505050565b336001600160a01b037f000000000000000000000000000000000000000000000000000000000000000016148015906119e65750336001600160a01b037f00000000000000000000000000000000000000000000000000000000000000001614155b15611a045760405163e506ea2960e01b815260040160405180910390fd5b60015460ff16611a2757604051631f11e7a160e01b815260040160405180910390fd5b611a2f61349d565b8251825181148015611a415750815181145b611a855760405162461bcd60e51b8152602060048201526015602482015274082e4e4c2f240d8cadccee8d040dad2e6dac2e8c6d605b1b60448201526064016112d9565b6000805b82811015611aca57838181518110611aa357611aa36140f8565b602002602001015182611ab69190613f02565b915080611ac281613f49565b915050611a89565b506040516370a0823160e01b815230600482015281907f00000000000000000000000000000000000000000000000000000000000000006001600160a01b0316906370a0823190602401602060405180830381865afa158015611b31573d6000803e3d6000fd5b505050506040513d601f19601f82011682018060405250810190611b559190613e77565b1015611b7457604051631e9acf1760e31b815260040160405180910390fd5b7f755a9d37c1df505691fdf90a892fc4bbda4bd7134ba469c9ce720e88f876bf29858585604051611ba79392919061410e565b60405180910390a1505061197f6001600055565b600c8181548110611bcb57600080fd5b9060005260206000209060049182820401919006600802915054906101000a90046001600160401b031681565b6040516370a0823160e01b815230600482015260009082906001600160a01b037f000000000000000000000000000000000000000000000000000000000000000016906370a0823190602401602060405180830381865afa158015611c61573d6000803e3d6000fd5b505050506040513d601f19601f82011682018060405250810190611c859190613e77565b101592915050565b600a60205260009081526040902080546001820154600283015460038401546004850154600586015460068701546007880180546001600160401b0390981698969763ffffffff8716976401000000009097046001600160a01b03169660ff909516949190611cfb90613e90565b80601f0160208091040260200160405190810160405280929190818152602001828054611d2790613e90565b8015611d745780601f10611d4957610100808354040283529160200191611d74565b820191906000526020600020905b815481529060010190602001808311611d5757829003601f168201915b5050505050905089565b336001600160a01b037f00000000000000000000000000000000000000000000000000000000000000001614801590611de05750336001600160a01b037f00000000000000000000000000000000000000000000000000000000000000001614155b15611dfe5760405163e506ea2960e01b815260040160405180910390fd5b60015460ff16611e2157604051631f11e7a160e01b815260040160405180910390fd5b611e2961349d565b80611e6a5760405162461bcd60e51b8152602060048201526011602482015270139bc818d85b1b1cc81c1c9bdd9a591959607a1b60448201526064016112d9565b600a811115611eac5760405162461bcd60e51b815260206004820152600e60248201526d546f6f206d616e792063616c6c7360901b60448201526064016112d9565b60005b81811015611fc15760008030858585818110611ecd57611ecd6140f8565b9050602002810190611edf91906141a6565b604051611eed929190613f62565b6000604051808303816000865af19150503d8060008114611f2a576040519150601f19603f3d011682016040523d82523d6000602084013e611f2f565b606091505b509150915081611fac57604481511015611f795760405162461bcd60e51b815260206004820152600b60248201526a10d85b1b0819985a5b195960aa1b60448201526064016112d9565b60048101905080806020019051810190611f9391906141f3565b60405162461bcd60e51b81526004016112d9919061365f565b50508080611fb990613f49565b915050611eaf565b5060408051602081018390527f61b1db00fa46b85aac40d41d854693dc167433f5e067021d1d6689cd5d6ad9e9910160408051601f198184030181529082905261200c914290614260565b60405180910390a161201e6001600055565b5050565b336001600160a01b037f000000000000000000000000000000000000000000000000000000000000000016148015906120845750336001600160a01b037f00000000000000000000000000000000000000000000000000000000000000001614155b156120a25760405163e506ea2960e01b815260040160405180910390fd5b6001805460ff191681179055565b336001600160a01b037f000000000000000000000000000000000000000000000000000000000000000016148015906121125750336001600160a01b037f00000000000000000000000000000000000000000000000000000000000000001614155b156121305760405163e506ea2960e01b815260040160405180910390fd5b6001600160401b0382166000908152600a60205260408120600181015490910361216d57604051632b44303360e11b815260040160405180910390fd5b600481015460ff16600203612195576040516305de099160e31b815260040160405180910390fd5b60048101805460ff191660031790556040516001600160401b038416907ff7b31590d63024db3f1420d7062cfc9835f06ebcfe26d1b0937450045f894058906121e190859042906142a6565b60405180910390a2505050565b6060600c80548060200260200160405190810160405280929190818152602001828054801561226e57602002820191906000526020600020906000905b82829054906101000a90046001600160401b03166001600160401b03168152602001906008019060208260070104928301926001038202915080841161222b5790505b5050505050905090565b600060048260405161228a9190613fcf565b9081526020016040518091039020549050919050565b604080516101208101825260008082526020820181905291810182905260608082018390526080820183905260a0820183905260c0820183905260e08201929092526101008101919091526001600160401b038281166000908152600a602090815260409182902082516101208101845281549094168452600181015491840191909152600281015463ffffffff8116928401929092526401000000009091046001600160a01b0316606083015260038101546080830152600481015460ff1660a0830152600581015460c0830152600681015460e08301526007810180546101008401919061238f90613e90565b80601f01602080910402602001604051908101604052809291908181526020018280546123bb90613e90565b80156124085780601f106123dd57610100808354040283529160200191612408565b820191906000526020600020905b8154815290600101906020018083116123eb57829003601f168201915b5050505050815250509050919050565b336001600160a01b037f0000000000000000000000000000000000000000000000000000000000000000161480159061247a5750336001600160a01b037f00000000000000000000000000000000000000000000000000000000000000001614155b156124985760405163e506ea2960e01b815260040160405180910390fd5b60015460ff166124bb57604051631f11e7a160e01b815260040160405180910390fd5b6124c361349d565b806000036124e45760405163162908e360e11b815260040160405180910390fd5b6001600160a01b03821661250b5760405163d92e233d60e01b815260040160405180910390fd5b8060048460405161251c9190613fcf565b908152602001604051809103902054101561254a57604051631e9acf1760e31b815260040160405180910390fd5b60405163f3fef3a360e01b81526001600160a01b037f0000000000000000000000000000000000000000000000000000000000000000811660048301526024820183905283169063f3fef3a390604401600060405180830381600087803b1580156125b457600080fd5b505af11580156125c8573d6000803e3d6000fd5b50505050806004846040516125dd9190613fcf565b908152602001604051809103902060008282546125fa91906142c8565b90915550506001600160a01b038216600090815260056020526040812080548392906126279084906142c8565b909155505060405160049061263d908590613fcf565b90815260200160405180910390205460000361265c5761265c836134c7565b8260405161266a9190613fcf565b604080519182900382206001600160a01b0385168352602083018490524291830191909152907f28438eb4aa4aac87166e3bf802ea80284870d452c16e7d6f1680d2b4b10774c69060600161196d565b6040516370a0823160e01b81523060048201526000907f00000000000000000000000000000000000000000000000000000000000000006001600160a01b0316906370a0823190602401602060405180830381865afa158015612721573d6000803e3d6000fd5b505050506040513d601f19601f820116820180604052508101906127459190613e77565b905060005b6006548110156127ae57600460068281548110612769576127696140f8565b90600052602060002001604051612780919061434e565b9081526020016040518091039020548261279a9190613f02565b9150806127a681613f49565b91505061274a565b5090565b6040516370a0823160e01b81523060048201526000908190819081906001600160a01b037f000000000000000000000000000000000000000000000000000000000000000016906370a0823190602401602060405180830381865afa15801561281f573d6000803e3d6000fd5b505050506040513d601f19601f820116820180604052508101906128439190613e77565b93506000925060005b6006548110156128b05760046006828154811061286b5761286b6140f8565b90600052602060002001604051612882919061434e565b9081526020016040518091039020548461289c9190613f02565b9350806128a881613f49565b91505061284c565b505060065460015493949293909260ff9091169150565b6000336001600160a01b037f0000000000000000000000000000000000000000000000000000000000000000161480159061292b5750336001600160a01b037f00000000000000000000000000000000000000000000000000000000000000001614155b156129495760405163e506ea2960e01b815260040160405180910390fd5b60015460ff1661296c57604051631f11e7a160e01b815260040160405180910390fd5b61297461349d565b846000036129955760405163162908e360e11b815260040160405180910390fd5b6001600160a01b0383166129bc5760405163d92e233d60e01b815260040160405180910390fd5b6040516370a0823160e01b815230600482015285907f00000000000000000000000000000000000000000000000000000000000000006001600160a01b0316906370a0823190602401602060405180830381865afa158015612a22573d6000803e3d6000fd5b505050506040513d601f19601f82011682018060405250810190612a469190613e77565b1015612a6557604051631e9acf1760e31b815260040160405180910390fd5b466000908152600760209081526040808320548784526009909252909120546001600160a01b039091169063ffffffff1681612ab4576040516325928b3b60e01b815260040160405180910390fd5b63ffffffff8116158015612acb57508562aa36a714155b8015612ad8575085600114155b15612af657604051632cebb6b160e21b815260040160405180910390fd5b60405163095ea7b360e01b81526001600160a01b03838116600483015260248201899052868116917f00000000000000000000000000000000000000000000000000000000000000009091169063095ea7b3906044016020604051808303816000875af1158015612b6b573d6000803e3d6000fd5b505050506040513d601f19601f82011682018060405250810190612b8f9190613eca565b506040516337e9a82760e11b81526004810189905263ffffffff83166024820152604481018290526001600160a01b037f000000000000000000000000000000000000000000000000000000000000000081166064830152841690636fd3504e906084016020604051808303816000875af1158015612c12573d6000803e3d6000fd5b505050506040513d601f19601f82011682018060405250810190612c36919061435a565b9350604051806101200160405280856001600160401b031681526020018981526020018363ffffffff168152602001876001600160a01b031681526020016000801b8152602001600160ff1681526020014281526020016000815260200186815250600a6000866001600160401b03166001600160401b0316815260200190815260200160002060008201518160000160006101000a8154816001600160401b0302191690836001600160401b031602179055506020820151816001015560408201518160020160006101000a81548163ffffffff021916908363ffffffff16021790555060608201518160020160046101000a8154816001600160a01b0302191690836001600160a01b031602179055506080820151816003015560a08201518160040160006101000a81548160ff021916908360ff16021790555060c0820151816005015560e08201518160060155610100820151816007019081612d9d9190614039565b5050600c8054600181018255600091909152600481047fdf6966c971051c3d54ec59162606531493a51404a002842f56009d7e5cf4a8c70180546001600160401b0380891660086003909516949094026101000a8481029102199091161790556040519091507fd5ffa406334d9a1dbcd23ab3cf6be4538ba793870487b6ff1043c28f0724382d90612e38908b9086908b908b904290614377565b60405180910390a2505050612e4d6001600055565b949350505050565b336001600160a01b037f00000000000000000000000000000000000000000000000000000000000000001614612e9e57604051635fc483c560e01b815260040160405180910390fd5b612ea661349d565b6040516370a0823160e01b81523060048201526000907f00000000000000000000000000000000000000000000000000000000000000006001600160a01b0316906370a0823190602401602060405180830381865afa158015612f0d573d6000803e3d6000fd5b505050506040513d601f19601f82011682018060405250810190612f319190613e77565b905080600003612f5457604051631e9acf1760e31b815260040160405180910390fd5b60405163a9059cbb60e01b81526001600160a01b037f000000000000000000000000000000000000000000000000000000000000000081166004830152602482018390527f0000000000000000000000000000000000000000000000000000000000000000169063a9059cbb906044016020604051808303816000875af1158015612fe3573d6000803e3d6000fd5b505050506040513d601f19601f820116820180604052508101906130079190613eca565b50806003600082825461301a9190613f02565b9091555050604080518281524260208201526001600160a01b037f000000000000000000000000000000000000000000000000000000000000000016917f56da9a5ae0bcf6e7c3fdd78a10550e7d0458de1c39bfb7f6e96a3e92dd344a68910160405180910390a25061308d6001600055565b565b60606006805480602002602001604051908101604052809291908181526020016000905b8282101561315f5783829060005260206000200180546130d290613e90565b80601f01602080910402602001604051908101604052809291908181526020018280546130fe90613e90565b801561314b5780601f106131205761010080835404028352916020019161314b565b820191906000526020600020905b81548152906001019060200180831161312e57829003601f168201915b5050505050815260200190600101906130b3565b50505050905090565b336001600160a01b037f000000000000000000000000000000000000000000000000000000000000000016146131b157604051635fc483c560e01b815260040160405180910390fd5b60015460ff166131d457604051631f11e7a160e01b815260040160405180910390fd5b6131dc61349d565b816000036131fd5760405163162908e360e11b815260040160405180910390fd5b6040516323b872dd60e01b81526001600160a01b037f000000000000000000000000000000000000000000000000000000000000000081166004830152306024830152604482018490527f000000000000000000000000000000000000000000000000000000000000000016906323b872dd906064016020604051808303816000875af1158015613292573d6000803e3d6000fd5b505050506040513d601f19601f820116820180604052508101906132b69190613eca565b5081600260008282546132c99190613f02565b925050819055507f00000000000000000000000000000000000000000000000000000000000000006001600160a01b03167f2157592e75ae7c48a11728aef822bc883f3eb4b0929956be2a5e4250f5622aac83834260405161332d939291906143bf565b60405180910390a261201e6001600055565b6001600160401b038181166000908152600a6020908152604080832081516101208101835281549095168552600181015492850192909252600282015463ffffffff81169185019190915264010000000090046001600160a01b0316606084015260038101546080840152600481015460ff1660a0840152600581015460c0840152600681015460e08401526007810180549293849384938493849392610100840191906133ec90613e90565b80601f016020809104026020016040519081016040528092919081815260200182805461341890613e90565b80156134655780601f1061343a57610100808354040283529160200191613465565b820191906000526020600020905b81548152906001019060200180831161344857829003601f168201915b505050505081525050905060008160200151118160a0015160ff16600214826020015183606001519450945094509450509193509193565b6002600054036134c057604051633ee5aeb560e01b815260040160405180910390fd5b6002600055565b60005b60065481101561201e578180519060200120600682815481106134ef576134ef6140f8565b90600052602060002001604051613506919061434e565b60405180910390200361359a5760068054613523906001906142c8565b81548110613533576135336140f8565b9060005260206000200160068281548110613550576135506140f8565b90600052602060002001908161356691906143e8565b506006805480613578576135786144c2565b60019003818190600052602060002001600061359491906135ac565b90555050565b806135a481613f49565b9150506134ca565b5080546135b890613e90565b6000825580601f106135c8575050565b601f016020900490600052602060002090810190610d3291905b808211156127ae57600081556001016135e2565b60006020828403121561360857600080fd5b5035919050565b60005b8381101561362a578181015183820152602001613612565b50506000910152565b6000815180845261364b81602086016020860161360f565b601f01601f19169290920160200192915050565b6020815260006110a46020830184613633565b634e487b7160e01b600052604160045260246000fd5b604051601f8201601f191681016001600160401b03811182821017156136b0576136b0613672565b604052919050565b60006001600160401b038211156136d1576136d1613672565b50601f01601f191660200190565b600082601f8301126136f057600080fd5b81356137036136fe826136b8565b613688565b81815284602083860101111561371857600080fd5b816020850160208301376000918101602001919091529392505050565b6001600160401b0381168114610d3257600080fd5b60008060006060848603121561375f57600080fd5b83356001600160401b038082111561377657600080fd5b613782878388016136df565b9450602086013591508082111561379857600080fd5b506137a5868287016136df565b92505060408401356137b681613735565b809150509250925092565b6000602082840312156137d357600080fd5b81356110a481613735565b80356001600160a01b03811681146137f557600080fd5b919050565b60008060006040848603121561380f57600080fd5b613818846137de565b925060208401356001600160401b038082111561383457600080fd5b818601915086601f83011261384857600080fd5b81358181111561385757600080fd5b87602082850101111561386957600080fd5b6020830194508093505050509250925092565b6000806000806080858703121561389257600080fd5b843593506138a2602086016137de565b92506138b0604086016137de565b9150606085013563ffffffff811681146138c957600080fd5b939692955090935050565b6000806000606084860312156138e957600080fd5b83356001600160401b038111156138ff57600080fd5b61390b868287016136df565b93505061391a602085016137de565b9150604084013590509250925092565b60006020828403121561393c57600080fd5b81356001600160401b0381111561395257600080fd5b612e4d848285016136df565b60006001600160401b0382111561397757613977613672565b5060051b60200190565b600082601f83011261399257600080fd5b813560206139a26136fe8361395e565b82815260059290921b840181019181810190868411156139c157600080fd5b8286015b848110156139e3576139d6816137de565b83529183019183016139c5565b509695505050505050565b600082601f8301126139ff57600080fd5b81356020613a0f6136fe8361395e565b82815260059290921b84018101918181019086841115613a2e57600080fd5b8286015b848110156139e35780358352918301918301613a32565b600080600060608486031215613a5e57600080fd5b83356001600160401b0380821115613a7557600080fd5b818601915086601f830112613a8957600080fd5b81356020613a996136fe8361395e565b82815260059290921b8401810191818101908a841115613ab857600080fd5b8286015b84811015613af057803586811115613ad45760008081fd5b613ae28d86838b01016136df565b845250918301918301613abc565b5097505087013592505080821115613b0757600080fd5b613b1387838801613981565b93506040860135915080821115613b2957600080fd5b50613b36868287016139ee565b9150509250925092565b60006101206001600160401b038c1683528a602084015263ffffffff8a16604084015260018060a01b038916606084015287608084015260ff871660a08401528560c08401528460e084015280610100840152613b9f81840185613633565b9c9b505050505050505050505050565b60008060208385031215613bc257600080fd5b82356001600160401b0380821115613bd957600080fd5b818501915085601f830112613bed57600080fd5b813581811115613bfc57600080fd5b8660208260051b8501011115613c1157600080fd5b60209290920196919550909350505050565b60008060408385031215613c3657600080fd5b8235613c4181613735565b915060208301356001600160401b03811115613c5c57600080fd5b613c68858286016136df565b9150509250929050565b6020808252825182820181905260009190848201906040850190845b81811015613cb35783516001600160401b031683529284019291840191600101613c8e565b50909695505050505050565b60208152613cd96020820183516001600160401b03169052565b6020820151604082015260006040830151613cfc606084018263ffffffff169052565b5060608301516001600160a01b038116608084015250608083015160a083015260a0830151613d3060c084018260ff169052565b5060c083015160e0838101919091528301516101008084019190915283015161012080840152612e4d610140840182613633565b60008060008060808587031215613d7a57600080fd5b8435935060208501359250613d91604086016137de565b915060608501356001600160401b03811115613dac57600080fd5b613db8878288016136df565b91505092959194509250565b600060208284031215613dd657600080fd5b6110a4826137de565b600081518084526020808501808196508360051b8101915082860160005b85811015613e27578284038952613e15848351613633565b98850198935090840190600101613dfd565b5091979650505050505050565b6020815260006110a46020830184613ddf565b60008060408385031215613e5a57600080fd5b8235915060208301356001600160401b03811115613c5c57600080fd5b600060208284031215613e8957600080fd5b5051919050565b600181811c90821680613ea457607f821691505b602082108103613ec457634e487b7160e01b600052602260045260246000fd5b50919050565b600060208284031215613edc57600080fd5b815180151581146110a457600080fd5b634e487b7160e01b600052601160045260246000fd5b80820180821115613f1557613f15613eec565b92915050565b604081526000613f2e6040830185613633565b8281036020840152613f408185613633565b95945050505050565b600060018201613f5b57613f5b613eec565b5060010190565b8183823760009101908152919050565b60608152600d60608201526c195e1d195c9b985b17d8d85b1b609a1b608082015260a060208201528260a0820152828460c0830137600060c08483010152600060c0601f19601f8601168301019050826040830152949350505050565b60008251613fe181846020870161360f565b9190910192915050565b601f82111561197f57600081815260208120601f850160051c810160208610156140125750805b601f850160051c820191505b818110156140315782815560010161401e565b505050505050565b81516001600160401b0381111561405257614052613672565b614066816140608454613e90565b84613feb565b602080601f83116001811461409b57600084156140835750858301515b600019600386901b1c1916600185901b178555614031565b600085815260208120601f198616915b828110156140ca578886015182559484019460019091019084016140ab565b50858210156140e85787850151600019600388901b60f8161c191681555b5050505050600190811b01905550565b634e487b7160e01b600052603260045260246000fd5b6060815260006141216060830186613ddf565b82810360208481019190915285518083528682019282019060005b818110156141615784516001600160a01b03168352938301939183019160010161413c565b50508481036040860152855180825290820192508186019060005b818110156141985782518552938301939183019160010161417c565b509298975050505050505050565b6000808335601e198436030181126141bd57600080fd5b8301803591506001600160401b038211156141d757600080fd5b6020019150368190038213156141ec57600080fd5b9250929050565b60006020828403121561420557600080fd5b81516001600160401b0381111561421b57600080fd5b8201601f8101841361422c57600080fd5b805161423a6136fe826136b8565b81815285602083850101111561424f57600080fd5b613f4082602083016020860161360f565b60608152600d60608201526c62617463685f6578656375746560981b608082015260a06020820152600061429760a0830185613633565b90508260408301529392505050565b6040815260006142b96040830185613633565b90508260208301529392505050565b81810381811115613f1557613f15613eec565b600081546142e881613e90565b60018281168015614300576001811461431557614344565b60ff1984168752821515830287019450614344565b8560005260208060002060005b8581101561433b5781548a820152908401908201614322565b50505082870194505b5050505092915050565b60006110a482846142db565b60006020828403121561436c57600080fd5b81516110a481613735565b85815263ffffffff851660208201526001600160a01b038416604082015260a0606082018190526000906143ad90830185613633565b90508260808301529695505050505050565b8381526060602082015260006143d86060830185613633565b9050826040830152949350505050565b8181036143f3575050565b6143fd8254613e90565b6001600160401b0381111561441457614414613672565b614422816140608454613e90565b6000601f821160018114614456576000831561443e5750848201545b600019600385901b1c1916600184901b1784556144bb565b600085815260209020601f19841690600086815260209020845b838110156144905782860154825560019586019590910190602001614470565b50858310156144ae5781850154600019600388901b60f8161c191681555b50505060018360011b0184555b5050505050565b634e487b7160e01b600052603160045260246000fdfea2646970667358221220e7634ea49a9d81c98b89f923c0cc14911b7761f576c406f1feb6c2f363b240f264736f6c63430008140033a2646970667358221220afcf9a8d79ed62e0a9b93f6fe299038c03dacbd4dc780dc611fc9c44126f887e64736f6c63430008140033",
  "devdoc": {
    "details": "Uses CREATE2 for predictable wallet addresses across chains",
    "errors": {
      "OwnableInvalidOwner(address)": [
        {
          "details": "The owner is not a valid owner account. (eg. `address(0)`)"
        }
      ],
      "OwnableUnauthorizedAccount(address)": [
        {
          "details": "The caller account is not authorized to perform an operation."
        }
      ]
    },
    "kind": "dev",
    "methods": {
      "constructor": {
        "params": {
          "_backendCoordinator": "Address of the backend coordinator",
          "_owner": "Address of the contract owner",
          "_usdcAddress": "Address of the USDC token for this chain"
        }
      },
      "createWallet(address)": {
        "params": {
          "user": "Address of the user"
        },
        "returns": {
          "wallet": "Address of the created smart wallet"
        }
      },
      "createWalletsBatch(address[])": {
        "params": {
          "users": "Array of user addresses"
        },
        "returns": {
          "wallets": "Array of created wallet addresses"
        }
      },
      "disableWallet(address)": {
        "details": "Only owner can call this function",
        "params": {
          "wallet": "Address of the wallet to disable"
        }
      },
      "getTotalWallets()": {
        "returns": {
          "count": "Total wallet count"
        }
      },
      "getUserForAgent(address)": {
        "params": {
          "agentWallet": "Address of the agent wallet"
        },
        "returns": {
          "user": "Address of the user who owns this agent wallet"
        }
      },
      "getWallet(address)": {
        "params": {
          "user": "Address of the user"
        },
        "returns": {
          "wallet": "Address of the user's smart wallet (0x0 if doesn't exist)"
        }
      },
      "getWalletBytecodeHash()": {
        "returns": {
          "hash": "The bytecode hash"
        }
      },
      "getWalletOwner(address)": {
        "params": {
          "wallet": "Address of the smart wallet"
        },
        "returns": {
          "owner": "Address of the wallet owner"
        }
      },
      "hasWallet(address)": {
        "params": {
          "user": "Address of the user"
        },
        "returns": {
          "exists": "True if wallet exists"
        }
      },
      "isWalletValid(address)": {
        "params": {
          "wallet": "Address to check"
        },
        "returns": {
          "valid": "True if it's a valid wallet"
        }
      },
      "owner()": {
        "details": "Returns the address of the current owner."
      },
      "predictWalletAddress(address)": {
        "params": {
          "user": "Address of the user"
        },
        "returns": {
          "predictedAddress": "The predicted wallet address"
        }
      },
      "renounceOwnership()": {
        "details": "Leaves the contract without owner. It will not be possible to call `onlyOwner` functions. Can only be called by the current owner. NOTE: Renouncing ownership will leave the contract without an owner, thereby disabling any functionality that is only available to the owner."
      },
      "transferOwnership(address)": {
        "details": "Transfers ownership of the contract to a new account (`newOwner`). Can only be called by the current owner."
      },
      "version()": {
        "returns": {
          "_0": "version The contract version"
        }
      }
    },
    "title": "SmartWalletFactory",
    "version": 1
  },
  "userdoc": {
    "kind": "user",
    "methods": {
      "constructor": {
        "notice": "Constructor"
      },
      "createWallet(address)": {
        "notice": "Create a smart wallet for a user"
      },
      "createWalletsBatch(address[])": {
        "notice": "Create smart wallet for multiple users in batch"
      },
      "disableWallet(address)": {
        "notice": "Emergency function to disable a compromised wallet"
      },
      "getTotalWallets()": {
        "notice": "Get total number of wallets created"
      },
      "getUserForAgent(address)": {
        "notice": "Get the user address for a given agent wallet"
      },
      "getWallet(address)": {
        "notice": "Get the smart wallet address for a user"
      },
      "getWalletBytecodeHash()": {
        "notice": "Get wallet creation bytecode hash (for verification)"
      },
      "getWalletOwner(address)": {
        "notice": "Get the owner of a smart wallet"
      },
      "hasWallet(address)": {
        "notice": "Check if a wallet exists for a user"
      },
      "isWalletValid(address)": {
        "notice": "Check if an address is a valid smart wallet created by this factory"
      },
      "predictWalletAddress(address)": {
        "notice": "Predict the smart wallet address for a user (before creation)"
      },
      "version()": {
        "notice": "Get contract version"
      }
    },
    "notice": "Factory contract for creating deterministic user smart wallets",
    "version": 1
  },
  "storageLayout": {
    "storage": [
      {
        "astId": 976,
        "contract": "contracts/SmartWalletFactory.sol:SmartWalletFactory",
        "label": "_owner",
        "offset": 0,
        "slot": "0",
        "type": "t_address"
      },
      {
        "astId": 2856,
        "contract": "contracts/SmartWalletFactory.sol:SmartWalletFactory",
        "label": "userWallets",
        "offset": 0,
        "slot": "1",
        "type": "t_mapping(t_address,t_address)"
      },
      {
        "astId": 2860,
        "contract": "contracts/SmartWalletFactory.sol:SmartWalletFactory",
        "label": "isValidWallet",
        "offset": 0,
        "slot": "2",
        "type": "t_mapping(t_address,t_bool)"
      },
      {
        "astId": 2864,
        "contract": "contracts/SmartWalletFactory.sol:SmartWalletFactory",
        "label": "agentToUser",
        "offset": 0,
        "slot": "3",
        "type": "t_mapping(t_address,t_address)"
      }
    ],
    "types": {
      "t_address": {
        "encoding": "inplace",
        "label": "address",
        "numberOfBytes": "20"
      },
      "t_bool": {
        "encoding": "inplace",
        "label": "bool",
        "numberOfBytes": "1"
      },
      "t_mapping(t_address,t_address)": {
        "encoding": "mapping",
        "key": "t_address",
        "label": "mapping(address => address)",
        "numberOfBytes": "32",
        "value": "t_address"
      },
      "t_mapping(t_address,t_bool)": {
        "encoding": "mapping",
        "key": "t_address",
        "label": "mapping(address => bool)",
        "numberOfBytes": "32",
        "value": "t_bool"
      }
    }
  }
}