{
  "address": "0x105bfdA57Ece4c01e116B60978CC669E6608FbAb",
  "abi": [
    {
      "inputs": [],
      "name": "AccessControlBadConfirmation",
      "type": "error"
    },
    {
      "inputs": [
        {
          "internalType": "address",
          "name": "account",
          "type": "address"
        },
        {
          "internalType": "bytes32",
          "name": "neededRole",
          "type": "bytes32"
        }
      ],
      "name": "AccessControlUnauthorizedAccount",
      "type": "error"
    },
    {
      "inputs": [
        {
          "internalType": "address",
          "name": "target",
          "type": "address"
        }
      ],
      "name": "AddressEmptyCode",
      "type": "error"
    },
    {
      "inputs": [
        {
          "internalType": "address",
          "name": "implementation",
          "type": "address"
        }
      ],
      "name": "ERC1967InvalidImplementation",
      "type": "error"
    },
    {
      "inputs": [],
      "name": "ERC1967NonPayable",
      "type": "error"
    },
    {
      "inputs": [],
      "name": "FailedInnerCall",
      "type": "error"
    },
    {
      "inputs": [],
      "name": "InvalidInitialization",
      "type": "error"
    },
    {
      "inputs": [],
      "name": "NotInitializing",
      "type": "error"
    },
    {
      "inputs": [],
      "name": "UUPSUnauthorizedCallContext",
      "type": "error"
    },
    {
      "inputs": [
        {
          "internalType": "bytes32",
          "name": "slot",
          "type": "bytes32"
        }
      ],
      "name": "UUPSUnsupportedProxiableUUID",
      "type": "error"
    },
    {
      "anonymous": false,
      "inputs": [
        {
          "indexed": true,
          "internalType": "address",
          "name": "user",
          "type": "address"
        },
        {
          "indexed": false,
          "internalType": "string",
          "name": "protocol",
          "type": "string"
        },
        {
          "indexed": false,
          "internalType": "uint256",
          "name": "chainId",
          "type": "uint256"
        },
        {
          "indexed": false,
          "internalType": "uint256",
          "name": "amount",
          "type": "uint256"
        },
        {
          "indexed": false,
          "internalType": "uint256",
          "name": "timestamp",
          "type": "uint256"
        }
      ],
      "name": "AllocationReported",
      "type": "event"
    },
    {
      "anonymous": false,
      "inputs": [
        {
          "indexed": false,
          "internalType": "uint64",
          "name": "version",
          "type": "uint64"
        }
      ],
      "name": "Initialized",
      "type": "event"
    },
    {
      "anonymous": false,
      "inputs": [
        {
          "indexed": true,
          "internalType": "address",
          "name": "user",
          "type": "address"
        },
        {
          "indexed": false,
          "internalType": "uint256",
          "name": "strategyId",
          "type": "uint256"
        },
        {
          "indexed": false,
          "internalType": "uint256",
          "name": "expectedAPY",
          "type": "uint256"
        },
        {
          "indexed": false,
          "internalType": "uint256",
          "name": "actualCost",
          "type": "uint256"
        }
      ],
      "name": "OptimizationCompleted",
      "type": "event"
    },
    {
      "anonymous": false,
      "inputs": [
        {
          "indexed": true,
          "internalType": "address",
          "name": "user",
          "type": "address"
        },
        {
          "indexed": false,
          "internalType": "uint256",
          "name": "amount",
          "type": "uint256"
        },
        {
          "indexed": false,
          "internalType": "string",
          "name": "strategy",
          "type": "string"
        },
        {
          "indexed": false,
          "internalType": "uint256",
          "name": "timestamp",
          "type": "uint256"
        }
      ],
      "name": "OptimizationRequested",
      "type": "event"
    },
    {
      "anonymous": false,
      "inputs": [
        {
          "indexed": true,
          "internalType": "address",
          "name": "user",
          "type": "address"
        },
        {
          "indexed": false,
          "internalType": "uint256",
          "name": "totalValue",
          "type": "uint256"
        },
        {
          "indexed": false,
          "internalType": "uint256",
          "name": "protocolCount",
          "type": "uint256"
        },
        {
          "indexed": false,
          "internalType": "uint256",
          "name": "timestamp",
          "type": "uint256"
        }
      ],
      "name": "PortfolioUpdated",
      "type": "event"
    },
    {
      "anonymous": false,
      "inputs": [
        {
          "indexed": true,
          "internalType": "address",
          "name": "user",
          "type": "address"
        },
        {
          "indexed": false,
          "internalType": "uint256",
          "name": "oldValue",
          "type": "uint256"
        },
        {
          "indexed": false,
          "internalType": "uint256",
          "name": "newValue",
          "type": "uint256"
        },
        {
          "indexed": false,
          "internalType": "uint256",
          "name": "improvement",
          "type": "uint256"
        }
      ],
      "name": "RebalanceExecuted",
      "type": "event"
    },
    {
      "anonymous": false,
      "inputs": [
        {
          "indexed": true,
          "internalType": "bytes32",
          "name": "role",
          "type": "bytes32"
        },
        {
          "indexed": true,
          "internalType": "bytes32",
          "name": "previousAdminRole",
          "type": "bytes32"
        },
        {
          "indexed": true,
          "internalType": "bytes32",
          "name": "newAdminRole",
          "type": "bytes32"
        }
      ],
      "name": "RoleAdminChanged",
      "type": "event"
    },
    {
      "anonymous": false,
      "inputs": [
        {
          "indexed": true,
          "internalType": "bytes32",
          "name": "role",
          "type": "bytes32"
        },
        {
          "indexed": true,
          "internalType": "address",
          "name": "account",
          "type": "address"
        },
        {
          "indexed": true,
          "internalType": "address",
          "name": "sender",
          "type": "address"
        }
      ],
      "name": "RoleGranted",
      "type": "event"
    },
    {
      "anonymous": false,
      "inputs": [
        {
          "indexed": true,
          "internalType": "bytes32",
          "name": "role",
          "type": "bytes32"
        },
        {
          "indexed": true,
          "internalType": "address",
          "name": "account",
          "type": "address"
        },
        {
          "indexed": true,
          "internalType": "address",
          "name": "sender",
          "type": "address"
        }
      ],
      "name": "RoleRevoked",
      "type": "event"
    },
    {
      "anonymous": false,
      "inputs": [
        {
          "indexed": true,
          "internalType": "address",
          "name": "user",
          "type": "address"
        },
        {
          "indexed": true,
          "internalType": "address",
          "name": "smartWallet",
          "type": "address"
        }
      ],
      "name": "SmartWalletLinked",
      "type": "event"
    },
    {
      "anonymous": false,
      "inputs": [
        {
          "indexed": true,
          "internalType": "address",
          "name": "user",
          "type": "address"
        },
        {
          "indexed": false,
          "internalType": "string",
          "name": "newStrategy",
          "type": "string"
        }
      ],
      "name": "StrategyPreferenceUpdated",
      "type": "event"
    },
    {
      "anonymous": false,
      "inputs": [
        {
          "indexed": true,
          "internalType": "address",
          "name": "implementation",
          "type": "address"
        }
      ],
      "name": "Upgraded",
      "type": "event"
    },
    {
      "inputs": [],
      "name": "AI_BACKEND_ROLE",
      "outputs": [
        {
          "internalType": "bytes32",
          "name": "",
          "type": "bytes32"
        }
      ],
      "stateMutability": "view",
      "type": "function"
    },
    {
      "inputs": [],
      "name": "ANALYTICS_ROLE",
      "outputs": [
        {
          "internalType": "bytes32",
          "name": "",
          "type": "bytes32"
        }
      ],
      "stateMutability": "view",
      "type": "function"
    },
    {
      "inputs": [],
      "name": "DEFAULT_ADMIN_ROLE",
      "outputs": [
        {
          "internalType": "bytes32",
          "name": "",
          "type": "bytes32"
        }
      ],
      "stateMutability": "view",
      "type": "function"
    },
    {
      "inputs": [],
      "name": "UPGRADE_INTERFACE_VERSION",
      "outputs": [
        {
          "internalType": "string",
          "name": "",
          "type": "string"
        }
      ],
      "stateMutability": "view",
      "type": "function"
    },
    {
      "inputs": [
        {
          "internalType": "address",
          "name": "user",
          "type": "address"
        }
      ],
      "name": "getOptimizationHistory",
      "outputs": [
        {
          "components": [
            {
              "internalType": "uint256",
              "name": "timestamp",
              "type": "uint256"
            },
            {
              "internalType": "uint256",
              "name": "expectedAPY",
              "type": "uint256"
            },
            {
              "internalType": "uint256",
              "name": "actualAPY",
              "type": "uint256"
            },
            {
              "internalType": "string[]",
              "name": "protocols",
              "type": "string[]"
            },
            {
              "internalType": "uint256[]",
              "name": "chainIds",
              "type": "uint256[]"
            },
            {
              "internalType": "uint256[]",
              "name": "allocations",
              "type": "uint256[]"
            },
            {
              "internalType": "uint256",
              "name": "gasCost",
              "type": "uint256"
            },
            {
              "internalType": "uint256",
              "name": "transferCost",
              "type": "uint256"
            },
            {
              "internalType": "bool",
              "name": "success",
              "type": "bool"
            },
            {
              "internalType": "string",
              "name": "strategy",
              "type": "string"
            }
          ],
          "internalType": "struct YieldRouter.OptimizationHistory",
          "name": "history",
          "type": "tuple"
        }
      ],
      "stateMutability": "view",
      "type": "function"
    },
    {
      "inputs": [],
      "name": "getPlatformStats",
      "outputs": [
        {
          "internalType": "uint256",
          "name": "totalOptimizations_",
          "type": "uint256"
        },
        {
          "internalType": "uint256",
          "name": "totalUsers_",
          "type": "uint256"
        },
        {
          "internalType": "uint256",
          "name": "averagePortfolioSize",
          "type": "uint256"
        }
      ],
      "stateMutability": "view",
      "type": "function"
    },
    {
      "inputs": [
        {
          "internalType": "bytes32",
          "name": "role",
          "type": "bytes32"
        }
      ],
      "name": "getRoleAdmin",
      "outputs": [
        {
          "internalType": "bytes32",
          "name": "",
          "type": "bytes32"
        }
      ],
      "stateMutability": "view",
      "type": "function"
    },
    {
      "inputs": [
        {
          "internalType": "address",
          "name": "user",
          "type": "address"
        },
        {
          "internalType": "uint256",
          "name": "chainId",
          "type": "uint256"
        }
      ],
      "name": "getUserChainBalance",
      "outputs": [
        {
          "internalType": "uint256",
          "name": "balance",
          "type": "uint256"
        }
      ],
      "stateMutability": "view",
      "type": "function"
    },
    {
      "inputs": [
        {
          "internalType": "address",
          "name": "user",
          "type": "address"
        }
      ],
      "name": "getUserPortfolio",
      "outputs": [
        {
          "components": [
            {
              "internalType": "uint256",
              "name": "totalValue",
              "type": "uint256"
            },
            {
              "internalType": "uint256",
              "name": "lastOptimization",
              "type": "uint256"
            },
            {
              "internalType": "uint256",
              "name": "optimizationCount",
              "type": "uint256"
            },
            {
              "internalType": "uint256",
              "name": "totalDeposited",
              "type": "uint256"
            },
            {
              "internalType": "uint256",
              "name": "totalWithdrawn",
              "type": "uint256"
            },
            {
              "internalType": "string",
              "name": "currentStrategy",
              "type": "string"
            },
            {
              "internalType": "address",
              "name": "smartWallet",
              "type": "address"
            }
          ],
          "internalType": "struct YieldRouter.UserPortfolio",
          "name": "portfolio",
          "type": "tuple"
        }
      ],
      "stateMutability": "view",
      "type": "function"
    },
    {
      "inputs": [
        {
          "internalType": "address",
          "name": "user",
          "type": "address"
        },
        {
          "internalType": "string",
          "name": "protocol",
          "type": "string"
        }
      ],
      "name": "getUserProtocolBalance",
      "outputs": [
        {
          "internalType": "uint256",
          "name": "balance",
          "type": "uint256"
        }
      ],
      "stateMutability": "view",
      "type": "function"
    },
    {
      "inputs": [
        {
          "internalType": "address",
          "name": "user",
          "type": "address"
        }
      ],
      "name": "getUserSmartWallet",
      "outputs": [
        {
          "internalType": "address",
          "name": "smartWallet",
          "type": "address"
        }
      ],
      "stateMutability": "view",
      "type": "function"
    },
    {
      "inputs": [
        {
          "internalType": "address",
          "name": "user",
          "type": "address"
        }
      ],
      "name": "getUserStrategyPreferences",
      "outputs": [
        {
          "components": [
            {
              "internalType": "string",
              "name": "riskTolerance",
              "type": "string"
            },
            {
              "internalType": "uint256",
              "name": "preferredChains",
              "type": "uint256"
            },
            {
              "internalType": "uint256",
              "name": "maxProtocolAllocation",
              "type": "uint256"
            },
            {
              "internalType": "uint256",
              "name": "rebalanceThreshold",
              "type": "uint256"
            },
            {
              "internalType": "bool",
              "name": "autoRebalanceEnabled",
              "type": "bool"
            }
          ],
          "internalType": "struct YieldRouter.StrategyPreference",
          "name": "preferences",
          "type": "tuple"
        }
      ],
      "stateMutability": "view",
      "type": "function"
    },
    {
      "inputs": [
        {
          "internalType": "address",
          "name": "backend",
          "type": "address"
        }
      ],
      "name": "grantBackendRole",
      "outputs": [],
      "stateMutability": "nonpayable",
      "type": "function"
    },
    {
      "inputs": [
        {
          "internalType": "bytes32",
          "name": "role",
          "type": "bytes32"
        },
        {
          "internalType": "address",
          "name": "account",
          "type": "address"
        }
      ],
      "name": "grantRole",
      "outputs": [],
      "stateMutability": "nonpayable",
      "type": "function"
    },
    {
      "inputs": [
        {
          "internalType": "bytes32",
          "name": "role",
          "type": "bytes32"
        },
        {
          "internalType": "address",
          "name": "account",
          "type": "address"
        }
      ],
      "name": "hasRole",
      "outputs": [
        {
          "internalType": "bool",
          "name": "",
          "type": "bool"
        }
      ],
      "stateMutability": "view",
      "type": "function"
    },
    {
      "inputs": [
        {
          "internalType": "address",
          "name": "user",
          "type": "address"
        }
      ],
      "name": "hasSmartWallet",
      "outputs": [
        {
          "internalType": "bool",
          "name": "hasWallet",
          "type": "bool"
        },
        {
          "internalType": "address",
          "name": "walletAddress",
          "type": "address"
        }
      ],
      "stateMutability": "view",
      "type": "function"
    },
    {
      "inputs": [
        {
          "internalType": "address",
          "name": "_registry",
          "type": "address"
        },
        {
          "internalType": "address",
          "name": "_walletFactory",
          "type": "address"
        },
        {
          "internalType": "address",
          "name": "admin",
          "type": "address"
        }
      ],
      "name": "initialize",
      "outputs": [],
      "stateMutability": "nonpayable",
      "type": "function"
    },
    {
      "inputs": [
        {
          "internalType": "address",
          "name": "user",
          "type": "address"
        },
        {
          "internalType": "address",
          "name": "smartWallet",
          "type": "address"
        }
      ],
      "name": "linkSmartWallet",
      "outputs": [],
      "stateMutability": "nonpayable",
      "type": "function"
    },
    {
      "inputs": [
        {
          "internalType": "address",
          "name": "",
          "type": "address"
        }
      ],
      "name": "optimizationHistory",
      "outputs": [
        {
          "internalType": "uint256",
          "name": "timestamp",
          "type": "uint256"
        },
        {
          "internalType": "uint256",
          "name": "expectedAPY",
          "type": "uint256"
        },
        {
          "internalType": "uint256",
          "name": "actualAPY",
          "type": "uint256"
        },
        {
          "internalType": "uint256",
          "name": "gasCost",
          "type": "uint256"
        },
        {
          "internalType": "uint256",
          "name": "transferCost",
          "type": "uint256"
        },
        {
          "internalType": "bool",
          "name": "success",
          "type": "bool"
        },
        {
          "internalType": "string",
          "name": "strategy",
          "type": "string"
        }
      ],
      "stateMutability": "view",
      "type": "function"
    },
    {
      "inputs": [],
      "name": "proxiableUUID",
      "outputs": [
        {
          "internalType": "bytes32",
          "name": "",
          "type": "bytes32"
        }
      ],
      "stateMutability": "view",
      "type": "function"
    },
    {
      "inputs": [],
      "name": "registry",
      "outputs": [
        {
          "internalType": "contract ChainRegistry",
          "name": "",
          "type": "address"
        }
      ],
      "stateMutability": "view",
      "type": "function"
    },
    {
      "inputs": [
        {
          "internalType": "bytes32",
          "name": "role",
          "type": "bytes32"
        },
        {
          "internalType": "address",
          "name": "callerConfirmation",
          "type": "address"
        }
      ],
      "name": "renounceRole",
      "outputs": [],
      "stateMutability": "nonpayable",
      "type": "function"
    },
    {
      "inputs": [
        {
          "internalType": "address",
          "name": "user",
          "type": "address"
        },
        {
          "internalType": "string",
          "name": "protocol",
          "type": "string"
        },
        {
          "internalType": "uint256",
          "name": "chainId",
          "type": "uint256"
        },
        {
          "internalType": "uint256",
          "name": "amount",
          "type": "uint256"
        }
      ],
      "name": "reportAllocation",
      "outputs": [],
      "stateMutability": "nonpayable",
      "type": "function"
    },
    {
      "inputs": [
        {
          "internalType": "address",
          "name": "user",
          "type": "address"
        },
        {
          "internalType": "uint256",
          "name": "expectedAPY",
          "type": "uint256"
        },
        {
          "internalType": "string[]",
          "name": "protocols",
          "type": "string[]"
        },
        {
          "internalType": "uint256[]",
          "name": "chainIds",
          "type": "uint256[]"
        },
        {
          "internalType": "uint256[]",
          "name": "allocations",
          "type": "uint256[]"
        },
        {
          "internalType": "uint256",
          "name": "totalCost",
          "type": "uint256"
        }
      ],
      "name": "reportOptimizationComplete",
      "outputs": [],
      "stateMutability": "nonpayable",
      "type": "function"
    },
    {
      "inputs": [
        {
          "internalType": "address",
          "name": "user",
          "type": "address"
        },
        {
          "internalType": "uint256",
          "name": "amount",
          "type": "uint256"
        },
        {
          "internalType": "string",
          "name": "strategy",
          "type": "string"
        }
      ],
      "name": "requestOptimization",
      "outputs": [],
      "stateMutability": "nonpayable",
      "type": "function"
    },
    {
      "inputs": [
        {
          "internalType": "address",
          "name": "backend",
          "type": "address"
        }
      ],
      "name": "revokeBackendRole",
      "outputs": [],
      "stateMutability": "nonpayable",
      "type": "function"
    },
    {
      "inputs": [
        {
          "internalType": "bytes32",
          "name": "role",
          "type": "bytes32"
        },
        {
          "internalType": "address",
          "name": "account",
          "type": "address"
        }
      ],
      "name": "revokeRole",
      "outputs": [],
      "stateMutability": "nonpayable",
      "type": "function"
    },
    {
      "inputs": [
        {
          "internalType": "address",
          "name": "user",
          "type": "address"
        },
        {
          "internalType": "string",
          "name": "strategy",
          "type": "string"
        },
        {
          "components": [
            {
              "internalType": "string",
              "name": "riskTolerance",
              "type": "string"
            },
            {
              "internalType": "uint256",
              "name": "preferredChains",
              "type": "uint256"
            },
            {
              "internalType": "uint256",
              "name": "maxProtocolAllocation",
              "type": "uint256"
            },
            {
              "internalType": "uint256",
              "name": "rebalanceThreshold",
              "type": "uint256"
            },
            {
              "internalType": "bool",
              "name": "autoRebalanceEnabled",
              "type": "bool"
            }
          ],
          "internalType": "struct YieldRouter.StrategyPreference",
          "name": "preferences",
          "type": "tuple"
        }
      ],
      "name": "setStrategyPreference",
      "outputs": [],
      "stateMutability": "nonpayable",
      "type": "function"
    },
    {
      "inputs": [
        {
          "internalType": "bytes4",
          "name": "interfaceId",
          "type": "bytes4"
        }
      ],
      "name": "supportsInterface",
      "outputs": [
        {
          "internalType": "bool",
          "name": "",
          "type": "bool"
        }
      ],
      "stateMutability": "view",
      "type": "function"
    },
    {
      "inputs": [],
      "name": "totalOptimizations",
      "outputs": [
        {
          "internalType": "uint256",
          "name": "",
          "type": "uint256"
        }
      ],
      "stateMutability": "view",
      "type": "function"
    },
    {
      "inputs": [],
      "name": "totalUsers",
      "outputs": [
        {
          "internalType": "uint256",
          "name": "",
          "type": "uint256"
        }
      ],
      "stateMutability": "view",
      "type": "function"
    },
    {
      "inputs": [
        {
          "internalType": "address",
          "name": "user",
          "type": "address"
        },
        {
          "internalType": "uint256",
          "name": "actualAPY",
          "type": "uint256"
        }
      ],
      "name": "updateActualAPY",
      "outputs": [],
      "stateMutability": "nonpayable",
      "type": "function"
    },
    {
      "inputs": [
        {
          "internalType": "address",
          "name": "newRegistry",
          "type": "address"
        },
        {
          "internalType": "address",
          "name": "newWalletFactory",
          "type": "address"
        }
      ],
      "name": "updateContracts",
      "outputs": [],
      "stateMutability": "nonpayable",
      "type": "function"
    },
    {
      "inputs": [
        {
          "internalType": "address",
          "name": "user",
          "type": "address"
        },
        {
          "internalType": "uint256",
          "name": "newTotalValue",
          "type": "uint256"
        },
        {
          "internalType": "uint256",
          "name": "protocolCount",
          "type": "uint256"
        }
      ],
      "name": "updatePortfolioValue",
      "outputs": [],
      "stateMutability": "nonpayable",
      "type": "function"
    },
    {
      "inputs": [
        {
          "internalType": "address",
          "name": "newImplementation",
          "type": "address"
        },
        {
          "internalType": "bytes",
          "name": "data",
          "type": "bytes"
        }
      ],
      "name": "upgradeToAndCall",
      "outputs": [],
      "stateMutability": "payable",
      "type": "function"
    },
    {
      "inputs": [
        {
          "internalType": "address",
          "name": "",
          "type": "address"
        },
        {
          "internalType": "uint256",
          "name": "",
          "type": "uint256"
        }
      ],
      "name": "userChainBalances",
      "outputs": [
        {
          "internalType": "uint256",
          "name": "",
          "type": "uint256"
        }
      ],
      "stateMutability": "view",
      "type": "function"
    },
    {
      "inputs": [
        {
          "internalType": "address",
          "name": "",
          "type": "address"
        }
      ],
      "name": "userPortfolios",
      "outputs": [
        {
          "internalType": "uint256",
          "name": "totalValue",
          "type": "uint256"
        },
        {
          "internalType": "uint256",
          "name": "lastOptimization",
          "type": "uint256"
        },
        {
          "internalType": "uint256",
          "name": "optimizationCount",
          "type": "uint256"
        },
        {
          "internalType": "uint256",
          "name": "totalDeposited",
          "type": "uint256"
        },
        {
          "internalType": "uint256",
          "name": "totalWithdrawn",
          "type": "uint256"
        },
        {
          "internalType": "string",
          "name": "currentStrategy",
          "type": "string"
        },
        {
          "internalType": "address",
          "name": "smartWallet",
          "type": "address"
        }
      ],
      "stateMutability": "view",
      "type": "function"
    },
    {
      "inputs": [
        {
          "internalType": "address",
          "name": "",
          "type": "address"
        },
        {
          "internalType": "string",
          "name": "",
          "type": "string"
        }
      ],
      "name": "userProtocolBalances",
      "outputs": [
        {
          "internalType": "uint256",
          "name": "",
          "type": "uint256"
        }
      ],
      "stateMutability": "view",
      "type": "function"
    },
    {
      "inputs": [
        {
          "internalType": "address",
          "name": "",
          "type": "address"
        }
      ],
      "name": "userStrategies",
      "outputs": [
        {
          "internalType": "string",
          "name": "riskTolerance",
          "type": "string"
        },
        {
          "internalType": "uint256",
          "name": "preferredChains",
          "type": "uint256"
        },
        {
          "internalType": "uint256",
          "name": "maxProtocolAllocation",
          "type": "uint256"
        },
        {
          "internalType": "uint256",
          "name": "rebalanceThreshold",
          "type": "uint256"
        },
        {
          "internalType": "bool",
          "name": "autoRebalanceEnabled",
          "type": "bool"
        }
      ],
      "stateMutability": "view",
      "type": "function"
    },
    {
      "inputs": [],
      "name": "version",
      "outputs": [
        {
          "internalType": "string",
          "name": "",
          "type": "string"
        }
      ],
      "stateMutability": "pure",
      "type": "function"
    },
    {
      "inputs": [],
      "name": "walletFactory",
      "outputs": [
        {
          "internalType": "contract SmartWalletFactory",
          "name": "",
          "type": "address"
        }
      ],
      "stateMutability": "view",
      "type": "function"
    }
  ],
  "transactionHash": "0xf0c2d640c23fc76efc9aec1fdd642ca167a69d525037c873f4cee581aaeb6169",
  "args": [],
  "numDeployments": 1,
  "solcInputHash": "44980de99fe5e3da10a5960b71b30e10",
  "bytecode": "0x60a06040523060805234801561001457600080fd5b506080516130ac61003e60003960008181611ec001528181611ee9015261202f01526130ac6000f3fe6080604052600436106102465760003560e01c80638687292611610139578063bff1f9e1116100b6578063d547741f1161007a578063d547741f146107c2578063dd3f29db146107e2578063e692c49f14610802578063e6df3d0a14610822578063ebe88f151461084f578063ffdcb76b1461089857600080fd5b8063bff1f9e11461072c578063c0c53b8b14610742578063c226ad9714610762578063c397c5b614610782578063c5c03699146107a257600080fd5b8063a8862d86116100fd578063a8862d8614610666578063aaca0af114610688578063ac21538a146106a8578063ad3cb1cc146106c8578063b61920c1146106f957600080fd5b806386872926146105a257806391d14854146105de57806394660c4b146105fe578063a217fddf14610631578063a844b1571461064657600080fd5b80634f1ef286116101c75780635d9664bf1161018b5780635d9664bf146104a9578063773d05c6146104c95780637b103999146104df57806382009b7a1461051757806383bc12dc1461057557600080fd5b80634f1ef2861461040a57806352d1902d1461041d57806352ed19fe1461043257806354fd4d501461045257806358385b221461048957600080fd5b8063248a9ca31161020e578063248a9ca3146103415780632f2ff15d1461036157806331be49b21461038157806336568abe146103b9578063487bb965146103d957600080fd5b806301ffc9a71461024b578063136d88831461028057806318d68f3b146102b05780631abd602b146102d25780631edb27e914610314575b600080fd5b34801561025757600080fd5b5061026b6102663660046123d8565b6108db565b60405190151581526020015b60405180910390f35b34801561028c57600080fd5b50610295610912565b60408051938452602084019290925290820152606001610277565b3480156102bc57600080fd5b506102d06102cb36600461250a565b61093a565b005b3480156102de57600080fd5b506103067f1392683b4fe604b030f727da71b11fe86de118903712aeeae60f8bf8183bbf1b81565b604051908152602001610277565b34801561032057600080fd5b5061033461032f3660046125e3565b610a75565b6040516102779190612650565b34801561034d57600080fd5b5061030661035c3660046126c0565b610bcd565b34801561036d57600080fd5b506102d061037c3660046126d9565b610bef565b34801561038d57600080fd5b5061030661039c366004612709565b600460209081526000928352604080842090915290825290205481565b3480156103c557600080fd5b506102d06103d43660046126d9565b610c11565b3480156103e557600080fd5b506103f96103f43660046125e3565b610c49565b604051610277959493929190612735565b6102d061041836600461276e565b610d03565b34801561042957600080fd5b50610306610d22565b34801561043e57600080fd5b506102d061044d366004612709565b610d3f565b34801561045e57600080fd5b506040805180820190915260058152640322e302e360dc1b60208201525b60405161027791906127d1565b34801561049557600080fd5b506103066104a43660046127e4565b610df8565b3480156104b557600080fd5b506102d06104c4366004612829565b610e35565b3480156104d557600080fd5b5061030660075481565b3480156104eb57600080fd5b506000546104ff906001600160a01b031681565b6040516001600160a01b039091168152602001610277565b34801561052357600080fd5b506105566105323660046125e3565b6001600160a01b039081166000908152600260205260409020600601541680151591565b6040805192151583526001600160a01b03909116602083015201610277565b34801561058157600080fd5b506105956105903660046125e3565b610f21565b6040516102779190612918565b3480156105ae57600080fd5b506104ff6105bd3660046125e3565b6001600160a01b039081166000908152600260205260409020600601541690565b3480156105ea57600080fd5b5061026b6105f93660046126d9565b6111fd565b34801561060a57600080fd5b5061061e6106193660046125e3565b611235565b60405161027797969594939291906129e5565b34801561063d57600080fd5b50610306600081565b34801561065257600080fd5b506102d0610661366004612a2b565b611300565b34801561067257600080fd5b5061030660008051602061301783398151915281565b34801561069457600080fd5b506102d06106a3366004612a60565b611379565b3480156106b457600080fd5b506102d06106c33660046125e3565b61159a565b3480156106d457600080fd5b5061047c604051806040016040528060058152602001640352e302e360dc1b81525081565b34801561070557600080fd5b506107196107143660046125e3565b6115bd565b6040516102779796959493929190612a8e565b34801561073857600080fd5b5061030660085481565b34801561074e57600080fd5b506102d061075d366004612adb565b611690565b34801561076e57600080fd5b506102d061077d3660046125e3565b6117f7565b34801561078e57600080fd5b506102d061079d366004612bb4565b61181a565b3480156107ae57600080fd5b506001546104ff906001600160a01b031681565b3480156107ce57600080fd5b506102d06107dd3660046126d9565b611ac7565b3480156107ee57600080fd5b506102d06107fd366004612cd1565b611ae3565b34801561080e57600080fd5b506102d061081d366004612a60565b611c04565b34801561082e57600080fd5b5061084261083d3660046125e3565b611c6b565b6040516102779190612d29565b34801561085b57600080fd5b5061030661086a3660046127e4565b6003602090815260009283526040909220815180830184018051928152908401929093019190912091525481565b3480156108a457600080fd5b506103066108b3366004612709565b6001600160a01b03919091166000908152600460209081526040808320938352929052205490565b60006001600160e01b03198216637965db0b60e01b148061090c57506301ffc9a760e01b6001600160e01b03198316145b92915050565b600754600854600081610926576000610933565b6008546109339047612d91565b9050909192565b336001600160a01b03841614806109645750610964600080516020613017833981519152336111fd565b6109a45760405162461bcd60e51b815260206004820152600c60248201526b155b985d5d1a1bdc9a5e995960a21b60448201526064015b60405180910390fd5b6001600160a01b0383166000908152600660205260409020815182919081906109cd9082612e3b565b506020828101516001830155604080840151600280850191909155606085015160038501556080909401516004909301805460ff1916931515939093179092556001600160a01b03861660009081529290529020600501610a2e8382612e3b565b50826001600160a01b03167f7fcc3596725990b28eb192f019ac3362a77576806e9dce22838292b616d1a7bf83604051610a6891906127d1565b60405180910390a2505050565b610abe6040518060e0016040528060008152602001600081526020016000815260200160008152602001600081526020016060815260200160006001600160a01b031681525090565b60026000836001600160a01b03166001600160a01b031681526020019081526020016000206040518060e00160405290816000820154815260200160018201548152602001600282015481526020016003820154815260200160048201548152602001600582018054610b3090612db3565b80601f0160208091040260200160405190810160405280929190818152602001828054610b5c90612db3565b8015610ba95780601f10610b7e57610100808354040283529160200191610ba9565b820191906000526020600020905b815481529060010190602001808311610b8c57829003601f168201915b5050509183525050600691909101546001600160a01b031660209091015292915050565b6000908152600080516020613057833981519152602052604090206001015490565b610bf882610bcd565b610c0181611d87565b610c0b8383611d94565b50505050565b6001600160a01b0381163314610c3a5760405163334bd91960e11b815260040160405180910390fd5b610c448282611e39565b505050565b600660205260009081526040902080548190610c6490612db3565b80601f0160208091040260200160405190810160405280929190818152602001828054610c9090612db3565b8015610cdd5780601f10610cb257610100808354040283529160200191610cdd565b820191906000526020600020905b815481529060010190602001808311610cc057829003601f168201915b505050506001830154600284015460038501546004909501549394919390925060ff1685565b610d0b611eb5565b610d1482611f5c565b610d1e8282611f67565b5050565b6000610d2c612024565b5060008051602061303783398151915290565b600080516020613017833981519152610d5781611d87565b6001600160a01b0383166000908152600560205260408120600281018054908590559091818511610d89576000610d93565b610d938286612efa565b6001600160a01b03871660008181526002602090815260409182902054825181815291820152908101839052919250907f7e2f47fc1890fbb3582a024136b81b3806d1bea781c72b8201f6870d357033839060600160405180910390a2505050505050565b6001600160a01b0382166000908152600360205260408082209051610e1e908490612f0d565b908152602001604051809103902054905092915050565b600080516020613017833981519152610e4d81611d87565b6001600160a01b038516600090815260036020526040908190209051839190610e77908790612f0d565b90815260200160405180910390206000828254610e949190612f29565b90915550506001600160a01b038516600090815260046020908152604080832086845290915281208054849290610ecc908490612f29565b92505081905550846001600160a01b03167f7a791567aee14673ac5f5cc49834e9eb5da58cc18281b5cf5dceeb26fb1230db85858542604051610f129493929190612f3c565b60405180910390a25050505050565b610f796040518061014001604052806000815260200160008152602001600081526020016060815260200160608152602001606081526020016000815260200160008152602001600015158152602001606081525090565b6001600160a01b038216600090815260056020908152604080832081516101408101835281548152600182015481850152600282015481840152600382018054845181870281018701909552808552919592946060870194939192919084015b82821015611085578382906000526020600020018054610ff890612db3565b80601f016020809104026020016040519081016040528092919081815260200182805461102490612db3565b80156110715780601f1061104657610100808354040283529160200191611071565b820191906000526020600020905b81548152906001019060200180831161105457829003601f168201915b505050505081526020019060010190610fd9565b505050508152602001600482018054806020026020016040519081016040528092919081815260200182805480156110dc57602002820191906000526020600020905b8154815260200190600101908083116110c8575b505050505081526020016005820180548060200260200160405190810160405280929190818152602001828054801561113457602002820191906000526020600020905b815481526020019060010190808311611120575b50505091835250506006820154602082015260078201546040820152600882015460ff161515606082015260098201805460809092019161117490612db3565b80601f01602080910402602001604051908101604052809291908181526020018280546111a090612db3565b80156111ed5780601f106111c2576101008083540402835291602001916111ed565b820191906000526020600020905b8154815290600101906020018083116111d057829003601f168201915b5050505050815250509050919050565b6000918252600080516020613057833981519152602090815260408084206001600160a01b0393909316845291905290205460ff1690565b60056020526000908152604090208054600182015460028301546006840154600785015460088601546009870180549697959694959394929360ff9092169261127d90612db3565b80601f01602080910402602001604051908101604052809291908181526020018280546112a990612db3565b80156112f65780601f106112cb576101008083540402835291602001916112f6565b820191906000526020600020905b8154815290600101906020018083116112d957829003601f168201915b5050505050905087565b60008051602061301783398151915261131881611d87565b6001600160a01b0384166000818152600260209081526040918290208690558151868152908101859052428183015290517f4ed6952fda1529c4c02b1b9a29e52bb4c691c9cfa4b5d36b9a7b38c67a3215169181900360600190a250505050565b60008051602061301783398151915261139181611d87565b60015460405163ba51a7b360e01b81526001600160a01b0384811660048301529091169063ba51a7b390602401602060405180830381865afa1580156113db573d6000803e3d6000fd5b505050506040513d601f19601f820116820180604052508101906113ff9190612f6b565b6114425760405162461bcd60e51b8152602060048201526014602482015273125b9d985b1a59081cdb585c9d081dd85b1b195d60621b604482015260640161099b565b60015460405163966708a560e01b81526001600160a01b03848116600483015285811692169063966708a590602401602060405180830381865afa15801561148e573d6000803e3d6000fd5b505050506040513d601f19601f820116820180604052508101906114b29190612f88565b6001600160a01b0316146115005760405162461bcd60e51b81526020600482015260156024820152740aec2d8d8cae840deeedccae440dad2e6dac2e8c6d605b1b604482015260640161099b565b6001600160a01b0383811660009081526002602052604081206006810180546001600160a01b031916938616939093179092556001909101549003611555576008805490600061154f83612fa5565b91905055505b816001600160a01b0316836001600160a01b03167fbda62264c289c6291bb3eb4e3e5307dc06cc297b388621aacf428e523f1bbadc60405160405180910390a3505050565b60006115a581611d87565b610c4460008051602061301783398151915283611e39565b60026020528060005260406000206000915090508060000154908060010154908060020154908060030154908060040154908060050180546115fe90612db3565b80601f016020809104026020016040519081016040528092919081815260200182805461162a90612db3565b80156116775780601f1061164c57610100808354040283529160200191611677565b820191906000526020600020905b81548152906001019060200180831161165a57829003601f168201915b505050600690930154919250506001600160a01b031687565b7ff0c57e16840df040f15088dc2f81fe391c3923bec73e23a9662efc9c229c6a008054600160401b810460ff1615906001600160401b03166000811580156116d55750825b90506000826001600160401b031660011480156116f15750303b155b9050811580156116ff575080155b1561171d5760405163f92ee8a960e01b815260040160405180910390fd5b845467ffffffffffffffff19166001178555831561174757845460ff60401b1916600160401b1785555b61174f61206d565b61175761206d565b600080546001600160a01b03808b166001600160a01b031992831617835560018054918b169190921617905561178d9087611d94565b506117a660008051602061301783398151915287611d94565b5083156117ed57845460ff60401b19168555604051600181527fc7f505b2f371ae2175ee4913f4499e1f2633a7b5936321eed1cdaeb6115181d29060200160405180910390a15b5050505050505050565b600061180281611d87565b610c4460008051602061301783398151915283611d94565b60008051602061301783398151915261183281611d87565b600780546000918261184383612fa5565b909155506001600160a01b03891660009081526002602081905260408220426001820155908101805493945090929161187b83612fa5565b91905055506000805b86518110156118c65786818151811061189f5761189f612fbe565b6020026020010151826118b29190612f29565b9150806118be81612fa5565b915050611884565b508082600001819055506040518061014001604052804281526020018a8152602001600081526020018981526020018881526020018781526020018681526020016000815260200160011515815260200183600501805461192690612db3565b80601f016020809104026020016040519081016040528092919081815260200182805461195290612db3565b801561199f5780601f106119745761010080835404028352916020019161199f565b820191906000526020600020905b81548152906001019060200180831161198257829003601f168201915b5050509190925250506001600160a01b038b1660009081526005602090815260409182902083518155838201516001820155918301516002830155606083015180516119f192600385019201906122cf565b5060808201518051611a0d916004840191602090910190612325565b5060a08201518051611a29916005840191602090910190612325565b5060c0820151600682015560e0820151600782015561010082015160088201805460ff19169115159190911790556101208201516009820190611a6c9082612e3b565b505060408051858152602081018c90529081018790526001600160a01b038c1691507f0e151c21d7c08c035b93b93fbce8496266f576b241411682b3aea5733942593e9060600160405180910390a250505050505050505050565b611ad082610bcd565b611ad981611d87565b610c0b8383611e39565b336001600160a01b0384161480611b1657506001600160a01b038381166000908152600260205260409020600601541633145b80611b345750611b34600080516020613017833981519152336111fd565b611b6f5760405162461bcd60e51b815260206004820152600c60248201526b155b985d5d1a1bdc9a5e995960a21b604482015260640161099b565b6001600160a01b0383166000908152600260205260409020600501611b948282612e3b565b506001600160a01b03831660009081526002602052604081206003018054849290611bc0908490612f29565b92505081905550826001600160a01b03167f8dee1809e73cb6769186fba278b1f8df02e05ea0be9d6db75099366d3c45d109838342604051610a6893929190612fd4565b6000611c0f81611d87565b6001600160a01b03831615611c3a57600080546001600160a01b0319166001600160a01b0385161790555b6001600160a01b03821615610c4457600180546001600160a01b0384166001600160a01b0319909116179055505050565b611c9f6040518060a00160405280606081526020016000815260200160008152602001600081526020016000151581525090565b6001600160a01b03821660009081526006602052604090819020815160a08101909252805482908290611cd190612db3565b80601f0160208091040260200160405190810160405280929190818152602001828054611cfd90612db3565b8015611d4a5780601f10611d1f57610100808354040283529160200191611d4a565b820191906000526020600020905b815481529060010190602001808311611d2d57829003601f168201915b505050918352505060018201546020820152600282015460408201526003820154606082015260049091015460ff16151560809091015292915050565b611d918133612075565b50565b6000600080516020613057833981519152611daf84846111fd565b611e2f576000848152602082815260408083206001600160a01b03871684529091529020805460ff19166001179055611de53390565b6001600160a01b0316836001600160a01b0316857f2f8788117e7eff1d82e926ec794901d17c78024a50270940304540a733656f0d60405160405180910390a4600191505061090c565b600091505061090c565b6000600080516020613057833981519152611e5484846111fd565b15611e2f576000848152602082815260408083206001600160a01b0387168085529252808320805460ff1916905551339287917ff6391f5c32d9c69d2a47ea670b442974b53935d1edc7fd64eb21e047a839171b9190a4600191505061090c565b306001600160a01b037f0000000000000000000000000000000000000000000000000000000000000000161480611f3c57507f00000000000000000000000000000000000000000000000000000000000000006001600160a01b0316611f30600080516020613037833981519152546001600160a01b031690565b6001600160a01b031614155b15611f5a5760405163703e46dd60e11b815260040160405180910390fd5b565b6000610d1e81611d87565b816001600160a01b03166352d1902d6040518163ffffffff1660e01b8152600401602060405180830381865afa925050508015611fc1575060408051601f3d908101601f19168201909252611fbe91810190612ffd565b60015b611fe957604051634c9c8ce360e01b81526001600160a01b038316600482015260240161099b565b600080516020613037833981519152811461201a57604051632a87526960e21b81526004810182905260240161099b565b610c4483836120ae565b306001600160a01b037f00000000000000000000000000000000000000000000000000000000000000001614611f5a5760405163703e46dd60e11b815260040160405180910390fd5b611f5a612104565b61207f82826111fd565b610d1e5760405163e2517d3f60e01b81526001600160a01b03821660048201526024810183905260440161099b565b6120b78261214d565b6040516001600160a01b038316907fbc7cd75a20ee27fd9adebab32041f755214dbc6bffa90cc0225b39da2e5c2d3b90600090a28051156120fc57610c4482826121b2565b610d1e612228565b7ff0c57e16840df040f15088dc2f81fe391c3923bec73e23a9662efc9c229c6a0054600160401b900460ff16611f5a57604051631afcd79f60e31b815260040160405180910390fd5b806001600160a01b03163b60000361218357604051634c9c8ce360e01b81526001600160a01b038216600482015260240161099b565b60008051602061303783398151915280546001600160a01b0319166001600160a01b0392909216919091179055565b6060600080846001600160a01b0316846040516121cf9190612f0d565b600060405180830381855af49150503d806000811461220a576040519150601f19603f3d011682016040523d82523d6000602084013e61220f565b606091505b509150915061221f858383612247565b95945050505050565b3415611f5a5760405163b398979f60e01b815260040160405180910390fd5b60608261225c57612257826122a6565b61229f565b815115801561227357506001600160a01b0384163b155b1561229c57604051639996b31560e01b81526001600160a01b038516600482015260240161099b565b50805b9392505050565b8051156122b65780518082602001fd5b604051630a12f52160e11b815260040160405180910390fd5b828054828255906000526020600020908101928215612315579160200282015b8281111561231557825182906123059082612e3b565b50916020019190600101906122ef565b5061232192915061236c565b5090565b828054828255906000526020600020908101928215612360579160200282015b82811115612360578251825591602001919060010190612345565b50612321929150612389565b80821115612321576000612380828261239e565b5060010161236c565b5b80821115612321576000815560010161238a565b5080546123aa90612db3565b6000825580601f106123ba575050565b601f016020900490600052602060002090810190611d919190612389565b6000602082840312156123ea57600080fd5b81356001600160e01b03198116811461229f57600080fd5b6001600160a01b0381168114611d9157600080fd5b634e487b7160e01b600052604160045260246000fd5b60405160a081016001600160401b038111828210171561244f5761244f612417565b60405290565b604051601f8201601f191681016001600160401b038111828210171561247d5761247d612417565b604052919050565b60006001600160401b0383111561249e5761249e612417565b6124b1601f8401601f1916602001612455565b90508281528383830111156124c557600080fd5b828260208301376000602084830101529392505050565b600082601f8301126124ed57600080fd5b61229f83833560208501612485565b8015158114611d9157600080fd5b60008060006060848603121561251f57600080fd5b833561252a81612402565b925060208401356001600160401b038082111561254657600080fd5b612552878388016124dc565b9350604086013591508082111561256857600080fd5b9085019060a0828803121561257c57600080fd5b61258461242d565b82358281111561259357600080fd5b61259f898286016124dc565b825250602083013560208201526040830135604082015260608301356060820152608083013592506125d0836124fc565b8260808201528093505050509250925092565b6000602082840312156125f557600080fd5b813561229f81612402565b60005b8381101561261b578181015183820152602001612603565b50506000910152565b6000815180845261263c816020860160208601612600565b601f01601f19169290920160200192915050565b6020815281516020820152602082015160408201526040820151606082015260608201516080820152608082015160a0820152600060a083015160e060c084015261269f610100840182612624565b60c094909401516001600160a01b031660e093909301929092525090919050565b6000602082840312156126d257600080fd5b5035919050565b600080604083850312156126ec57600080fd5b8235915060208301356126fe81612402565b809150509250929050565b6000806040838503121561271c57600080fd5b823561272781612402565b946020939093013593505050565b60a08152600061274860a0830188612624565b905085602083015284604083015283606083015282151560808301529695505050505050565b6000806040838503121561278157600080fd5b823561278c81612402565b915060208301356001600160401b038111156127a757600080fd5b8301601f810185136127b857600080fd5b6127c785823560208401612485565b9150509250929050565b60208152600061229f6020830184612624565b600080604083850312156127f757600080fd5b823561280281612402565b915060208301356001600160401b0381111561281d57600080fd5b6127c7858286016124dc565b6000806000806080858703121561283f57600080fd5b843561284a81612402565b935060208501356001600160401b0381111561286557600080fd5b612871878288016124dc565b949794965050505060408301359260600135919050565b600081518084526020808501808196508360051b8101915082860160005b858110156128d05782840389526128be848351612624565b988501989350908401906001016128a6565b5091979650505050505050565b600081518084526020808501945080840160005b8381101561290d578151875295820195908201906001016128f1565b509495945050505050565b6020815281516020820152602082015160408201526040820151606082015260006060830151610140806080850152612955610160850183612888565b91506080850151601f19808685030160a087015261297384836128dd565b935060a08701519150808685030160c087015261299084836128dd565b935060c087015160e087015260e087015191506101008281880152808801519250506101206129c28188018415159052565b8701518685039091018387015290506129db8382612624565b9695505050505050565b87815286602082015285604082015284606082015283608082015282151560a082015260e060c08201526000612a1e60e0830184612624565b9998505050505050505050565b600080600060608486031215612a4057600080fd5b8335612a4b81612402565b95602085013595506040909401359392505050565b60008060408385031215612a7357600080fd5b8235612a7e81612402565b915060208301356126fe81612402565b87815286602082015285604082015284606082015283608082015260e060a08201526000612abf60e0830185612624565b905060018060a01b03831660c083015298975050505050505050565b600080600060608486031215612af057600080fd5b8335612afb81612402565b92506020840135612b0b81612402565b91506040840135612b1b81612402565b809150509250925092565b60006001600160401b03821115612b3f57612b3f612417565b5060051b60200190565b600082601f830112612b5a57600080fd5b81356020612b6f612b6a83612b26565b612455565b82815260059290921b84018101918181019086841115612b8e57600080fd5b8286015b84811015612ba95780358352918301918301612b92565b509695505050505050565b60008060008060008060c08789031215612bcd57600080fd5b612bd78735612402565b86359550602080880135955060408801356001600160401b0380821115612bfd57600080fd5b818a0191508a601f830112612c1157600080fd5b8135612c1f612b6a82612b26565b81815260059190911b8301840190848101908d831115612c3e57600080fd5b8585015b83811015612c74578481351115612c5857600080fd5b612c678f8883358901016124dc565b8352918601918601612c42565b509850505060608a0135925080831115612c8d57600080fd5b612c998b848c01612b49565b955060808a0135925080831115612caf57600080fd5b5050612cbd89828a01612b49565b92505060a087013590509295509295509295565b600080600060608486031215612ce657600080fd5b8335612cf181612402565b92506020840135915060408401356001600160401b03811115612d1357600080fd5b612d1f868287016124dc565b9150509250925092565b602081526000825160a06020840152612d4560c0840182612624565b90506020840151604084015260408401516060840152606084015160808401526080840151151560a08401528091505092915050565b634e487b7160e01b600052601160045260246000fd5b600082612dae57634e487b7160e01b600052601260045260246000fd5b500490565b600181811c90821680612dc757607f821691505b602082108103612de757634e487b7160e01b600052602260045260246000fd5b50919050565b601f821115610c4457600081815260208120601f850160051c81016020861015612e145750805b601f850160051c820191505b81811015612e3357828155600101612e20565b505050505050565b81516001600160401b03811115612e5457612e54612417565b612e6881612e628454612db3565b84612ded565b602080601f831160018114612e9d5760008415612e855750858301515b600019600386901b1c1916600185901b178555612e33565b600085815260208120601f198616915b82811015612ecc57888601518255948401946001909101908401612ead565b5085821015612eea5787850151600019600388901b60f8161c191681555b5050505050600190811b01905550565b8181038181111561090c5761090c612d7b565b60008251612f1f818460208701612600565b9190910192915050565b8082018082111561090c5761090c612d7b565b608081526000612f4f6080830187612624565b6020830195909552506040810192909252606090910152919050565b600060208284031215612f7d57600080fd5b815161229f816124fc565b600060208284031215612f9a57600080fd5b815161229f81612402565b600060018201612fb757612fb7612d7b565b5060010190565b634e487b7160e01b600052603260045260246000fd5b838152606060208201526000612fed6060830185612624565b9050826040830152949350505050565b60006020828403121561300f57600080fd5b505191905056feaebbd0fb413151224c6a708bd8331fef3cf1f79a695aedc8857f3cc1c6334e39360894a13ba1a3210667c828492db98dca3e2076cc3735a920a3ca505d382bbc02dd7bc7dec4dceedda775e58dd541e08a116c6c53815c0bd028192f7b626800a2646970667358221220211dec1deb02e6e5a37089df86a67e19b88eb4efdad262d509f9ca73fd0b4aa264736f6c63430008140033",
  "devdoc": {
    "details": "No longer handles fund custody - that's moved to UserSmartWallet",
    "errors": {
      "AccessControlBadConfirmation()": [
        {
          "details": "The caller of a function is not the expected one. NOTE: Don't confuse with {AccessControlUnauthorizedAccount}."
        }
      ],
      "AccessControlUnauthorizedAccount(address,bytes32)": [
        {
          "details": "The `account` is missing a role."
        }
      ],
      "AddressEmptyCode(address)": [
        {
          "details": "There's no code at `target` (it is not a contract)."
        }
      ],
      "ERC1967InvalidImplementation(address)": [
        {
          "details": "The `implementation` of the proxy is invalid."
        }
      ],
      "ERC1967NonPayable()": [
        {
          "details": "An upgrade function sees `msg.value > 0` that may be lost."
        }
      ],
      "FailedInnerCall()": [
        {
          "details": "A call to an address target failed. The target may have reverted."
        }
      ],
      "InvalidInitialization()": [
        {
          "details": "The contract is already initialized."
        }
      ],
      "NotInitializing()": [
        {
          "details": "The contract is not initializing."
        }
      ],
      "UUPSUnauthorizedCallContext()": [
        {
          "details": "The call is from an unauthorized context."
        }
      ],
      "UUPSUnsupportedProxiableUUID(bytes32)": [
        {
          "details": "The storage `slot` is unsupported as a UUID."
        }
      ]
    },
    "events": {
      "Initialized(uint64)": {
        "details": "Triggered when the contract has been initialized or reinitialized."
      },
      "RoleAdminChanged(bytes32,bytes32,bytes32)": {
        "details": "Emitted when `newAdminRole` is set as ``role``'s admin role, replacing `previousAdminRole` `DEFAULT_ADMIN_ROLE` is the starting admin for all roles, despite {RoleAdminChanged} not being emitted signaling this."
      },
      "RoleGranted(bytes32,address,address)": {
        "details": "Emitted when `account` is granted `role`. `sender` is the account that originated the contract call, an admin role bearer except when using {AccessControl-_setupRole}."
      },
      "RoleRevoked(bytes32,address,address)": {
        "details": "Emitted when `account` is revoked `role`. `sender` is the account that originated the contract call:   - if using `revokeRole`, it is the admin role bearer   - if using `renounceRole`, it is the role bearer (i.e. `account`)"
      },
      "Upgraded(address)": {
        "details": "Emitted when the implementation is upgraded."
      }
    },
    "kind": "dev",
    "methods": {
      "getOptimizationHistory(address)": {
        "params": {
          "user": "User address"
        },
        "returns": {
          "history": "OptimizationHistory struct"
        }
      },
      "getPlatformStats()": {
        "returns": {
          "averagePortfolioSize": "Average portfolio size",
          "totalOptimizations_": "Total optimizations executed",
          "totalUsers_": "Total number of users"
        }
      },
      "getRoleAdmin(bytes32)": {
        "details": "Returns the admin role that controls `role`. See {grantRole} and {revokeRole}. To change a role's admin, use {_setRoleAdmin}."
      },
      "getUserChainBalance(address,uint256)": {
        "params": {
          "chainId": "Chain ID",
          "user": "User address"
        },
        "returns": {
          "balance": "Total balance on that chain"
        }
      },
      "getUserPortfolio(address)": {
        "params": {
          "user": "User address"
        },
        "returns": {
          "portfolio": "UserPortfolio struct"
        }
      },
      "getUserProtocolBalance(address,string)": {
        "params": {
          "protocol": "Protocol name",
          "user": "User address"
        },
        "returns": {
          "balance": "Balance in that protocol"
        }
      },
      "getUserSmartWallet(address)": {
        "params": {
          "user": "User address"
        },
        "returns": {
          "smartWallet": "Smart wallet address"
        }
      },
      "getUserStrategyPreferences(address)": {
        "params": {
          "user": "User address"
        },
        "returns": {
          "preferences": "StrategyPreference struct"
        }
      },
      "grantBackendRole(address)": {
        "params": {
          "backend": "Backend address to grant role"
        }
      },
      "grantRole(bytes32,address)": {
        "details": "Grants `role` to `account`. If `account` had not been already granted `role`, emits a {RoleGranted} event. Requirements: - the caller must have ``role``'s admin role. May emit a {RoleGranted} event."
      },
      "hasRole(bytes32,address)": {
        "details": "Returns `true` if `account` has been granted `role`."
      },
      "hasSmartWallet(address)": {
        "params": {
          "user": "User address"
        },
        "returns": {
          "hasWallet": "True if user has a smart wallet",
          "walletAddress": "Address of the smart wallet"
        }
      },
      "linkSmartWallet(address,address)": {
        "params": {
          "smartWallet": "Smart wallet address",
          "user": "User address"
        }
      },
      "proxiableUUID()": {
        "details": "Implementation of the ERC1822 {proxiableUUID} function. This returns the storage slot used by the implementation. It is used to validate the implementation's compatibility when performing an upgrade. IMPORTANT: A proxy pointing at a proxiable contract should not be considered proxiable itself, because this risks bricking a proxy that upgrades to it, by delegating to itself until out of gas. Thus it is critical that this function revert if invoked through a proxy. This is guaranteed by the `notDelegated` modifier."
      },
      "renounceRole(bytes32,address)": {
        "details": "Revokes `role` from the calling account. Roles are often managed via {grantRole} and {revokeRole}: this function's purpose is to provide a mechanism for accounts to lose their privileges if they are compromised (such as when a trusted device is misplaced). If the calling account had been revoked `role`, emits a {RoleRevoked} event. Requirements: - the caller must be `callerConfirmation`. May emit a {RoleRevoked} event."
      },
      "reportAllocation(address,string,uint256,uint256)": {
        "params": {
          "amount": "Amount allocated",
          "chainId": "Chain ID",
          "protocol": "Protocol name",
          "user": "User address"
        }
      },
      "reportOptimizationComplete(address,uint256,string[],uint256[],uint256[],uint256)": {
        "params": {
          "allocations": "Array of allocation amounts",
          "chainIds": "Array of chain IDs",
          "expectedAPY": "Expected APY from strategy",
          "protocols": "Array of protocols used",
          "totalCost": "Total execution cost",
          "user": "User address"
        }
      },
      "requestOptimization(address,uint256,string)": {
        "params": {
          "amount": "Amount being deposited",
          "strategy": "Strategy preference",
          "user": "User address"
        }
      },
      "revokeBackendRole(address)": {
        "params": {
          "backend": "Backend address to revoke role"
        }
      },
      "revokeRole(bytes32,address)": {
        "details": "Revokes `role` from `account`. If `account` had been granted `role`, emits a {RoleRevoked} event. Requirements: - the caller must have ``role``'s admin role. May emit a {RoleRevoked} event."
      },
      "setStrategyPreference(address,string,(string,uint256,uint256,uint256,bool))": {
        "params": {
          "preferences": "Detailed strategy preferences",
          "strategy": "Strategy preference",
          "user": "User address"
        }
      },
      "supportsInterface(bytes4)": {
        "details": "See {IERC165-supportsInterface}."
      },
      "updateActualAPY(address,uint256)": {
        "params": {
          "actualAPY": "Measured actual APY",
          "user": "User address"
        }
      },
      "updateContracts(address,address)": {
        "params": {
          "newRegistry": "New ChainRegistry address",
          "newWalletFactory": "New SmartWalletFactory address"
        }
      },
      "updatePortfolioValue(address,uint256,uint256)": {
        "params": {
          "newTotalValue": "New total portfolio value",
          "protocolCount": "Number of active protocols",
          "user": "User address"
        }
      },
      "upgradeToAndCall(address,bytes)": {
        "custom:oz-upgrades-unsafe-allow-reachable": "delegatecall",
        "details": "Upgrade the implementation of the proxy to `newImplementation`, and subsequently execute the function call encoded in `data`. Calls {_authorizeUpgrade}. Emits an {Upgraded} event."
      },
      "version()": {
        "returns": {
          "_0": "version Contract version"
        }
      }
    },
    "title": "YieldRouter",
    "version": 1
  },
  "userdoc": {
    "kind": "user",
    "methods": {
      "getOptimizationHistory(address)": {
        "notice": "Get user's optimization history"
      },
      "getPlatformStats()": {
        "notice": "Get platform statistics"
      },
      "getUserChainBalance(address,uint256)": {
        "notice": "Get user's total balance on a specific chain"
      },
      "getUserPortfolio(address)": {
        "notice": "Get user's complete portfolio information"
      },
      "getUserProtocolBalance(address,string)": {
        "notice": "Get user's balance in a specific protocol"
      },
      "getUserSmartWallet(address)": {
        "notice": "Get user's smart wallet address"
      },
      "getUserStrategyPreferences(address)": {
        "notice": "Get user's strategy preferences"
      },
      "grantBackendRole(address)": {
        "notice": "Grant AI backend role to address"
      },
      "hasSmartWallet(address)": {
        "notice": "Check if user has a smart wallet"
      },
      "linkSmartWallet(address,address)": {
        "notice": "Link user's smart wallet for tracking"
      },
      "reportAllocation(address,string,uint256,uint256)": {
        "notice": "Report allocation result from backend (after execution)"
      },
      "reportOptimizationComplete(address,uint256,string[],uint256[],uint256[],uint256)": {
        "notice": "Report optimization completion"
      },
      "requestOptimization(address,uint256,string)": {
        "notice": "Request portfolio optimization (called when user deposits)"
      },
      "revokeBackendRole(address)": {
        "notice": "Revoke AI backend role from address"
      },
      "setStrategyPreference(address,string,(string,uint256,uint256,uint256,bool))": {
        "notice": "Set user's strategy preference"
      },
      "updateActualAPY(address,uint256)": {
        "notice": "Update actual APY after some time has passed"
      },
      "updateContracts(address,address)": {
        "notice": "Update contract addresses (admin only)"
      },
      "updatePortfolioValue(address,uint256,uint256)": {
        "notice": "Update user's portfolio value (called periodically by backend)"
      },
      "version()": {
        "notice": "Get contract version"
      }
    },
    "notice": "Simplified yield router for portfolio tracking and coordination",
    "version": 1
  },
  "storageLayout": {
    "storage": [
      {
        "astId": 4655,
        "contract": "contracts/YieldRouter.sol:YieldRouter",
        "label": "registry",
        "offset": 0,
        "slot": "0",
        "type": "t_contract(ChainRegistry)3171"
      },
      {
        "astId": 4658,
        "contract": "contracts/YieldRouter.sol:YieldRouter",
        "label": "walletFactory",
        "offset": 0,
        "slot": "1",
        "type": "t_contract(SmartWalletFactory)3607"
      },
      {
        "astId": 4663,
        "contract": "contracts/YieldRouter.sol:YieldRouter",
        "label": "userPortfolios",
        "offset": 0,
        "slot": "2",
        "type": "t_mapping(t_address,t_struct(UserPortfolio)4704_storage)"
      },
      {
        "astId": 4669,
        "contract": "contracts/YieldRouter.sol:YieldRouter",
        "label": "userProtocolBalances",
        "offset": 0,
        "slot": "3",
        "type": "t_mapping(t_address,t_mapping(t_string_memory_ptr,t_uint256))"
      },
      {
        "astId": 4675,
        "contract": "contracts/YieldRouter.sol:YieldRouter",
        "label": "userChainBalances",
        "offset": 0,
        "slot": "4",
        "type": "t_mapping(t_address,t_mapping(t_uint256,t_uint256))"
      },
      {
        "astId": 4680,
        "contract": "contracts/YieldRouter.sol:YieldRouter",
        "label": "optimizationHistory",
        "offset": 0,
        "slot": "5",
        "type": "t_mapping(t_address,t_struct(OptimizationHistory)4739_storage)"
      },
      {
        "astId": 4685,
        "contract": "contracts/YieldRouter.sol:YieldRouter",
        "label": "userStrategies",
        "offset": 0,
        "slot": "6",
        "type": "t_mapping(t_address,t_struct(StrategyPreference)4715_storage)"
      },
      {
        "astId": 4687,
        "contract": "contracts/YieldRouter.sol:YieldRouter",
        "label": "totalOptimizations",
        "offset": 0,
        "slot": "7",
        "type": "t_uint256"
      },
      {
        "astId": 4689,
        "contract": "contracts/YieldRouter.sol:YieldRouter",
        "label": "totalUsers",
        "offset": 0,
        "slot": "8",
        "type": "t_uint256"
      }
    ],
    "types": {
      "t_address": {
        "encoding": "inplace",
        "label": "address",
        "numberOfBytes": "20"
      },
      "t_array(t_string_storage)dyn_storage": {
        "base": "t_string_storage",
        "encoding": "dynamic_array",
        "label": "string[]",
        "numberOfBytes": "32"
      },
      "t_array(t_uint256)dyn_storage": {
        "base": "t_uint256",
        "encoding": "dynamic_array",
        "label": "uint256[]",
        "numberOfBytes": "32"
      },
      "t_bool": {
        "encoding": "inplace",
        "label": "bool",
        "numberOfBytes": "1"
      },
      "t_contract(ChainRegistry)3171": {
        "encoding": "inplace",
        "label": "contract ChainRegistry",
        "numberOfBytes": "20"
      },
      "t_contract(SmartWalletFactory)3607": {
        "encoding": "inplace",
        "label": "contract SmartWalletFactory",
        "numberOfBytes": "20"
      },
      "t_mapping(t_address,t_mapping(t_string_memory_ptr,t_uint256))": {
        "encoding": "mapping",
        "key": "t_address",
        "label": "mapping(address => mapping(string => uint256))",
        "numberOfBytes": "32",
        "value": "t_mapping(t_string_memory_ptr,t_uint256)"
      },
      "t_mapping(t_address,t_mapping(t_uint256,t_uint256))": {
        "encoding": "mapping",
        "key": "t_address",
        "label": "mapping(address => mapping(uint256 => uint256))",
        "numberOfBytes": "32",
        "value": "t_mapping(t_uint256,t_uint256)"
      },
      "t_mapping(t_address,t_struct(OptimizationHistory)4739_storage)": {
        "encoding": "mapping",
        "key": "t_address",
        "label": "mapping(address => struct YieldRouter.OptimizationHistory)",
        "numberOfBytes": "32",
        "value": "t_struct(OptimizationHistory)4739_storage"
      },
      "t_mapping(t_address,t_struct(StrategyPreference)4715_storage)": {
        "encoding": "mapping",
        "key": "t_address",
        "label": "mapping(address => struct YieldRouter.StrategyPreference)",
        "numberOfBytes": "32",
        "value": "t_struct(StrategyPreference)4715_storage"
      },
      "t_mapping(t_address,t_struct(UserPortfolio)4704_storage)": {
        "encoding": "mapping",
        "key": "t_address",
        "label": "mapping(address => struct YieldRouter.UserPortfolio)",
        "numberOfBytes": "32",
        "value": "t_struct(UserPortfolio)4704_storage"
      },
      "t_mapping(t_string_memory_ptr,t_uint256)": {
        "encoding": "mapping",
        "key": "t_string_memory_ptr",
        "label": "mapping(string => uint256)",
        "numberOfBytes": "32",
        "value": "t_uint256"
      },
      "t_mapping(t_uint256,t_uint256)": {
        "encoding": "mapping",
        "key": "t_uint256",
        "label": "mapping(uint256 => uint256)",
        "numberOfBytes": "32",
        "value": "t_uint256"
      },
      "t_string_memory_ptr": {
        "encoding": "bytes",
        "label": "string",
        "numberOfBytes": "32"
      },
      "t_string_storage": {
        "encoding": "bytes",
        "label": "string",
        "numberOfBytes": "32"
      },
      "t_struct(OptimizationHistory)4739_storage": {
        "encoding": "inplace",
        "label": "struct YieldRouter.OptimizationHistory",
        "members": [
          {
            "astId": 4717,
            "contract": "contracts/YieldRouter.sol:YieldRouter",
            "label": "timestamp",
            "offset": 0,
            "slot": "0",
            "type": "t_uint256"
          },
          {
            "astId": 4719,
            "contract": "contracts/YieldRouter.sol:YieldRouter",
            "label": "expectedAPY",
            "offset": 0,
            "slot": "1",
            "type": "t_uint256"
          },
          {
            "astId": 4721,
            "contract": "contracts/YieldRouter.sol:YieldRouter",
            "label": "actualAPY",
            "offset": 0,
            "slot": "2",
            "type": "t_uint256"
          },
          {
            "astId": 4724,
            "contract": "contracts/YieldRouter.sol:YieldRouter",
            "label": "protocols",
            "offset": 0,
            "slot": "3",
            "type": "t_array(t_string_storage)dyn_storage"
          },
          {
            "astId": 4727,
            "contract": "contracts/YieldRouter.sol:YieldRouter",
            "label": "chainIds",
            "offset": 0,
            "slot": "4",
            "type": "t_array(t_uint256)dyn_storage"
          },
          {
            "astId": 4730,
            "contract": "contracts/YieldRouter.sol:YieldRouter",
            "label": "allocations",
            "offset": 0,
            "slot": "5",
            "type": "t_array(t_uint256)dyn_storage"
          },
          {
            "astId": 4732,
            "contract": "contracts/YieldRouter.sol:YieldRouter",
            "label": "gasCost",
            "offset": 0,
            "slot": "6",
            "type": "t_uint256"
          },
          {
            "astId": 4734,
            "contract": "contracts/YieldRouter.sol:YieldRouter",
            "label": "transferCost",
            "offset": 0,
            "slot": "7",
            "type": "t_uint256"
          },
          {
            "astId": 4736,
            "contract": "contracts/YieldRouter.sol:YieldRouter",
            "label": "success",
            "offset": 0,
            "slot": "8",
            "type": "t_bool"
          },
          {
            "astId": 4738,
            "contract": "contracts/YieldRouter.sol:YieldRouter",
            "label": "strategy",
            "offset": 0,
            "slot": "9",
            "type": "t_string_storage"
          }
        ],
        "numberOfBytes": "320"
      },
      "t_struct(StrategyPreference)4715_storage": {
        "encoding": "inplace",
        "label": "struct YieldRouter.StrategyPreference",
        "members": [
          {
            "astId": 4706,
            "contract": "contracts/YieldRouter.sol:YieldRouter",
            "label": "riskTolerance",
            "offset": 0,
            "slot": "0",
            "type": "t_string_storage"
          },
          {
            "astId": 4708,
            "contract": "contracts/YieldRouter.sol:YieldRouter",
            "label": "preferredChains",
            "offset": 0,
            "slot": "1",
            "type": "t_uint256"
          },
          {
            "astId": 4710,
            "contract": "contracts/YieldRouter.sol:YieldRouter",
            "label": "maxProtocolAllocation",
            "offset": 0,
            "slot": "2",
            "type": "t_uint256"
          },
          {
            "astId": 4712,
            "contract": "contracts/YieldRouter.sol:YieldRouter",
            "label": "rebalanceThreshold",
            "offset": 0,
            "slot": "3",
            "type": "t_uint256"
          },
          {
            "astId": 4714,
            "contract": "contracts/YieldRouter.sol:YieldRouter",
            "label": "autoRebalanceEnabled",
            "offset": 0,
            "slot": "4",
            "type": "t_bool"
          }
        ],
        "numberOfBytes": "160"
      },
      "t_struct(UserPortfolio)4704_storage": {
        "encoding": "inplace",
        "label": "struct YieldRouter.UserPortfolio",
        "members": [
          {
            "astId": 4691,
            "contract": "contracts/YieldRouter.sol:YieldRouter",
            "label": "totalValue",
            "offset": 0,
            "slot": "0",
            "type": "t_uint256"
          },
          {
            "astId": 4693,
            "contract": "contracts/YieldRouter.sol:YieldRouter",
            "label": "lastOptimization",
            "offset": 0,
            "slot": "1",
            "type": "t_uint256"
          },
          {
            "astId": 4695,
            "contract": "contracts/YieldRouter.sol:YieldRouter",
            "label": "optimizationCount",
            "offset": 0,
            "slot": "2",
            "type": "t_uint256"
          },
          {
            "astId": 4697,
            "contract": "contracts/YieldRouter.sol:YieldRouter",
            "label": "totalDeposited",
            "offset": 0,
            "slot": "3",
            "type": "t_uint256"
          },
          {
            "astId": 4699,
            "contract": "contracts/YieldRouter.sol:YieldRouter",
            "label": "totalWithdrawn",
            "offset": 0,
            "slot": "4",
            "type": "t_uint256"
          },
          {
            "astId": 4701,
            "contract": "contracts/YieldRouter.sol:YieldRouter",
            "label": "currentStrategy",
            "offset": 0,
            "slot": "5",
            "type": "t_string_storage"
          },
          {
            "astId": 4703,
            "contract": "contracts/YieldRouter.sol:YieldRouter",
            "label": "smartWallet",
            "offset": 0,
            "slot": "6",
            "type": "t_address"
          }
        ],
        "numberOfBytes": "224"
      },
      "t_uint256": {
        "encoding": "inplace",
        "label": "uint256",
        "numberOfBytes": "32"
      }
    }
  }
}